{
  "_format": "hh-sol-artifact-1",
  "contractName": "PropertyGovernance",
  "sourceName": "contracts/PropertyGovernance.sol",
  "abi": [
    {
      "inputs": [
        {
          "internalType": "address",
          "name": "_propertyTokenContract",
          "type": "address"
        }
      ],
      "stateMutability": "nonpayable",
      "type": "constructor"
    },
    {
      "anonymous": false,
      "inputs": [
        {
          "indexed": true,
          "internalType": "uint256",
          "name": "proposalId",
          "type": "uint256"
        },
        {
          "indexed": true,
          "internalType": "address",
          "name": "tokenAddress",
          "type": "address"
        },
        {
          "indexed": true,
          "internalType": "address",
          "name": "proposer",
          "type": "address"
        },
        {
          "indexed": false,
          "internalType": "string",
          "name": "title",
          "type": "string"
        },
        {
          "indexed": false,
          "internalType": "enum IPropertyGovernance.ProposalType",
          "name": "proposalType",
          "type": "uint8"
        },
        {
          "indexed": false,
          "internalType": "uint256",
          "name": "endTime",
          "type": "uint256"
        }
      ],
      "name": "ProposalCreated",
      "type": "event"
    },
    {
      "anonymous": false,
      "inputs": [
        {
          "indexed": true,
          "internalType": "uint256",
          "name": "proposalId",
          "type": "uint256"
        },
        {
          "indexed": false,
          "internalType": "bool",
          "name": "success",
          "type": "bool"
        },
        {
          "indexed": false,
          "internalType": "bytes",
          "name": "returnData",
          "type": "bytes"
        }
      ],
      "name": "ProposalExecuted",
      "type": "event"
    },
    {
      "anonymous": false,
      "inputs": [
        {
          "indexed": true,
          "internalType": "uint256",
          "name": "proposalId",
          "type": "uint256"
        },
        {
          "indexed": false,
          "internalType": "enum IPropertyGovernance.ProposalStatus",
          "name": "oldStatus",
          "type": "uint8"
        },
        {
          "indexed": false,
          "internalType": "enum IPropertyGovernance.ProposalStatus",
          "name": "newStatus",
          "type": "uint8"
        }
      ],
      "name": "ProposalStatusChanged",
      "type": "event"
    },
    {
      "anonymous": false,
      "inputs": [
        {
          "indexed": true,
          "internalType": "bytes32",
          "name": "role",
          "type": "bytes32"
        },
        {
          "indexed": true,
          "internalType": "bytes32",
          "name": "previousAdminRole",
          "type": "bytes32"
        },
        {
          "indexed": true,
          "internalType": "bytes32",
          "name": "newAdminRole",
          "type": "bytes32"
        }
      ],
      "name": "RoleAdminChanged",
      "type": "event"
    },
    {
      "anonymous": false,
      "inputs": [
        {
          "indexed": true,
          "internalType": "bytes32",
          "name": "role",
          "type": "bytes32"
        },
        {
          "indexed": true,
          "internalType": "address",
          "name": "account",
          "type": "address"
        },
        {
          "indexed": true,
          "internalType": "address",
          "name": "sender",
          "type": "address"
        }
      ],
      "name": "RoleGranted",
      "type": "event"
    },
    {
      "anonymous": false,
      "inputs": [
        {
          "indexed": true,
          "internalType": "bytes32",
          "name": "role",
          "type": "bytes32"
        },
        {
          "indexed": true,
          "internalType": "address",
          "name": "account",
          "type": "address"
        },
        {
          "indexed": true,
          "internalType": "address",
          "name": "sender",
          "type": "address"
        }
      ],
      "name": "RoleRevoked",
      "type": "event"
    },
    {
      "anonymous": false,
      "inputs": [
        {
          "indexed": true,
          "internalType": "uint256",
          "name": "proposalId",
          "type": "uint256"
        },
        {
          "indexed": true,
          "internalType": "address",
          "name": "voter",
          "type": "address"
        },
        {
          "indexed": false,
          "internalType": "enum IPropertyGovernance.VoteChoice",
          "name": "choice",
          "type": "uint8"
        },
        {
          "indexed": false,
          "internalType": "uint256",
          "name": "votingPower",
          "type": "uint256"
        },
        {
          "indexed": false,
          "internalType": "string",
          "name": "reason",
          "type": "string"
        }
      ],
      "name": "VoteCast",
      "type": "event"
    },
    {
      "inputs": [],
      "name": "BASIS_POINTS",
      "outputs": [
        {
          "internalType": "uint256",
          "name": "",
          "type": "uint256"
        }
      ],
      "stateMutability": "view",
      "type": "function"
    },
    {
      "inputs": [],
      "name": "DEFAULT_ADMIN_ROLE",
      "outputs": [
        {
          "internalType": "bytes32",
          "name": "",
          "type": "bytes32"
        }
      ],
      "stateMutability": "view",
      "type": "function"
    },
    {
      "inputs": [],
      "name": "DEFAULT_MAJORITY",
      "outputs": [
        {
          "internalType": "uint256",
          "name": "",
          "type": "uint256"
        }
      ],
      "stateMutability": "view",
      "type": "function"
    },
    {
      "inputs": [],
      "name": "DEFAULT_QUORUM",
      "outputs": [
        {
          "internalType": "uint256",
          "name": "",
          "type": "uint256"
        }
      ],
      "stateMutability": "view",
      "type": "function"
    },
    {
      "inputs": [],
      "name": "GOVERNANCE_ADMIN_ROLE",
      "outputs": [
        {
          "internalType": "bytes32",
          "name": "",
          "type": "bytes32"
        }
      ],
      "stateMutability": "view",
      "type": "function"
    },
    {
      "inputs": [],
      "name": "MAX_VOTING_PERIOD",
      "outputs": [
        {
          "internalType": "uint256",
          "name": "",
          "type": "uint256"
        }
      ],
      "stateMutability": "view",
      "type": "function"
    },
    {
      "inputs": [],
      "name": "MIN_VOTING_PERIOD",
      "outputs": [
        {
          "internalType": "uint256",
          "name": "",
          "type": "uint256"
        }
      ],
      "stateMutability": "view",
      "type": "function"
    },
    {
      "inputs": [],
      "name": "PROPERTY_MANAGER_ROLE",
      "outputs": [
        {
          "internalType": "bytes32",
          "name": "",
          "type": "bytes32"
        }
      ],
      "stateMutability": "view",
      "type": "function"
    },
    {
      "inputs": [
        {
          "internalType": "uint256",
          "name": "proposalId",
          "type": "uint256"
        },
        {
          "internalType": "enum IPropertyGovernance.VoteChoice",
          "name": "choice",
          "type": "uint8"
        },
        {
          "internalType": "string",
          "name": "reason",
          "type": "string"
        }
      ],
      "name": "castVote",
      "outputs": [],
      "stateMutability": "nonpayable",
      "type": "function"
    },
    {
      "inputs": [
        {
          "internalType": "address",
          "name": "tokenAddress",
          "type": "address"
        },
        {
          "internalType": "string",
          "name": "title",
          "type": "string"
        },
        {
          "internalType": "string",
          "name": "description",
          "type": "string"
        },
        {
          "internalType": "enum IPropertyGovernance.ProposalType",
          "name": "proposalType",
          "type": "uint8"
        },
        {
          "internalType": "bytes",
          "name": "proposalData",
          "type": "bytes"
        },
        {
          "internalType": "uint256",
          "name": "votingPeriod",
          "type": "uint256"
        },
        {
          "internalType": "uint256",
          "name": "quorumRequired",
          "type": "uint256"
        },
        {
          "internalType": "uint256",
          "name": "majorityRequired",
          "type": "uint256"
        }
      ],
      "name": "createProposal",
      "outputs": [
        {
          "internalType": "uint256",
          "name": "",
          "type": "uint256"
        }
      ],
      "stateMutability": "nonpayable",
      "type": "function"
    },
    {
      "inputs": [
        {
          "internalType": "uint256",
          "name": "proposalId",
          "type": "uint256"
        }
      ],
      "name": "executeProposal",
      "outputs": [],
      "stateMutability": "nonpayable",
      "type": "function"
    },
    {
      "inputs": [
        {
          "internalType": "uint256",
          "name": "proposalId",
          "type": "uint256"
        }
      ],
      "name": "finalizeProposal",
      "outputs": [],
      "stateMutability": "nonpayable",
      "type": "function"
    },
    {
      "inputs": [
        {
          "internalType": "uint256",
          "name": "proposalId",
          "type": "uint256"
        }
      ],
      "name": "getProposal",
      "outputs": [
        {
          "internalType": "address",
          "name": "tokenAddress",
          "type": "address"
        },
        {
          "internalType": "address",
          "name": "proposer",
          "type": "address"
        },
        {
          "internalType": "string",
          "name": "title",
          "type": "string"
        },
        {
          "internalType": "string",
          "name": "description",
          "type": "string"
        },
        {
          "internalType": "enum IPropertyGovernance.ProposalType",
          "name": "proposalType",
          "type": "uint8"
        },
        {
          "internalType": "uint256",
          "name": "startTime",
          "type": "uint256"
        },
        {
          "internalType": "uint256",
          "name": "endTime",
          "type": "uint256"
        },
        {
          "internalType": "enum IPropertyGovernance.ProposalStatus",
          "name": "status",
          "type": "uint8"
        },
        {
          "internalType": "uint256",
          "name": "totalVotesFor",
          "type": "uint256"
        },
        {
          "internalType": "uint256",
          "name": "totalVotesAgainst",
          "type": "uint256"
        },
        {
          "internalType": "uint256",
          "name": "totalVotesAbstain",
          "type": "uint256"
        }
      ],
      "stateMutability": "view",
      "type": "function"
    },
    {
      "inputs": [
        {
          "internalType": "bytes32",
          "name": "role",
          "type": "bytes32"
        }
      ],
      "name": "getRoleAdmin",
      "outputs": [
        {
          "internalType": "bytes32",
          "name": "",
          "type": "bytes32"
        }
      ],
      "stateMutability": "view",
      "type": "function"
    },
    {
      "inputs": [
        {
          "internalType": "address",
          "name": "tokenAddress",
          "type": "address"
        }
      ],
      "name": "getTokenProposals",
      "outputs": [
        {
          "internalType": "uint256[]",
          "name": "",
          "type": "uint256[]"
        }
      ],
      "stateMutability": "view",
      "type": "function"
    },
    {
      "inputs": [
        {
          "internalType": "uint256",
          "name": "proposalId",
          "type": "uint256"
        },
        {
          "internalType": "address",
          "name": "voter",
          "type": "address"
        }
      ],
      "name": "getVote",
      "outputs": [
        {
          "internalType": "bool",
          "name": "hasVoted",
          "type": "bool"
        },
        {
          "internalType": "enum IPropertyGovernance.VoteChoice",
          "name": "choice",
          "type": "uint8"
        },
        {
          "internalType": "uint256",
          "name": "votingPower",
          "type": "uint256"
        },
        {
          "internalType": "uint256",
          "name": "timestamp",
          "type": "uint256"
        },
        {
          "internalType": "string",
          "name": "reason",
          "type": "string"
        }
      ],
      "stateMutability": "view",
      "type": "function"
    },
    {
      "inputs": [
        {
          "internalType": "address",
          "name": "tokenAddress",
          "type": "address"
        },
        {
          "internalType": "address",
          "name": "voter",
          "type": "address"
        }
      ],
      "name": "getVotingPower",
      "outputs": [
        {
          "internalType": "uint256",
          "name": "",
          "type": "uint256"
        }
      ],
      "stateMutability": "view",
      "type": "function"
    },
    {
      "inputs": [
        {
          "internalType": "bytes32",
          "name": "role",
          "type": "bytes32"
        },
        {
          "internalType": "address",
          "name": "account",
          "type": "address"
        }
      ],
      "name": "grantRole",
      "outputs": [],
      "stateMutability": "nonpayable",
      "type": "function"
    },
    {
      "inputs": [
        {
          "internalType": "bytes32",
          "name": "role",
          "type": "bytes32"
        },
        {
          "internalType": "address",
          "name": "account",
          "type": "address"
        }
      ],
      "name": "hasRole",
      "outputs": [
        {
          "internalType": "bool",
          "name": "",
          "type": "bool"
        }
      ],
      "stateMutability": "view",
      "type": "function"
    },
    {
      "inputs": [],
      "name": "nextProposalId",
      "outputs": [
        {
          "internalType": "uint256",
          "name": "",
          "type": "uint256"
        }
      ],
      "stateMutability": "view",
      "type": "function"
    },
    {
      "inputs": [],
      "name": "propertyTokenContract",
      "outputs": [
        {
          "internalType": "contract IPropertyToken",
          "name": "",
          "type": "address"
        }
      ],
      "stateMutability": "view",
      "type": "function"
    },
    {
      "inputs": [
        {
          "internalType": "uint256",
          "name": "",
          "type": "uint256"
        }
      ],
      "name": "proposals",
      "outputs": [
        {
          "internalType": "uint256",
          "name": "proposalId",
          "type": "uint256"
        },
        {
          "internalType": "address",
          "name": "tokenAddress",
          "type": "address"
        },
        {
          "internalType": "address",
          "name": "proposer",
          "type": "address"
        },
        {
          "internalType": "string",
          "name": "title",
          "type": "string"
        },
        {
          "internalType": "string",
          "name": "description",
          "type": "string"
        },
        {
          "internalType": "enum IPropertyGovernance.ProposalType",
          "name": "proposalType",
          "type": "uint8"
        },
        {
          "internalType": "bytes",
          "name": "proposalData",
          "type": "bytes"
        },
        {
          "internalType": "uint256",
          "name": "startTime",
          "type": "uint256"
        },
        {
          "internalType": "uint256",
          "name": "endTime",
          "type": "uint256"
        },
        {
          "internalType": "uint256",
          "name": "votingPeriod",
          "type": "uint256"
        },
        {
          "internalType": "uint256",
          "name": "quorumRequired",
          "type": "uint256"
        },
        {
          "internalType": "uint256",
          "name": "majorityRequired",
          "type": "uint256"
        },
        {
          "internalType": "enum IPropertyGovernance.ProposalStatus",
          "name": "status",
          "type": "uint8"
        },
        {
          "internalType": "uint256",
          "name": "totalVotesFor",
          "type": "uint256"
        },
        {
          "internalType": "uint256",
          "name": "totalVotesAgainst",
          "type": "uint256"
        },
        {
          "internalType": "uint256",
          "name": "totalVotesAbstain",
          "type": "uint256"
        },
        {
          "internalType": "uint256",
          "name": "totalVotingPower",
          "type": "uint256"
        },
        {
          "internalType": "bool",
          "name": "executed",
          "type": "bool"
        }
      ],
      "stateMutability": "view",
      "type": "function"
    },
    {
      "inputs": [
        {
          "internalType": "bytes32",
          "name": "role",
          "type": "bytes32"
        },
        {
          "internalType": "address",
          "name": "account",
          "type": "address"
        }
      ],
      "name": "renounceRole",
      "outputs": [],
      "stateMutability": "nonpayable",
      "type": "function"
    },
    {
      "inputs": [
        {
          "internalType": "bytes32",
          "name": "role",
          "type": "bytes32"
        },
        {
          "internalType": "address",
          "name": "account",
          "type": "address"
        }
      ],
      "name": "revokeRole",
      "outputs": [],
      "stateMutability": "nonpayable",
      "type": "function"
    },
    {
      "inputs": [
        {
          "internalType": "address",
          "name": "",
          "type": "address"
        },
        {
          "internalType": "uint256",
          "name": "",
          "type": "uint256"
        }
      ],
      "name": "tokenProposals",
      "outputs": [
        {
          "internalType": "uint256",
          "name": "",
          "type": "uint256"
        }
      ],
      "stateMutability": "view",
      "type": "function"
    },
    {
      "inputs": [
        {
          "internalType": "address",
          "name": "",
          "type": "address"
        },
        {
          "internalType": "address",
          "name": "",
          "type": "address"
        }
      ],
      "name": "voterPower",
      "outputs": [
        {
          "internalType": "uint256",
          "name": "",
          "type": "uint256"
        }
      ],
      "stateMutability": "view",
      "type": "function"
    }
  ],
  "bytecode": "0x60a034620001bb57601f6200292b38819003918201601f1916830192916001600160401b03841183851017620001c05780839260409586528339602092839181010312620001bb57516001600160a01b03811690819003620001bb57600180556001600555801562000178576080526000808052808252828120338252825260ff83822054161562000140575b7fe7e0b301de1c1e268073a6b56ff0876cffca0becba0dca08f945c1394e3e972791828252818152838220338352815260ff84832054161562000105575b83516127349081620001d782396080518181816101560152818161042f0152818161082501528181610d4b01528181610dae01526111770152f35b8282528181528382209033835252828120600160ff1982541617905533916000805160206200290b833981519152339280a4388080620000ca565b8080528082528281203382528252828120600160ff198254161790553333826000805160206200290b8339815191528180a46200008c565b50606491519062461bcd60e51b82526004820152601f60248201527f496e76616c69642070726f706572747920746f6b656e20636f6e7472616374006044820152fd5b600080fd5b634e487b7160e01b600052604160045260246000fdfe61010080604052600436101561001457600080fd5b60e0600035811c918263013cf08b14611b69575081630d61b519146117135781630ddc3d7b146116ba5781631bc795ec1461169d578163215809ca1461167f578163248a9ca3146116505781632ab09d14146116325781632f2ff15d1461157f57816336568abe146114ed578163470b7622146110a057816347e646561461106557816350017c5c1461071757816353e88948146106c65781635652077c14610625578163584cabfa1461057157816377fb8d7a1461053657816391d14854146104e95781639a341b9f146104cc578163a217fddf146104b0578163a60b1145146103d5578163a64e024a146103b7578163bc3f931f146102fe578163c7f758a8146101e857508063d547741f146101a7578063e1f1c4a71461018a5763e71f5dac1461014057600080fd5b34610185576000366003190112610185576040517f00000000000000000000000000000000000000000000000000000000000000006001600160a01b03168152602090f35b600080fd5b346101855760003660031901126101855760206040516127108152f35b34610185576040366003190112610185576101e66004356101c6611ea4565b908060005260006020526101e16001604060002001546122af565b6125e3565b005b34610185576020366003190112610185576020906004356000526002825260406000209061021882541515612148565b60018060a01b039182600182015416926002820154169060ff6005820154169260078201549060088301549060ff600c8501541691600d850154936102c360046102b5600e89015498600f8101549a610296604051926102868461027f8160038501611d54565b0385611e05565b61027f6040518097819301611d54565b6040519e8f9e8f908152015260408d61016091829101528d0190611e49565b908b820360608d0152611e49565b976102cd81611e6e565b60808a015260a089015260c08801526102e582611e6e565b8601526101008501526101208401526101408301520390f35b34610185576040366003190112610185576012610319611ea4565b600435600052600260205260406000209061033682541515612148565b60018060a01b03166000520160205261039860406000206103b36003825492600181015461037a6002830154926103736040518096819301611d54565b0384611e05565b604051958560ff8897161515875260ff602088019160081c16611f58565b6040850152606084015260a0608084015260a0830190611e49565b0390f35b3461018557600036600319011261018557602060405162278d008152f35b346101855760403660031901126101855761042b60206103f3611e8e565b6103fb611ea4565b60405163dac796bb60e01b81526001600160a01b0392831660048201529116602482015291829081906044820190565b03817f00000000000000000000000000000000000000000000000000000000000000006001600160a01b03165afa80156104a457600090610472575b602090604051908152f35b506020813d821161049c575b8161048b60209383611e05565b810103126101855760209051610467565b3d915061047e565b6040513d6000823e3d90fd5b3461018557600036600319011261018557602060405160008152f35b346101855760003660031901126101855760206040516109c48152f35b3461018557604036600319011261018557610502611ea4565b600435600052600060205260406000209060018060a01b0316600052602052602060ff604060002054166040519015158152f35b346101855760003660031901126101855760206040517fe7e0b301de1c1e268073a6b56ff0876cffca0becba0dca08f945c1394e3e97278152f35b3461018557602080600319360112610185576001600160a01b03610593611e8e565b1660005260038152604060002060405190818382549182815201908192600052846000209060005b868282106106115786866105d182880383611e05565b604051928392818401908285525180915260408401929160005b8281106105fa57505050500390f35b8351855286955093810193928101926001016105eb565b8354855290930192600192830192016105bb565b34610185576020366003190112610185576004358060005260026020526008604060002061065581541515612148565b61066f60ff600c8301541661066981611e6e565b15612194565b0154421115610681576101e6906121d9565b60405162461bcd60e51b815260206004820152601b60248201527f566f74696e6720706572696f6420686173206e6f7420656e64656400000000006044820152606490fd5b34610185576040366003190112610185576106df611e8e565b6106e7611ea4565b9060018060a01b038091166000526004602052604060002091166000526020526020604060002054604051908152f35b346101855761010036600319011261018557610731611e8e565b6024356001600160401b03811161018557610750903690600401611f3a565b6044356001600160401b0381116101855761076f903690600401611f3a565b9160056064351015610185576084356001600160401b0381116101855736602382011215610185576107ab903690602481600401359101611f03565b916107b4612688565b80511561102857835115610fe3576201518060a435101580610fd4575b15610f975760c4351515938480610f89575b15610f445760e43515158080610f36575b15610ef157604051637e43a5d360e11b81526001600160a01b038581166004830152909190600090839060249082907f0000000000000000000000000000000000000000000000000000000000000000165afa9182156104a457600092610ed4575b5061010082015115610e8f5760c08201516001600160a01b031633148015610e57575b8015610d1c575b15610ccd57600554956000198714610cb75760018701600555866000526002602052604060002093878555600185016bffffffffffffffffffffffff60a01b9060018060a01b038916828254161790556002860190339082541617905585516001600160401b038111610b1b57610907816108fe6003890154611d1a565b600389016120f4565b806020601f8211600114610c4a57600091610c3f575b508160011b916000199060031b1c19161760038601555b8051906001600160401b038211610b1b5781906109618261095860048a0154611d1a565b60048a016120f4565b602090601f8311600114610bcd57600092610bc2575b50508160011b916000199060031b1c19161760048501555b6005840161099e606435611e6e565b60ff1981541660ff606435161790558051906001600160401b038211610b1b576109d8826109cf6006880154611d1a565b600688016120f4565b602090601f8311600114610b4c5791806080949260109694600092610b41575b50508160011b916000199060031b1c19161760068601555b426007860155610a2260a4354261266a565b6008860190815560a43560098701559815610b395760c4355b600a86015515610b315760e4355b600b850155600c8401805460ff1916905501519101556001600160a01b03821660009081526003602052604090208054600160401b811015610b1b57602095610aba82879460017ff568f1dcf5577c429a59d042ad7eaaeeb64e73e9cf7c8f1305241ae53434842895018155611eba565b81549060031b9085821b91600019901b19161790555492610ae660405191606083526060830190611e49565b93610af2606435611e6e565b60643582890152604082015233946001600160a01b03169381900390a460018055604051908152f35b634e487b7160e01b600052604160045260246000fd5b611388610a49565b6109c4610a3b565b015190508b806109f8565b906006860160005260206000209160005b601f1985168110610baa575092608094926001926010979583601f19811610610b91575b505050811b016006860155610a10565b015160001960f88460031b161c191690558b8080610b81565b91926020600181928685015181550194019201610b5d565b015190508a80610977565b9250600487016000526020600020906000935b601f1984168510610c24576001945083601f19811610610c0b575b505050811b01600485015561098f565b015160001960f88460031b161c191690558a8080610bfb565b81810151835560209485019460019093019290910190610be0565b90508701518b61091d565b91506003870160005260206000206000925b601f1983168410610c9f576001935082601f19811610610c86575b5050811b016003860155610934565b89015160001960f88460031b161c191690558b80610c77565b89810151825560209384019360019092019101610c5c565b634e487b7160e01b600052601160045260246000fd5b60405162461bcd60e51b815260206004820152602160248201527f4e6f7420617574686f72697a656420746f206372656174652070726f706f73616044820152601b60fa1b6064820152608490fd5b5060405163dac796bb60e01b81526001600160a01b0386166004820152336024820152602081806044810103817f00000000000000000000000000000000000000000000000000000000000000006001600160a01b03165afa9081156104a457600091610e26575b50604051637e43a5d360e11b81526001600160a01b038781166004830152600090829060249082907f0000000000000000000000000000000000000000000000000000000000000000165afa80156104a457608091600091610e03575b500151606481029080820460641490151715610cb75761271090041115610880565b610e2091503d806000833e610e188183611e05565b810190611fbb565b8a610de1565b90506020813d8211610e4f575b81610e4060209383611e05565b81010312610185575188610d84565b3d9150610e33565b503360009081527fb70a1c27684b0fab259e56bef232a1da05ea8d4b96a81d4bb9c747ac4a01a636602052604090205460ff16610879565b60405162461bcd60e51b815260206004820152601c60248201527f50726f706572747920746f6b656e206973206e6f7420616374697665000000006044820152606490fd5b610eea9192503d806000833e610e188183611e05565b9087610856565b60405162461bcd60e51b815260206004820152601c60248201527f496e76616c6964206d616a6f7269747920726571756972656d656e74000000006044820152606490fd5b5061271060e43511156107f4565b60405162461bcd60e51b815260206004820152601a60248201527f496e76616c69642071756f72756d20726571756972656d656e740000000000006044820152606490fd5b5061271060c43511156107e3565b60405162461bcd60e51b8152602060048201526015602482015274125b9d985b1a59081d9bdd1a5b99c81c195c9a5bd9605a1b6044820152606490fd5b5062278d0060a43511156107d1565b60405162461bcd60e51b815260206004820152601b60248201527f4465736372697074696f6e2063616e6e6f7420626520656d70747900000000006044820152606490fd5b60405162461bcd60e51b81526020600482015260156024820152745469746c652063616e6e6f7420626520656d70747960581b6044820152606490fd5b346101855760003660031901126101855760206040517f5aa58c694aeb083df8754bf5e98675317e4137a5a8a2c6188d0228869e43da7e8152f35b34610185576060366003190112610185576024356003811015610185576001600160401b03604435818111610185576110dd903690600401611f3a565b906110e6612688565b600435918260005260209060028252604060002061110681541515612148565b61111a60ff600c8301541661066981611e6e565b600881015442116114a85760128101953360005286845260ff604060002054166114735760018281015460405163dac796bb60e01b81526001600160a01b03918216600482015233602482015291989096919392919086856044817f00000000000000000000000000000000000000000000000000000000000000008c165afa9485156104a457600095611444575b50841561140d57336000528652604060002089815461ff008560081b169061ffff191617178155848a8201554260028201558551918211610b1b57600301906111fc816111f68454611d1a565b846120f4565b8087601f82116001146113ac576000916113a1575b50600019600383901b1c1916908a1b1790555b6013820192835492600160401b841015610b1b5760029761126c858b978d7f761cce3a1af5d9cfc0d57222f605ce4bd2be345f0ad9ebb7b83a84a91a0c201498018155611eba565b819291549060031b9133831b921b1916179055821560001461136157600d0161129682825461266a565b90555b6112a66040518093611f58565b8582015260606040820152806112c133956060830190611e49565b0390a382600052526040600020600d810154600a600e830154926112f36112e8858561266a565b600f8301549061266a565b60108201549161130a612710948592015484612657565b04111561131657858055005b611d4c90818102918183041490151715610cb7570480911091821592611356575b5050611347575b80808080858055005b611350906121d9565b8161133e565b101590508380611337565b828a0361137d57600e0161137682825461266a565b9055611299565b87831461138b575b50611299565b600f0161139982825461266a565b905589611385565b90508601518b611211565b8b92508360005288600020906000601f198416905b8b8282106113f757505083116113de575b5050811b019055611224565b88015160001960f88460031b161c191690558b806113d2565b838c015185558f969094019392830192016113c1565b60405162461bcd60e51b815260048101889052600f60248201526e2737903b37ba34b733903837bbb2b960891b6044820152606490fd5b9094508681813d831161146c575b61145c8183611e05565b810103126101855751938a6111a9565b503d611452565b60405162461bcd60e51b815260048101859052600d60248201526c105b1c9958591e481d9bdd1959609a1b6044820152606490fd5b60405162461bcd60e51b815260048101849052601760248201527f566f74696e6720706572696f642068617320656e6465640000000000000000006044820152606490fd5b3461018557604036600319011261018557611506611ea4565b336001600160a01b03821603611522576101e6906004356125e3565b60405162461bcd60e51b815260206004820152602f60248201527f416363657373436f6e74726f6c3a2063616e206f6e6c792072656e6f756e636560448201526e103937b632b9903337b91039b2b63360891b6064820152608490fd5b346101855760403660031901126101855760043561159b611ea4565b8160005260006020526115b56001604060002001546122af565b81600052600060205260406000209060018060a01b0316908160005260205260ff60406000205416156115e457005b8160005260006020526040600020816000526020526040600020600160ff1982541617905533917f2f8788117e7eff1d82e926ec794901d17c78024a50270940304540a733656f0d600080a4005b34610185576000366003190112610185576020600554604051908152f35b346101855760203660031901126101855760043560005260006020526020600160406000200154604051908152f35b34610185576000366003190112610185576020604051620151808152f35b346101855760003660031901126101855760206040516113888152f35b34610185576040366003190112610185576116d3611e8e565b6001600160a01b03166000908152600360205260409020805460243591908210156101855760209161170491611eba565b90549060031b1c604051908152f35b346101855760208060031936011261018557600435611730612688565b8060005260028252604060002061174981541515612148565b600c81019283549160ff83169461175f86611e6e565b6001809603611b2457601182019182549260ff8416611adf577fe7e0b301de1c1e268073a6b56ff0876cffca0becba0dca08f945c1394e3e972760005260008552604060002033600052855260ff604060002054168015611ac9575b15611a84578760ff198095161790556000606060ff6005840154166117df81611e6e565b8061188e57505050506040519360608501918583106001600160401b03841117610b1b576000805160206126df8339815191529561187c93604052602381527f50726f7065727479206d616e6167656d656e7420616374696f6e20657865637586820152621d195960ea1b60408201529188945b851561188357600391508254161790555b60408051948594151585528401526040830190611e49565b0390a28055005b166002179055611864565b61189b8198969798611e6e565b808a0361194a575050506118c26006916118bb6040518094819301611d54565b0382611e05565b8481805181010312610185578401516107d0811161190d579161187c916000805160206126df833981519152959493604051908682015285815261190581611dea565b918894611853565b60405162461bcd60e51b81526004810186905260156024820152744665652063616e6e6f74206578636565642032302560581b6044820152606490fd5b61195381611e6e565b60028103611a0b575050506119746006916118bb6040518094819301611d54565b8481805181010312610185578401516001600160a01b038116908190036101855780156119c6579161187c916000805160206126df833981519152959493604051908682015285815261190581611dea565b60405162461bcd60e51b815260048101869052601760248201527f496e76616c6964206d616e6167657220616464726573730000000000000000006044820152606490fd5b6000805160206126df83398151915297969591935080611a2f600392969496611e6e565b14611a3f575b61187c9394611853565b915061187c9250604051611a5281611dea565b601981527f456d657267656e637920616374696f6e206578656375746564000000000000008682015291889350611a35565b60405162461bcd60e51b815260048101869052601960248201527f4e6f7420617574686f72697a656420746f2065786563757465000000000000006044820152606490fd5b5060028201546001600160a01b031633146117bb565b60405162461bcd60e51b815260048101869052601960248201527f50726f706f73616c20616c7265616479206578656375746564000000000000006044820152606490fd5b60405162461bcd60e51b815260048101849052601a60248201527f50726f706f73616c20686173206e6f74207375636365656465640000000000006044820152606490fd5b903461018557602036600319011261018557600435600090815260026020819052604090912080546080526001810154918101546001600160a01b0390811660c05283921684611bbc8160038501611d54565b03611bc79086611e05565b6040519485611bd98160048601611d54565b03611be49087611e05565b6005830154604051969060ff1687611bff8160068801611d54565b03611c0a9089611e05565b600785015460a0526008850154976009860154600a87015490600b88015492600c89015460ff1694600d8a015496600e8b015498600f8c01549a60108d01549c6011015460ff169d604051808252608051905251602001528d60c0519051604001528d61024090818151606001525101611c8391611e49565b8d518082039060800152611c9691611e49565b90611ca081611e6e565b8c5160a001528b518082039060c00152611cb991611e49565b9a60a0518b805101528a516101000152895161012001528851610140015287516101600152611ce781611e6e565b8651610180015285516101a0015284516101c0015283516101e00152825161020001521515815161022001525180910390f35b90600182811c92168015611d4a575b6020831014611d3457565b634e487b7160e01b600052602260045260246000fd5b91607f1691611d29565b9060009291805491611d6583611d1a565b918282526001938481169081600014611dc75750600114611d87575b50505050565b90919394506000526020928360002092846000945b838610611db3575050505001019038808080611d81565b805485870183015294019385908201611d9c565b9294505050602093945060ff191683830152151560051b01019038808080611d81565b604081019081106001600160401b03821117610b1b57604052565b90601f801991011681019081106001600160401b03821117610b1b57604052565b60005b838110611e395750506000910152565b8181015183820152602001611e29565b90602091611e6281518092818552858086019101611e26565b601f01601f1916010190565b60051115611e7857565b634e487b7160e01b600052602160045260246000fd5b600435906001600160a01b038216820361018557565b602435906001600160a01b038216820361018557565b8054821015611ed25760005260206000200190600090565b634e487b7160e01b600052603260045260246000fd5b6001600160401b038111610b1b57601f01601f191660200190565b929192611f0f82611ee8565b91611f1d6040519384611e05565b829481845281830111610185578281602093846000960137010152565b9080601f8301121561018557816020611f5593359101611f03565b90565b906003821015611e785752565b51906001600160a01b038216820361018557565b81601f82011215610185578051611f8f81611ee8565b92611f9d6040519485611e05565b8184526020828401011161018557611f559160208085019101611e26565b906020828203126101855781516001600160401b03928382116101855701906101a09283838303126101855760405193840184811082821117610b1b5760405261200483611f65565b84526020830151818111610185578261201e918501611f79565b60208501526040830151818111610185578261203b918501611f79565b604085015260608301518181116101855782612058918501611f79565b60608501526080830151608085015260a083015160a085015261207d60c08401611f65565b60c085015260e083015160e085015261010080840151908115158203610185578501526101209182840151918211610185576120ba918401611f79565b9083015261014080820151908301526101608082015190600682101561018557830152610180809101519060058210156101855782015290565b90601f811161210257505050565b600091825260208220906020601f850160051c8301941061213e575b601f0160051c01915b82811061213357505050565b818155600101612127565b909250829061211e565b1561214f57565b60405162461bcd60e51b815260206004820152601760248201527f50726f706f73616c20646f6573206e6f742065786973740000000000000000006044820152606490fd5b1561219b57565b60405162461bcd60e51b815260206004820152601660248201527550726f706f73616c206973206e6f742061637469766560501b6044820152606490fd5b8060005260026020527fb0978968e606225988b6464f99ce7e86b0e8770d80eaec1369bb3780e05c643860408060002060ff600c8201805482811693612245600d8201549161222f6112e8600e8301548561266a565b6010820154612710938491600a85015490612657565b0481101561227e575050505050600282198254161781555b541682519161226b81611e6e565b825261227681611e6e565b6020820152a2565b600b61228c92015490612657565b04116122a257506001821982541617815561225d565b821916600217815561225d565b600090808252602090828252604092838120338252835260ff8482205416156122d85750505050565b8351916001600160401b03903360608501838111868210176125cf578752602a855285850191873684378551156125bb57603083538551916001928310156125a7576078602188015360295b83811161253d57506124fb57908751936080850190858210908211176124e7578852604284528684019460603687378451156124d3576030865384518210156124d35790607860218601536041915b818311612465575050506124235761241f938693612403936123f46048946123cb9a519a8b957f416363657373436f6e74726f6c3a206163636f756e74200000000000000000008c8801525180926037880190611e26565b8401917001034b99036b4b9b9b4b733903937b6329607d1b603784015251809386840190611e26565b01036028810187520185611e05565b5192839262461bcd60e51b845260048401526024830190611e49565b0390fd5b60648587519062461bcd60e51b825280600483015260248201527f537472696e67733a20686578206c656e67746820696e73756666696369656e746044820152fd5b909192600f811660108110156124bf576f181899199a1a9b1b9c1cb0b131b232b360811b901a6124958588612677565b5360041c9280156124ab57600019019190612373565b634e487b7160e01b82526011600452602482fd5b634e487b7160e01b83526032600452602483fd5b634e487b7160e01b81526032600452602490fd5b634e487b7160e01b86526041600452602486fd5b60648789519062461bcd60e51b825280600483015260248201527f537472696e67733a20686578206c656e67746820696e73756666696369656e746044820152fd5b90600f81166010811015612593576f181899199a1a9b1b9c1cb0b131b232b360811b901a61256b838a612677565b5360041c90801561257f5760001901612324565b634e487b7160e01b87526011600452602487fd5b634e487b7160e01b88526032600452602488fd5b634e487b7160e01b86526032600452602486fd5b634e487b7160e01b85526032600452602485fd5b634e487b7160e01b85526041600452602485fd5b9060009180835282602052604083209160018060a01b03169182845260205260ff60408420541661261357505050565b80835282602052604083208284526020526040832060ff1981541690557ff6391f5c32d9c69d2a47ea670b442974b53935d1edc7fd64eb21e047a839171b339380a4565b81810292918115918404141715610cb757565b91908201809211610cb757565b908151811015611ed2570160200190565b600260015414612699576002600155565b60405162461bcd60e51b815260206004820152601f60248201527f5265656e7472616e637947756172643a207265656e7472616e742063616c6c006044820152606490fdfeaf8f9d0e884d3306a083e846741a0bc4d75908e2b0ec63b558219652ae4c1b90a2646970667358221220504cb179ba48f0d9118cc25d0b2afd61bd71e30a6cdcabc27fd987ca032c0d5364736f6c634300081300332f8788117e7eff1d82e926ec794901d17c78024a50270940304540a733656f0d",
  "linkReferences": {},
  "deployedLinkReferences": {}
}