{"contracts/DividendDistributor.sol":{"DividendDistributor":{"abi":[{"inputs":[{"internalType":"address","name":"_propertyTokenContract","type":"address"}],"stateMutability":"nonpayable","type":"constructor"},{"anonymous":false,"inputs":[{"indexed":true,"internalType":"uint256","name":"distributionId","type":"uint256"},{"indexed":false,"internalType":"uint256","name":"batchNumber","type":"uint256"},{"indexed":false,"internalType":"uint256","name":"holdersProcessed","type":"uint256"}],"name":"BatchDistributionProcessed","type":"event"},{"anonymous":false,"inputs":[{"indexed":true,"internalType":"uint256","name":"distributionId","type":"uint256"},{"indexed":true,"internalType":"address","name":"tokenAddress","type":"address"},{"indexed":true,"internalType":"address","name":"holder","type":"address"},{"indexed":false,"internalType":"uint256","name":"amount","type":"uint256"}],"name":"DividendClaimed","type":"event"},{"anonymous":false,"inputs":[{"indexed":true,"internalType":"uint256","name":"distributionId","type":"uint256"},{"indexed":true,"internalType":"address","name":"tokenAddress","type":"address"},{"indexed":false,"internalType":"uint256","name":"totalAmount","type":"uint256"},{"indexed":false,"internalType":"uint256","name":"netAmount","type":"uint256"},{"indexed":false,"internalType":"uint256","name":"managementFee","type":"uint256"}],"name":"DividendDistributionCreated","type":"event"},{"anonymous":false,"inputs":[{"indexed":true,"internalType":"address","name":"tokenAddress","type":"address"},{"indexed":true,"internalType":"address","name":"manager","type":"address"},{"indexed":false,"internalType":"uint256","name":"amount","type":"uint256"}],"name":"ManagementFeeCollected","type":"event"},{"anonymous":false,"inputs":[{"indexed":true,"internalType":"bytes32","name":"role","type":"bytes32"},{"indexed":true,"internalType":"bytes32","name":"previousAdminRole","type":"bytes32"},{"indexed":true,"internalType":"bytes32","name":"newAdminRole","type":"bytes32"}],"name":"RoleAdminChanged","type":"event"},{"anonymous":false,"inputs":[{"indexed":true,"internalType":"bytes32","name":"role","type":"bytes32"},{"indexed":true,"internalType":"address","name":"account","type":"address"},{"indexed":true,"internalType":"address","name":"sender","type":"address"}],"name":"RoleGranted","type":"event"},{"anonymous":false,"inputs":[{"indexed":true,"internalType":"bytes32","name":"role","type":"bytes32"},{"indexed":true,"internalType":"address","name":"account","type":"address"},{"indexed":true,"internalType":"address","name":"sender","type":"address"}],"name":"RoleRevoked","type":"event"},{"inputs":[],"name":"BASIS_POINTS","outputs":[{"internalType":"uint256","name":"","type":"uint256"}],"stateMutability":"view","type":"function"},{"inputs":[],"name":"DEFAULT_ADMIN_ROLE","outputs":[{"internalType":"bytes32","name":"","type":"bytes32"}],"stateMutability":"view","type":"function"},{"inputs":[],"name":"DISTRIBUTOR_ROLE","outputs":[{"internalType":"bytes32","name":"","type":"bytes32"}],"stateMutability":"view","type":"function"},{"inputs":[],"name":"MAX_HOLDERS_PER_BATCH","outputs":[{"internalType":"uint256","name":"","type":"uint256"}],"stateMutability":"view","type":"function"},{"inputs":[],"name":"PROPERTY_MANAGER_ROLE","outputs":[{"internalType":"bytes32","name":"","type":"bytes32"}],"stateMutability":"view","type":"function"},{"inputs":[{"internalType":"address","name":"tokenAddress","type":"address"}],"name":"claimDividends","outputs":[],"stateMutability":"nonpayable","type":"function"},{"inputs":[{"internalType":"address","name":"tokenAddress","type":"address"},{"internalType":"uint256","name":"totalAmount","type":"uint256"}],"name":"createDistribution","outputs":[{"internalType":"uint256","name":"","type":"uint256"}],"stateMutability":"nonpayable","type":"function"},{"inputs":[{"internalType":"uint256","name":"","type":"uint256"}],"name":"distributions","outputs":[{"internalType":"uint256","name":"distributionId","type":"uint256"},{"internalType":"address","name":"tokenAddress","type":"address"},{"internalType":"uint256","name":"totalAmount","type":"uint256"},{"internalType":"uint256","name":"totalTokenSupply","type":"uint256"},{"internalType":"uint256","name":"distributionDate","type":"uint256"},{"internalType":"uint256","name":"managementFeePercent","type":"uint256"},{"internalType":"uint256","name":"managementFeeAmount","type":"uint256"},{"internalType":"uint256","name":"netDistributionAmount","type":"uint256"},{"internalType":"enum IDividendDistributor.DistributionStatus","name":"status","type":"uint8"}],"stateMutability":"view","type":"function"},{"inputs":[],"name":"emergencyWithdraw","outputs":[],"stateMutability":"nonpayable","type":"function"},{"inputs":[{"internalType":"uint256","name":"distributionId","type":"uint256"}],"name":"getDistribution","outputs":[{"internalType":"address","name":"tokenAddress","type":"address"},{"internalType":"uint256","name":"totalAmount","type":"uint256"},{"internalType":"uint256","name":"netAmount","type":"uint256"},{"internalType":"uint256","name":"managementFee","type":"uint256"},{"internalType":"uint256","name":"distributionDate","type":"uint256"},{"internalType":"enum IDividendDistributor.DistributionStatus","name":"status","type":"uint8"}],"stateMutability":"view","type":"function"},{"inputs":[{"internalType":"address","name":"tokenAddress","type":"address"},{"internalType":"address","name":"holder","type":"address"}],"name":"getPendingDividends","outputs":[{"internalType":"uint256","name":"","type":"uint256"}],"stateMutability":"view","type":"function"},{"inputs":[{"internalType":"bytes32","name":"role","type":"bytes32"}],"name":"getRoleAdmin","outputs":[{"internalType":"bytes32","name":"","type":"bytes32"}],"stateMutability":"view","type":"function"},{"inputs":[{"internalType":"address","name":"tokenAddress","type":"address"}],"name":"getTokenDistributions","outputs":[{"internalType":"uint256[]","name":"","type":"uint256[]"}],"stateMutability":"view","type":"function"},{"inputs":[{"internalType":"address","name":"tokenAddress","type":"address"}],"name":"getTotalDistributed","outputs":[{"internalType":"uint256","name":"","type":"uint256"}],"stateMutability":"view","type":"function"},{"inputs":[{"internalType":"bytes32","name":"role","type":"bytes32"},{"internalType":"address","name":"account","type":"address"}],"name":"grantRole","outputs":[],"stateMutability":"nonpayable","type":"function"},{"inputs":[{"internalType":"bytes32","name":"role","type":"bytes32"},{"internalType":"address","name":"account","type":"address"}],"name":"hasRole","outputs":[{"internalType":"bool","name":"","type":"bool"}],"stateMutability":"view","type":"function"},{"inputs":[],"name":"nextDistributionId","outputs":[{"internalType":"uint256","name":"","type":"uint256"}],"stateMutability":"view","type":"function"},{"inputs":[{"internalType":"address","name":"","type":"address"},{"internalType":"address","name":"","type":"address"}],"name":"pendingDividends","outputs":[{"internalType":"uint256","name":"","type":"uint256"}],"stateMutability":"view","type":"function"},{"inputs":[{"internalType":"uint256","name":"distributionId","type":"uint256"},{"internalType":"uint256","name":"batchSize","type":"uint256"}],"name":"processBatchDistribution","outputs":[],"stateMutability":"nonpayable","type":"function"},{"inputs":[],"name":"propertyTokenContract","outputs":[{"internalType":"contract IPropertyToken","name":"","type":"address"}],"stateMutability":"view","type":"function"},{"inputs":[{"internalType":"bytes32","name":"role","type":"bytes32"},{"internalType":"address","name":"account","type":"address"}],"name":"renounceRole","outputs":[],"stateMutability":"nonpayable","type":"function"},{"inputs":[{"internalType":"bytes32","name":"role","type":"bytes32"},{"internalType":"address","name":"account","type":"address"}],"name":"revokeRole","outputs":[],"stateMutability":"nonpayable","type":"function"},{"inputs":[{"internalType":"address","name":"","type":"address"},{"internalType":"uint256","name":"","type":"uint256"}],"name":"tokenDistributions","outputs":[{"internalType":"uint256","name":"","type":"uint256"}],"stateMutability":"view","type":"function"},{"inputs":[{"internalType":"address","name":"","type":"address"}],"name":"totalDistributed","outputs":[{"internalType":"uint256","name":"","type":"uint256"}],"stateMutability":"view","type":"function"},{"stateMutability":"payable","type":"receive"}],"evm":{"bytecode":{"linkReferences":{},"object":"60a034620001ad57601f62001e5b38819003918201601f1916830192916001600160401b03841183851017620001b25780839260409586528339602092839181010312620001ad57516001600160a01b03811690819003620001ad5760018055600160065580156200016a576080526000808052808252828120338252825260ff83822054161562000132575b7ffbd454f36a7e1a388bd6fc3ab10d434aa4578f811acbbcf33afb1c697486313c91828252818152838220338352815260ff848320541615620000f7575b8351611c729081620001c982396080518181816101e1015281816107640152818161100901526110690152f35b8282528181528382209033835252828120600160ff19825416179055339160008051602062001e3b833981519152339280a4388080620000ca565b8080528082528281203382528252828120600160ff1982541617905533338260008051602062001e3b8339815191528180a46200008c565b50606491519062461bcd60e51b82526004820152601f60248201527f496e76616c69642070726f706572747920746f6b656e20636f6e7472616374006044820152fd5b600080fd5b634e487b7160e01b600052604160045260246000fdfe608080604052600436101561001d575b50361561001b57600080fd5b005b60003560e01c908163248a9ca314611480575080632f2ff15d146113cd57806336568abe1461133b5780633b345a87146112b85780634487d3df1461122157806347e64656146111e65780636298c37b14610cf45780636ecf8c8e14610c40578063795be4b914610c22578063806b7e2214610bb557806387d2d0ca14610c065780638b8dfa3914610b2e5780638f331f1514610bb557806391d1485414610b68578063964265e214610b2e5780639d6a261a14610708578063a217fddf146106ec578063c7e772ed1461050b578063d547741f146104cc578063db2e21bc1461022d578063e1f1c4a714610210578063e71f5dac146101cb578063f08a7357146101725763f0bd87cc14610132573861000f565b3461016d57600036600319011261016d5760206040517ffbd454f36a7e1a388bd6fc3ab10d434aa4578f811acbbcf33afb1c697486313c8152f35b600080fd5b3461016d57604036600319011261016d5761018b6114c1565b6001600160a01b031660009081526003602052604090208054602435919082101561016d576020916101bc916114e4565b90549060031b1c604051908152f35b3461016d57600036600319011261016d576040517f00000000000000000000000000000000000000000000000000000000000000006001600160a01b03168152602090f35b3461016d57600036600319011261016d5760206040516127108152f35b3461016d57600036600319011261016d573360009081527fad3228b676f7d3cd4284a5443f17f1962b36e491b30a40b2405849e597ba5fb5602090815260409091205460ff161561030e574780156102d057600080808093335af1610290611650565b501561029857005b6064906040519062461bcd60e51b82526004820152601160248201527015da5d1a191c985dd85b0819985a5b1959607a1b6044820152fd5b60405162461bcd60e51b81526004810183905260166024820152754e6f2062616c616e636520746f20776974686472617760501b6044820152606490fd5b61031733611ad7565b90600091604051610327816114fc565b604281528281019360603686378151156104b6576030855381516001908110156104b657607860218401536041905b80821161045c57505061041957906103e26048604494936040519687916103d38784019676020b1b1b2b9b9a1b7b73a3937b61d1030b1b1b7bab73a1604d1b88526103aa815180928b603789019101611580565b8401917001034b99036b4b9b9b4b733903937b6329607d1b603784015251809386840190611580565b0103602881018752018561152e565b61040b60405194859362461bcd60e51b8552600485015251809281602486015285850190611580565b601f01601f19168101030190fd5b6064836040519062461bcd60e51b825280600483015260248201527f537472696e67733a20686578206c656e67746820696e73756666696369656e746044820152fd5b9091600f811660108110156104b6576f181899199a1a9b1b9c1cb0b131b232b360811b901a61048b8486611ac6565b5360041c9180156104a0576000190190610356565b634e487b7160e01b600052601160045260246000fd5b634e487b7160e01b600052603260045260246000fd5b3461016d57604036600319011261016d5761001b6004356104eb6114ab565b90806000526000602052610506600160406000200154611927565b611a32565b3461016d5760208060031936011261016d576105256114c1565b61052d611be6565b6001600160a01b031660008181526004835260408082203383528452902054909181156106b15782600052600481526040600020336000528152600060408120558260005261059d60059283835261058a81604060002054611ab9565b8560005284845260406000205533611680565b8260005260038152604060002092604051808584829754938481520190600052846000209260005b8682821061069b575050506105dc9250038561152e565b60005b845181101561069557808361062892861b870101518060005260028552604060002060098101903360005281875260406000205415158061067f575b61062d575b5050506115e8565b6105df565b600a0186526040600020600160ff19825416179055855283604060002054916040519283527f96a7185d82cc69593923de8d4b06ace70544411b1cc122153661ff794aa4d3f7873394a4868080610620565b50600a8101875260ff604060002054161561061b565b60018055005b855484526001958601958a9550930192016105c5565b6064906040519062461bcd60e51b8252600482015260146024820152734e6f2070656e64696e67206469766964656e647360601b6044820152fd5b3461016d57600036600319011261016d57602060405160008152f35b3461016d57604036600319011261016d576107216114c1565b60249081359161072f61172c565b610737611be6565b8215610ad757604051637e43a5d360e11b81526001600160a01b03928316600482018190529160008282817f000000000000000000000000000000000000000000000000000000000000000088165afa918215610acb57600092610964575b506101008201511561092057600654936107af856115e8565b60065584600052600260205260406000209260e081019260086127106107d686518b611aa6565b04956107e2878b611643565b9589825560018201896bffffffffffffffffffffffff60a01b8254161790558a6002830155608085015160038301554260048301555160058201558660068201558560078201550160ff19815416905585600052600360205260406000208054916801000000000000000083101561090c57509360609360209993610890847f5075963a9041ed42429279f6ffa82b2b40f4332e9c7ad5de5f467d3638b982999860018d9b970181556114e4565b81549060031b908a821b91600019901b1916179055836108c9575b5050604051928352888301526040820152a360018055604051908152f35b60c0016108d98483835116611680565b5116877fb46130b279b057e97e6b556f82eae25ad037b863a7220079669b3c354a6790a38b604051868152a389806108ab565b634e487b7160e01b60009081526041600452fd5b606490601c6040519162461bcd60e51b8352602060048401528201527f50726f706572747920746f6b656e206973206e6f7420616374697665000000006044820152fd5b9091503d806000833e610977818361152e565b810160208282031261016d57815167ffffffffffffffff9283821161016d5701906101a092838383031261016d5760405193840184811082821117610ab6576040526109c283611550565b8452602083015181811161016d57826109dc9185016115a3565b6020850152604083015181811161016d57826109f99185016115a3565b6040850152606083015181811161016d5782610a169185016115a3565b60608501526080830151608085015260a083015160a0850152610a3b60c08401611550565b60c085015260e083015160e08501526101008084015190811515820361016d57850152610120918284015191821161016d57610a789184016115a3565b9083015261014080820151908301526101608082015190600682101561016d578301526101808091015190600582101561016d578201529085610796565b85634e487b7160e01b60005260416004526000fd5b6040513d6000823e3d90fd5b608490602a6040519162461bcd60e51b8352602060048401528201527f446973747269627574696f6e20616d6f756e74206d75737420626520677265616044820152690746572207468616e20360b41b6064820152fd5b3461016d57602036600319011261016d576001600160a01b03610b4f6114c1565b1660005260056020526020604060002054604051908152f35b3461016d57604036600319011261016d57610b816114ab565b600435600052600060205260406000209060018060a01b0316600052602052602060ff604060002054166040519015158152f35b3461016d57604036600319011261016d57610bce6114c1565b610bd66114ab565b9060018060a01b038091166000526004602052604060002091166000526020526020604060002054604051908152f35b3461016d57600036600319011261016d57602060405160648152f35b3461016d57600036600319011261016d576020600654604051908152f35b3461016d5760208060031936011261016d576001600160a01b03610c626114c1565b1660005260038152604060002060405190818382549182815201908192600052846000209060005b86828210610ce0578686610ca08288038361152e565b604051928392818401908285525180915260408401929160005b828110610cc957505050500390f35b835185528695509381019392810192600101610cba565b835485529093019260019283019201610c8a565b3461016d57604036600319011261016d57610d0d61172c565b610d15611be6565b6024351515806111d9575b1561119f5760043560005260026020526040600020610d41815415156115f7565b600881015460ff811660048110158061113557811580928115611190575b501561114b5761113557610fc3575b50600b810154602435811115610fbc57610d8a60243582611643565b600091815b818110610e9f57505060005b602435811080610e92575b15610e3757600b840154908115610e2157600019918201610dca81600b88016114e4565b81546001600160a01b03600392831b1b1916909155600b870191909155600c860154928315610e215780610e1c940191610e0783600c8a016114e4565b81939154921b1b19169055600c8601556115e8565b610d9b565b634e487b7160e01b600052603160045260246000fd5b5091600b81015415610e7e575b5060405191825260208201527fd78204b380644f31cf1c59eaf39df5d2e4d173c5de43e3d3ecd95496efb5efd4604060043592a260018055005b600801805460ff1916600217905582610e44565b50600b8401541515610da6565b610eac81600b87016114e4565b9054610ebb83600c89016114e4565b90549060031b1c80151580610f94575b610ee1575b505050610edc906115e8565b610d8f565b610eef906007890154611aa6565b6003880154908115610f7e5704918215610ed05791610edc939691610f759360018060a01b038060018c0154169283600052600460205260406000209260031b1c169081600052602052610f4883604060002054611ab9565b916000526004602052604060002090600052602052604060002055600988016020526040600020556115e8565b93908680610ed0565b634e487b7160e01b600052601260045260246000fd5b5060018060a01b03828460031b1c16600052600a880160205260ff6040600020541615610ecb565b6000610d8a565b60019060ff1916176008820155600435600052600260205260018060a01b036001604060002001541660405190637845c17360e11b825260208260048160018060a01b037f0000000000000000000000000000000000000000000000000000000000000000165afa918215610acb57600092611101575b5060005b82811061104d575b5050610d6e565b60405163644b7a4360e01b8152600481018290526020816024817f00000000000000000000000000000000000000000000000000000000000000006001600160a01b03165afa8015610acb5783916000916110c5575b506001600160a01b0316146110c0576110bb906115e8565b61103e565b611046565b9150506020813d6020116110f9575b816110e16020938361152e565b8101031261016d576110f38391611550565b866110a3565b3d91506110d4565b9091506020813d60201161112d575b8161111d6020938361152e565b8101031261016d5751908361103a565b3d9150611110565b634e487b7160e01b600052602160045260246000fd5b60405162461bcd60e51b815260206004820152601b60248201527f496e76616c696420646973747269627574696f6e2073746174757300000000006044820152606490fd5b91505060016000911485610d5f565b60405162461bcd60e51b8152602060048201526012602482015271496e76616c69642062617463682073697a6560701b6044820152606490fd5b5060646024351115610d20565b3461016d57600036600319011261016d5760206040517f5aa58c694aeb083df8754bf5e98675317e4137a5a8a2c6188d0228869e43da7e8152f35b3461016d57602036600319011261016d57600435600052600260205261012060406000206112b681549160018060a01b036001820154169060028101546003820154600483015460058401549160068501549360ff600860078801549701541696604051998a5260208a015260408901526060880152608087015260a086015260c085015260e08401526101008301906114d7565bf35b3461016d57602036600319011261016d57600435600052600260205260c060406000206112e7815415156115f7565b6112b660018060a01b0360018301541691600281015490600781015460068201549060ff600860048501549401541693604051968752602087015260408601526060850152608084015260a08301906114d7565b3461016d57604036600319011261016d576113546114ab565b336001600160a01b038216036113705761001b90600435611a32565b60405162461bcd60e51b815260206004820152602f60248201527f416363657373436f6e74726f6c3a2063616e206f6e6c792072656e6f756e636560448201526e103937b632b9903337b91039b2b63360891b6064820152608490fd5b3461016d57604036600319011261016d576004356113e96114ab565b816000526000602052611403600160406000200154611927565b81600052600060205260406000209060018060a01b0316908160005260205260ff604060002054161561143257005b8160005260006020526040600020816000526020526040600020600160ff1982541617905533917f2f8788117e7eff1d82e926ec794901d17c78024a50270940304540a733656f0d600080a4005b3461016d57602036600319011261016d57602090600435600052600082526001604060002001548152f35b602435906001600160a01b038216820361016d57565b600435906001600160a01b038216820361016d57565b9060048210156111355752565b80548210156104b65760005260206000200190600090565b6080810190811067ffffffffffffffff82111761151857604052565b634e487b7160e01b600052604160045260246000fd5b90601f8019910116810190811067ffffffffffffffff82111761151857604052565b51906001600160a01b038216820361016d57565b67ffffffffffffffff811161151857601f01601f191660200190565b60005b8381106115935750506000910152565b8181015183820152602001611583565b81601f8201121561016d5780516115b981611564565b926115c7604051948561152e565b8184526020828401011161016d576115e59160208085019101611580565b90565b60001981146104a05760010190565b156115fe57565b60405162461bcd60e51b815260206004820152601b60248201527f446973747269627574696f6e20646f6573206e6f7420657869737400000000006044820152606490fd5b919082039182116104a057565b3d1561167b573d9061166182611564565b9161166f604051938461152e565b82523d6000602084013e565b606090565b8147106116e7576000918291829182916001600160a01b03165af16116a3611650565b50156116ab57565b60405162461bcd60e51b815260206004820152601460248201527312109054881d1c985b9cd9995c8819985a5b195960621b6044820152606490fd5b60405162461bcd60e51b815260206004820152601d60248201527f496e73756666696369656e7420636f6e74726163742062616c616e63650000006044820152606490fd5b3360009081527f37775adb12013835ce20d78b1c52193dd1da3dc792bc1ec9a2d7427221516c8a6020908152604080832054909291907ffbd454f36a7e1a388bd6fc3ab10d434aa4578f811acbbcf33afb1c697486313c9060ff16156117925750505050565b61179b33611ad7565b908451906117a8826114fc565b6042825283820194606036873782511561191357603086538251906001918210156119135790607860218501536041915b8183116118a557505050611863578461183f604861040b9360449798519889916118308984019876020b1b1b2b9b9a1b7b73a3937b61d1030b1b1b7bab73a1604d1b8a526103aa815180928d603789019101611580565b0103602881018952018761152e565b5194859362461bcd60e51b8552600485015251809281602486015285850190611580565b60648386519062461bcd60e51b825280600483015260248201527f537472696e67733a20686578206c656e67746820696e73756666696369656e746044820152fd5b909192600f811660108110156118ff576f181899199a1a9b1b9c1cb0b131b232b360811b901a6118d58587611ac6565b5360041c9280156118eb576000190191906117d9565b634e487b7160e01b82526011600452602482fd5b634e487b7160e01b83526032600452602483fd5b634e487b7160e01b81526032600452602490fd5b60008181526020818152604092838320338452825260ff84842054161561194e5750505050565b61195733611ad7565b90845190611964826114fc565b6042825283820194606036873782511561191357603086538251906001918210156119135790607860218501536041915b8183116119ec57505050611863578461183f604861040b9360449798519889916118308984019876020b1b1b2b9b9a1b7b73a3937b61d1030b1b1b7bab73a1604d1b8a526103aa815180928d603789019101611580565b909192600f811660108110156118ff576f181899199a1a9b1b9c1cb0b131b232b360811b901a611a1c8587611ac6565b5360041c9280156118eb57600019019190611995565b9060009180835282602052604083209160018060a01b03169182845260205260ff604084205416611a6257505050565b80835282602052604083208284526020526040832060ff1981541690557ff6391f5c32d9c69d2a47ea670b442974b53935d1edc7fd64eb21e047a839171b339380a4565b818102929181159184041417156104a057565b919082018092116104a057565b9081518110156104b6570160200190565b604051906060820182811067ffffffffffffffff82111761151857604052602a82526020820160403682378251156104b6576030905381516001908110156104b657607860218401536029905b808211611b78575050611b345790565b606460405162461bcd60e51b815260206004820152602060248201527f537472696e67733a20686578206c656e67746820696e73756666696369656e746044820152fd5b9091600f81166010811015611bd1576f181899199a1a9b1b9c1cb0b131b232b360811b901a611ba78486611ac6565b5360041c918015611bbc576000190190611b24565b60246000634e487b7160e01b81526011600452fd5b60246000634e487b7160e01b81526032600452fd5b600260015414611bf7576002600155565b60405162461bcd60e51b815260206004820152601f60248201527f5265656e7472616e637947756172643a207265656e7472616e742063616c6c006044820152606490fdfea2646970667358221220be2847f4315ffb4eb079278b833242dd47ebc84a5158d633cd5838e21f5fc66f64736f6c634300081300332f8788117e7eff1d82e926ec794901d17c78024a50270940304540a733656f0d","opcodes":"PUSH1 0xA0 CALLVALUE PUSH3 0x1AD JUMPI PUSH1 0x1F PUSH3 0x1E5B CODESIZE DUP2 SWAP1 SUB SWAP2 DUP3 ADD PUSH1 0x1F NOT AND DUP4 ADD SWAP3 SWAP2 PUSH1 0x1 PUSH1 0x1 PUSH1 0x40 SHL SUB DUP5 GT DUP4 DUP6 LT OR PUSH3 0x1B2 JUMPI DUP1 DUP4 SWAP3 PUSH1 0x40 SWAP6 DUP7 MSTORE DUP4 CODECOPY PUSH1 0x20 SWAP3 DUP4 SWAP2 DUP2 ADD SUB SLT PUSH3 0x1AD JUMPI MLOAD PUSH1 0x1 PUSH1 0x1 PUSH1 0xA0 SHL SUB DUP2 AND SWAP1 DUP2 SWAP1 SUB PUSH3 0x1AD JUMPI PUSH1 0x1 DUP1 SSTORE PUSH1 0x1 PUSH1 0x6 SSTORE DUP1 ISZERO PUSH3 0x16A JUMPI PUSH1 0x80 MSTORE PUSH1 0x0 DUP1 DUP1 MSTORE DUP1 DUP3 MSTORE DUP3 DUP2 KECCAK256 CALLER DUP3 MSTORE DUP3 MSTORE PUSH1 0xFF DUP4 DUP3 KECCAK256 SLOAD AND ISZERO PUSH3 0x132 JUMPI JUMPDEST PUSH32 0xFBD454F36A7E1A388BD6FC3AB10D434AA4578F811ACBBCF33AFB1C697486313C SWAP2 DUP3 DUP3 MSTORE DUP2 DUP2 MSTORE DUP4 DUP3 KECCAK256 CALLER DUP4 MSTORE DUP2 MSTORE PUSH1 0xFF DUP5 DUP4 KECCAK256 SLOAD AND ISZERO PUSH3 0xF7 JUMPI JUMPDEST DUP4 MLOAD PUSH2 0x1C72 SWAP1 DUP2 PUSH3 0x1C9 DUP3 CODECOPY PUSH1 0x80 MLOAD DUP2 DUP2 DUP2 PUSH2 0x1E1 ADD MSTORE DUP2 DUP2 PUSH2 0x764 ADD MSTORE DUP2 DUP2 PUSH2 0x1009 ADD MSTORE PUSH2 0x1069 ADD MSTORE RETURN JUMPDEST DUP3 DUP3 MSTORE DUP2 DUP2 MSTORE DUP4 DUP3 KECCAK256 SWAP1 CALLER DUP4 MSTORE MSTORE DUP3 DUP2 KECCAK256 PUSH1 0x1 PUSH1 0xFF NOT DUP3 SLOAD AND OR SWAP1 SSTORE CALLER SWAP2 PUSH1 0x0 DUP1 MLOAD PUSH1 0x20 PUSH3 0x1E3B DUP4 CODECOPY DUP2 MLOAD SWAP2 MSTORE CALLER SWAP3 DUP1 LOG4 CODESIZE DUP1 DUP1 PUSH3 0xCA JUMP JUMPDEST DUP1 DUP1 MSTORE DUP1 DUP3 MSTORE DUP3 DUP2 KECCAK256 CALLER DUP3 MSTORE DUP3 MSTORE DUP3 DUP2 KECCAK256 PUSH1 0x1 PUSH1 0xFF NOT DUP3 SLOAD AND OR SWAP1 SSTORE CALLER CALLER DUP3 PUSH1 0x0 DUP1 MLOAD PUSH1 0x20 PUSH3 0x1E3B DUP4 CODECOPY DUP2 MLOAD SWAP2 MSTORE DUP2 DUP1 LOG4 PUSH3 0x8C JUMP JUMPDEST POP PUSH1 0x64 SWAP2 MLOAD SWAP1 PUSH3 0x461BCD PUSH1 0xE5 SHL DUP3 MSTORE PUSH1 0x4 DUP3 ADD MSTORE PUSH1 0x1F PUSH1 0x24 DUP3 ADD MSTORE PUSH32 0x496E76616C69642070726F706572747920746F6B656E20636F6E747261637400 PUSH1 0x44 DUP3 ADD MSTORE REVERT JUMPDEST PUSH1 0x0 DUP1 REVERT JUMPDEST PUSH4 0x4E487B71 PUSH1 0xE0 SHL PUSH1 0x0 MSTORE PUSH1 0x41 PUSH1 0x4 MSTORE PUSH1 0x24 PUSH1 0x0 REVERT INVALID PUSH1 0x80 DUP1 PUSH1 0x40 MSTORE PUSH1 0x4 CALLDATASIZE LT ISZERO PUSH2 0x1D JUMPI JUMPDEST POP CALLDATASIZE ISZERO PUSH2 0x1B JUMPI PUSH1 0x0 DUP1 REVERT JUMPDEST STOP JUMPDEST PUSH1 0x0 CALLDATALOAD PUSH1 0xE0 SHR SWAP1 DUP2 PUSH4 0x248A9CA3 EQ PUSH2 0x1480 JUMPI POP DUP1 PUSH4 0x2F2FF15D EQ PUSH2 0x13CD JUMPI DUP1 PUSH4 0x36568ABE EQ PUSH2 0x133B JUMPI DUP1 PUSH4 0x3B345A87 EQ PUSH2 0x12B8 JUMPI DUP1 PUSH4 0x4487D3DF EQ PUSH2 0x1221 JUMPI DUP1 PUSH4 0x47E64656 EQ PUSH2 0x11E6 JUMPI DUP1 PUSH4 0x6298C37B EQ PUSH2 0xCF4 JUMPI DUP1 PUSH4 0x6ECF8C8E EQ PUSH2 0xC40 JUMPI DUP1 PUSH4 0x795BE4B9 EQ PUSH2 0xC22 JUMPI DUP1 PUSH4 0x806B7E22 EQ PUSH2 0xBB5 JUMPI DUP1 PUSH4 0x87D2D0CA EQ PUSH2 0xC06 JUMPI DUP1 PUSH4 0x8B8DFA39 EQ PUSH2 0xB2E JUMPI DUP1 PUSH4 0x8F331F15 EQ PUSH2 0xBB5 JUMPI DUP1 PUSH4 0x91D14854 EQ PUSH2 0xB68 JUMPI DUP1 PUSH4 0x964265E2 EQ PUSH2 0xB2E JUMPI DUP1 PUSH4 0x9D6A261A EQ PUSH2 0x708 JUMPI DUP1 PUSH4 0xA217FDDF EQ PUSH2 0x6EC JUMPI DUP1 PUSH4 0xC7E772ED EQ PUSH2 0x50B JUMPI DUP1 PUSH4 0xD547741F EQ PUSH2 0x4CC JUMPI DUP1 PUSH4 0xDB2E21BC EQ PUSH2 0x22D JUMPI DUP1 PUSH4 0xE1F1C4A7 EQ PUSH2 0x210 JUMPI DUP1 PUSH4 0xE71F5DAC EQ PUSH2 0x1CB JUMPI DUP1 PUSH4 0xF08A7357 EQ PUSH2 0x172 JUMPI PUSH4 0xF0BD87CC EQ PUSH2 0x132 JUMPI CODESIZE PUSH2 0xF JUMP JUMPDEST CALLVALUE PUSH2 0x16D JUMPI PUSH1 0x0 CALLDATASIZE PUSH1 0x3 NOT ADD SLT PUSH2 0x16D JUMPI PUSH1 0x20 PUSH1 0x40 MLOAD PUSH32 0xFBD454F36A7E1A388BD6FC3AB10D434AA4578F811ACBBCF33AFB1C697486313C DUP2 MSTORE RETURN JUMPDEST PUSH1 0x0 DUP1 REVERT JUMPDEST CALLVALUE PUSH2 0x16D JUMPI PUSH1 0x40 CALLDATASIZE PUSH1 0x3 NOT ADD SLT PUSH2 0x16D JUMPI PUSH2 0x18B PUSH2 0x14C1 JUMP JUMPDEST PUSH1 0x1 PUSH1 0x1 PUSH1 0xA0 SHL SUB AND PUSH1 0x0 SWAP1 DUP2 MSTORE PUSH1 0x3 PUSH1 0x20 MSTORE PUSH1 0x40 SWAP1 KECCAK256 DUP1 SLOAD PUSH1 0x24 CALLDATALOAD SWAP2 SWAP1 DUP3 LT ISZERO PUSH2 0x16D JUMPI PUSH1 0x20 SWAP2 PUSH2 0x1BC SWAP2 PUSH2 0x14E4 JUMP JUMPDEST SWAP1 SLOAD SWAP1 PUSH1 0x3 SHL SHR PUSH1 0x40 MLOAD SWAP1 DUP2 MSTORE RETURN JUMPDEST CALLVALUE PUSH2 0x16D JUMPI PUSH1 0x0 CALLDATASIZE PUSH1 0x3 NOT ADD SLT PUSH2 0x16D JUMPI PUSH1 0x40 MLOAD PUSH32 0x0 PUSH1 0x1 PUSH1 0x1 PUSH1 0xA0 SHL SUB AND DUP2 MSTORE PUSH1 0x20 SWAP1 RETURN JUMPDEST CALLVALUE PUSH2 0x16D JUMPI PUSH1 0x0 CALLDATASIZE PUSH1 0x3 NOT ADD SLT PUSH2 0x16D JUMPI PUSH1 0x20 PUSH1 0x40 MLOAD PUSH2 0x2710 DUP2 MSTORE RETURN JUMPDEST CALLVALUE PUSH2 0x16D JUMPI PUSH1 0x0 CALLDATASIZE PUSH1 0x3 NOT ADD SLT PUSH2 0x16D JUMPI CALLER PUSH1 0x0 SWAP1 DUP2 MSTORE PUSH32 0xAD3228B676F7D3CD4284A5443F17F1962B36E491B30A40B2405849E597BA5FB5 PUSH1 0x20 SWAP1 DUP2 MSTORE PUSH1 0x40 SWAP1 SWAP2 KECCAK256 SLOAD PUSH1 0xFF AND ISZERO PUSH2 0x30E JUMPI SELFBALANCE DUP1 ISZERO PUSH2 0x2D0 JUMPI PUSH1 0x0 DUP1 DUP1 DUP1 SWAP4 CALLER GAS CALL PUSH2 0x290 PUSH2 0x1650 JUMP JUMPDEST POP ISZERO PUSH2 0x298 JUMPI STOP JUMPDEST PUSH1 0x64 SWAP1 PUSH1 0x40 MLOAD SWAP1 PUSH3 0x461BCD PUSH1 0xE5 SHL DUP3 MSTORE PUSH1 0x4 DUP3 ADD MSTORE PUSH1 0x11 PUSH1 0x24 DUP3 ADD MSTORE PUSH17 0x15DA5D1A191C985DD85B0819985A5B1959 PUSH1 0x7A SHL PUSH1 0x44 DUP3 ADD MSTORE REVERT JUMPDEST PUSH1 0x40 MLOAD PUSH3 0x461BCD PUSH1 0xE5 SHL DUP2 MSTORE PUSH1 0x4 DUP2 ADD DUP4 SWAP1 MSTORE PUSH1 0x16 PUSH1 0x24 DUP3 ADD MSTORE PUSH22 0x4E6F2062616C616E636520746F207769746864726177 PUSH1 0x50 SHL PUSH1 0x44 DUP3 ADD MSTORE PUSH1 0x64 SWAP1 REVERT JUMPDEST PUSH2 0x317 CALLER PUSH2 0x1AD7 JUMP JUMPDEST SWAP1 PUSH1 0x0 SWAP2 PUSH1 0x40 MLOAD PUSH2 0x327 DUP2 PUSH2 0x14FC JUMP JUMPDEST PUSH1 0x42 DUP2 MSTORE DUP3 DUP2 ADD SWAP4 PUSH1 0x60 CALLDATASIZE DUP7 CALLDATACOPY DUP2 MLOAD ISZERO PUSH2 0x4B6 JUMPI PUSH1 0x30 DUP6 MSTORE8 DUP2 MLOAD PUSH1 0x1 SWAP1 DUP2 LT ISZERO PUSH2 0x4B6 JUMPI PUSH1 0x78 PUSH1 0x21 DUP5 ADD MSTORE8 PUSH1 0x41 SWAP1 JUMPDEST DUP1 DUP3 GT PUSH2 0x45C JUMPI POP POP PUSH2 0x419 JUMPI SWAP1 PUSH2 0x3E2 PUSH1 0x48 PUSH1 0x44 SWAP5 SWAP4 PUSH1 0x40 MLOAD SWAP7 DUP8 SWAP2 PUSH2 0x3D3 DUP8 DUP5 ADD SWAP7 PUSH23 0x20B1B1B2B9B9A1B7B73A3937B61D1030B1B1B7BAB73A1 PUSH1 0x4D SHL DUP9 MSTORE PUSH2 0x3AA DUP2 MLOAD DUP1 SWAP3 DUP12 PUSH1 0x37 DUP10 ADD SWAP2 ADD PUSH2 0x1580 JUMP JUMPDEST DUP5 ADD SWAP2 PUSH17 0x1034B99036B4B9B9B4B733903937B6329 PUSH1 0x7D SHL PUSH1 0x37 DUP5 ADD MSTORE MLOAD DUP1 SWAP4 DUP7 DUP5 ADD SWAP1 PUSH2 0x1580 JUMP JUMPDEST ADD SUB PUSH1 0x28 DUP2 ADD DUP8 MSTORE ADD DUP6 PUSH2 0x152E JUMP JUMPDEST PUSH2 0x40B PUSH1 0x40 MLOAD SWAP5 DUP6 SWAP4 PUSH3 0x461BCD PUSH1 0xE5 SHL DUP6 MSTORE PUSH1 0x4 DUP6 ADD MSTORE MLOAD DUP1 SWAP3 DUP2 PUSH1 0x24 DUP7 ADD MSTORE DUP6 DUP6 ADD SWAP1 PUSH2 0x1580 JUMP JUMPDEST PUSH1 0x1F ADD PUSH1 0x1F NOT AND DUP2 ADD SUB ADD SWAP1 REVERT JUMPDEST PUSH1 0x64 DUP4 PUSH1 0x40 MLOAD SWAP1 PUSH3 0x461BCD PUSH1 0xE5 SHL DUP3 MSTORE DUP1 PUSH1 0x4 DUP4 ADD MSTORE PUSH1 0x24 DUP3 ADD MSTORE PUSH32 0x537472696E67733A20686578206C656E67746820696E73756666696369656E74 PUSH1 0x44 DUP3 ADD MSTORE REVERT JUMPDEST SWAP1 SWAP2 PUSH1 0xF DUP2 AND PUSH1 0x10 DUP2 LT ISZERO PUSH2 0x4B6 JUMPI PUSH16 0x181899199A1A9B1B9C1CB0B131B232B3 PUSH1 0x81 SHL SWAP1 BYTE PUSH2 0x48B DUP5 DUP7 PUSH2 0x1AC6 JUMP JUMPDEST MSTORE8 PUSH1 0x4 SHR SWAP2 DUP1 ISZERO PUSH2 0x4A0 JUMPI PUSH1 0x0 NOT ADD SWAP1 PUSH2 0x356 JUMP JUMPDEST PUSH4 0x4E487B71 PUSH1 0xE0 SHL PUSH1 0x0 MSTORE PUSH1 0x11 PUSH1 0x4 MSTORE PUSH1 0x24 PUSH1 0x0 REVERT JUMPDEST PUSH4 0x4E487B71 PUSH1 0xE0 SHL PUSH1 0x0 MSTORE PUSH1 0x32 PUSH1 0x4 MSTORE PUSH1 0x24 PUSH1 0x0 REVERT JUMPDEST CALLVALUE PUSH2 0x16D JUMPI PUSH1 0x40 CALLDATASIZE PUSH1 0x3 NOT ADD SLT PUSH2 0x16D JUMPI PUSH2 0x1B PUSH1 0x4 CALLDATALOAD PUSH2 0x4EB PUSH2 0x14AB JUMP JUMPDEST SWAP1 DUP1 PUSH1 0x0 MSTORE PUSH1 0x0 PUSH1 0x20 MSTORE PUSH2 0x506 PUSH1 0x1 PUSH1 0x40 PUSH1 0x0 KECCAK256 ADD SLOAD PUSH2 0x1927 JUMP JUMPDEST PUSH2 0x1A32 JUMP JUMPDEST CALLVALUE PUSH2 0x16D JUMPI PUSH1 0x20 DUP1 PUSH1 0x3 NOT CALLDATASIZE ADD SLT PUSH2 0x16D JUMPI PUSH2 0x525 PUSH2 0x14C1 JUMP JUMPDEST PUSH2 0x52D PUSH2 0x1BE6 JUMP JUMPDEST PUSH1 0x1 PUSH1 0x1 PUSH1 0xA0 SHL SUB AND PUSH1 0x0 DUP2 DUP2 MSTORE PUSH1 0x4 DUP4 MSTORE PUSH1 0x40 DUP1 DUP3 KECCAK256 CALLER DUP4 MSTORE DUP5 MSTORE SWAP1 KECCAK256 SLOAD SWAP1 SWAP2 DUP2 ISZERO PUSH2 0x6B1 JUMPI DUP3 PUSH1 0x0 MSTORE PUSH1 0x4 DUP2 MSTORE PUSH1 0x40 PUSH1 0x0 KECCAK256 CALLER PUSH1 0x0 MSTORE DUP2 MSTORE PUSH1 0x0 PUSH1 0x40 DUP2 KECCAK256 SSTORE DUP3 PUSH1 0x0 MSTORE PUSH2 0x59D PUSH1 0x5 SWAP3 DUP4 DUP4 MSTORE PUSH2 0x58A DUP2 PUSH1 0x40 PUSH1 0x0 KECCAK256 SLOAD PUSH2 0x1AB9 JUMP JUMPDEST DUP6 PUSH1 0x0 MSTORE DUP5 DUP5 MSTORE PUSH1 0x40 PUSH1 0x0 KECCAK256 SSTORE CALLER PUSH2 0x1680 JUMP JUMPDEST DUP3 PUSH1 0x0 MSTORE PUSH1 0x3 DUP2 MSTORE PUSH1 0x40 PUSH1 0x0 KECCAK256 SWAP3 PUSH1 0x40 MLOAD DUP1 DUP6 DUP5 DUP3 SWAP8 SLOAD SWAP4 DUP5 DUP2 MSTORE ADD SWAP1 PUSH1 0x0 MSTORE DUP5 PUSH1 0x0 KECCAK256 SWAP3 PUSH1 0x0 JUMPDEST DUP7 DUP3 DUP3 LT PUSH2 0x69B JUMPI POP POP POP PUSH2 0x5DC SWAP3 POP SUB DUP6 PUSH2 0x152E JUMP JUMPDEST PUSH1 0x0 JUMPDEST DUP5 MLOAD DUP2 LT ISZERO PUSH2 0x695 JUMPI DUP1 DUP4 PUSH2 0x628 SWAP3 DUP7 SHL DUP8 ADD ADD MLOAD DUP1 PUSH1 0x0 MSTORE PUSH1 0x2 DUP6 MSTORE PUSH1 0x40 PUSH1 0x0 KECCAK256 PUSH1 0x9 DUP2 ADD SWAP1 CALLER PUSH1 0x0 MSTORE DUP2 DUP8 MSTORE PUSH1 0x40 PUSH1 0x0 KECCAK256 SLOAD ISZERO ISZERO DUP1 PUSH2 0x67F JUMPI JUMPDEST PUSH2 0x62D JUMPI JUMPDEST POP POP POP PUSH2 0x15E8 JUMP JUMPDEST PUSH2 0x5DF JUMP JUMPDEST PUSH1 0xA ADD DUP7 MSTORE PUSH1 0x40 PUSH1 0x0 KECCAK256 PUSH1 0x1 PUSH1 0xFF NOT DUP3 SLOAD AND OR SWAP1 SSTORE DUP6 MSTORE DUP4 PUSH1 0x40 PUSH1 0x0 KECCAK256 SLOAD SWAP2 PUSH1 0x40 MLOAD SWAP3 DUP4 MSTORE PUSH32 0x96A7185D82CC69593923DE8D4B06ACE70544411B1CC122153661FF794AA4D3F7 DUP8 CALLER SWAP5 LOG4 DUP7 DUP1 DUP1 PUSH2 0x620 JUMP JUMPDEST POP PUSH1 0xA DUP2 ADD DUP8 MSTORE PUSH1 0xFF PUSH1 0x40 PUSH1 0x0 KECCAK256 SLOAD AND ISZERO PUSH2 0x61B JUMP JUMPDEST PUSH1 0x1 DUP1 SSTORE STOP JUMPDEST DUP6 SLOAD DUP5 MSTORE PUSH1 0x1 SWAP6 DUP7 ADD SWAP6 DUP11 SWAP6 POP SWAP4 ADD SWAP3 ADD PUSH2 0x5C5 JUMP JUMPDEST PUSH1 0x64 SWAP1 PUSH1 0x40 MLOAD SWAP1 PUSH3 0x461BCD PUSH1 0xE5 SHL DUP3 MSTORE PUSH1 0x4 DUP3 ADD MSTORE PUSH1 0x14 PUSH1 0x24 DUP3 ADD MSTORE PUSH20 0x4E6F2070656E64696E67206469766964656E6473 PUSH1 0x60 SHL PUSH1 0x44 DUP3 ADD MSTORE REVERT JUMPDEST CALLVALUE PUSH2 0x16D JUMPI PUSH1 0x0 CALLDATASIZE PUSH1 0x3 NOT ADD SLT PUSH2 0x16D JUMPI PUSH1 0x20 PUSH1 0x40 MLOAD PUSH1 0x0 DUP2 MSTORE RETURN JUMPDEST CALLVALUE PUSH2 0x16D JUMPI PUSH1 0x40 CALLDATASIZE PUSH1 0x3 NOT ADD SLT PUSH2 0x16D JUMPI PUSH2 0x721 PUSH2 0x14C1 JUMP JUMPDEST PUSH1 0x24 SWAP1 DUP2 CALLDATALOAD SWAP2 PUSH2 0x72F PUSH2 0x172C JUMP JUMPDEST PUSH2 0x737 PUSH2 0x1BE6 JUMP JUMPDEST DUP3 ISZERO PUSH2 0xAD7 JUMPI PUSH1 0x40 MLOAD PUSH4 0x7E43A5D3 PUSH1 0xE1 SHL DUP2 MSTORE PUSH1 0x1 PUSH1 0x1 PUSH1 0xA0 SHL SUB SWAP3 DUP4 AND PUSH1 0x4 DUP3 ADD DUP2 SWAP1 MSTORE SWAP2 PUSH1 0x0 DUP3 DUP3 DUP2 PUSH32 0x0 DUP9 AND GAS STATICCALL SWAP2 DUP3 ISZERO PUSH2 0xACB JUMPI PUSH1 0x0 SWAP3 PUSH2 0x964 JUMPI JUMPDEST POP PUSH2 0x100 DUP3 ADD MLOAD ISZERO PUSH2 0x920 JUMPI PUSH1 0x6 SLOAD SWAP4 PUSH2 0x7AF DUP6 PUSH2 0x15E8 JUMP JUMPDEST PUSH1 0x6 SSTORE DUP5 PUSH1 0x0 MSTORE PUSH1 0x2 PUSH1 0x20 MSTORE PUSH1 0x40 PUSH1 0x0 KECCAK256 SWAP3 PUSH1 0xE0 DUP2 ADD SWAP3 PUSH1 0x8 PUSH2 0x2710 PUSH2 0x7D6 DUP7 MLOAD DUP12 PUSH2 0x1AA6 JUMP JUMPDEST DIV SWAP6 PUSH2 0x7E2 DUP8 DUP12 PUSH2 0x1643 JUMP JUMPDEST SWAP6 DUP10 DUP3 SSTORE PUSH1 0x1 DUP3 ADD DUP10 PUSH12 0xFFFFFFFFFFFFFFFFFFFFFFFF PUSH1 0xA0 SHL DUP3 SLOAD AND OR SWAP1 SSTORE DUP11 PUSH1 0x2 DUP4 ADD SSTORE PUSH1 0x80 DUP6 ADD MLOAD PUSH1 0x3 DUP4 ADD SSTORE TIMESTAMP PUSH1 0x4 DUP4 ADD SSTORE MLOAD PUSH1 0x5 DUP3 ADD SSTORE DUP7 PUSH1 0x6 DUP3 ADD SSTORE DUP6 PUSH1 0x7 DUP3 ADD SSTORE ADD PUSH1 0xFF NOT DUP2 SLOAD AND SWAP1 SSTORE DUP6 PUSH1 0x0 MSTORE PUSH1 0x3 PUSH1 0x20 MSTORE PUSH1 0x40 PUSH1 0x0 KECCAK256 DUP1 SLOAD SWAP2 PUSH9 0x10000000000000000 DUP4 LT ISZERO PUSH2 0x90C JUMPI POP SWAP4 PUSH1 0x60 SWAP4 PUSH1 0x20 SWAP10 SWAP4 PUSH2 0x890 DUP5 PUSH32 0x5075963A9041ED42429279F6FFA82B2B40F4332E9C7AD5DE5F467D3638B98299 SWAP9 PUSH1 0x1 DUP14 SWAP12 SWAP8 ADD DUP2 SSTORE PUSH2 0x14E4 JUMP JUMPDEST DUP2 SLOAD SWAP1 PUSH1 0x3 SHL SWAP1 DUP11 DUP3 SHL SWAP2 PUSH1 0x0 NOT SWAP1 SHL NOT AND OR SWAP1 SSTORE DUP4 PUSH2 0x8C9 JUMPI JUMPDEST POP POP PUSH1 0x40 MLOAD SWAP3 DUP4 MSTORE DUP9 DUP4 ADD MSTORE PUSH1 0x40 DUP3 ADD MSTORE LOG3 PUSH1 0x1 DUP1 SSTORE PUSH1 0x40 MLOAD SWAP1 DUP2 MSTORE RETURN JUMPDEST PUSH1 0xC0 ADD PUSH2 0x8D9 DUP5 DUP4 DUP4 MLOAD AND PUSH2 0x1680 JUMP JUMPDEST MLOAD AND DUP8 PUSH32 0xB46130B279B057E97E6B556F82EAE25AD037B863A7220079669B3C354A6790A3 DUP12 PUSH1 0x40 MLOAD DUP7 DUP2 MSTORE LOG3 DUP10 DUP1 PUSH2 0x8AB JUMP JUMPDEST PUSH4 0x4E487B71 PUSH1 0xE0 SHL PUSH1 0x0 SWAP1 DUP2 MSTORE PUSH1 0x41 PUSH1 0x4 MSTORE REVERT JUMPDEST PUSH1 0x64 SWAP1 PUSH1 0x1C PUSH1 0x40 MLOAD SWAP2 PUSH3 0x461BCD PUSH1 0xE5 SHL DUP4 MSTORE PUSH1 0x20 PUSH1 0x4 DUP5 ADD MSTORE DUP3 ADD MSTORE PUSH32 0x50726F706572747920746F6B656E206973206E6F742061637469766500000000 PUSH1 0x44 DUP3 ADD MSTORE REVERT JUMPDEST SWAP1 SWAP2 POP RETURNDATASIZE DUP1 PUSH1 0x0 DUP4 RETURNDATACOPY PUSH2 0x977 DUP2 DUP4 PUSH2 0x152E JUMP JUMPDEST DUP2 ADD PUSH1 0x20 DUP3 DUP3 SUB SLT PUSH2 0x16D JUMPI DUP2 MLOAD PUSH8 0xFFFFFFFFFFFFFFFF SWAP3 DUP4 DUP3 GT PUSH2 0x16D JUMPI ADD SWAP1 PUSH2 0x1A0 SWAP3 DUP4 DUP4 DUP4 SUB SLT PUSH2 0x16D JUMPI PUSH1 0x40 MLOAD SWAP4 DUP5 ADD DUP5 DUP2 LT DUP3 DUP3 GT OR PUSH2 0xAB6 JUMPI PUSH1 0x40 MSTORE PUSH2 0x9C2 DUP4 PUSH2 0x1550 JUMP JUMPDEST DUP5 MSTORE PUSH1 0x20 DUP4 ADD MLOAD DUP2 DUP2 GT PUSH2 0x16D JUMPI DUP3 PUSH2 0x9DC SWAP2 DUP6 ADD PUSH2 0x15A3 JUMP JUMPDEST PUSH1 0x20 DUP6 ADD MSTORE PUSH1 0x40 DUP4 ADD MLOAD DUP2 DUP2 GT PUSH2 0x16D JUMPI DUP3 PUSH2 0x9F9 SWAP2 DUP6 ADD PUSH2 0x15A3 JUMP JUMPDEST PUSH1 0x40 DUP6 ADD MSTORE PUSH1 0x60 DUP4 ADD MLOAD DUP2 DUP2 GT PUSH2 0x16D JUMPI DUP3 PUSH2 0xA16 SWAP2 DUP6 ADD PUSH2 0x15A3 JUMP JUMPDEST PUSH1 0x60 DUP6 ADD MSTORE PUSH1 0x80 DUP4 ADD MLOAD PUSH1 0x80 DUP6 ADD MSTORE PUSH1 0xA0 DUP4 ADD MLOAD PUSH1 0xA0 DUP6 ADD MSTORE PUSH2 0xA3B PUSH1 0xC0 DUP5 ADD PUSH2 0x1550 JUMP JUMPDEST PUSH1 0xC0 DUP6 ADD MSTORE PUSH1 0xE0 DUP4 ADD MLOAD PUSH1 0xE0 DUP6 ADD MSTORE PUSH2 0x100 DUP1 DUP5 ADD MLOAD SWAP1 DUP2 ISZERO ISZERO DUP3 SUB PUSH2 0x16D JUMPI DUP6 ADD MSTORE PUSH2 0x120 SWAP2 DUP3 DUP5 ADD MLOAD SWAP2 DUP3 GT PUSH2 0x16D JUMPI PUSH2 0xA78 SWAP2 DUP5 ADD PUSH2 0x15A3 JUMP JUMPDEST SWAP1 DUP4 ADD MSTORE PUSH2 0x140 DUP1 DUP3 ADD MLOAD SWAP1 DUP4 ADD MSTORE PUSH2 0x160 DUP1 DUP3 ADD MLOAD SWAP1 PUSH1 0x6 DUP3 LT ISZERO PUSH2 0x16D JUMPI DUP4 ADD MSTORE PUSH2 0x180 DUP1 SWAP2 ADD MLOAD SWAP1 PUSH1 0x5 DUP3 LT ISZERO PUSH2 0x16D JUMPI DUP3 ADD MSTORE SWAP1 DUP6 PUSH2 0x796 JUMP JUMPDEST DUP6 PUSH4 0x4E487B71 PUSH1 0xE0 SHL PUSH1 0x0 MSTORE PUSH1 0x41 PUSH1 0x4 MSTORE PUSH1 0x0 REVERT JUMPDEST PUSH1 0x40 MLOAD RETURNDATASIZE PUSH1 0x0 DUP3 RETURNDATACOPY RETURNDATASIZE SWAP1 REVERT JUMPDEST PUSH1 0x84 SWAP1 PUSH1 0x2A PUSH1 0x40 MLOAD SWAP2 PUSH3 0x461BCD PUSH1 0xE5 SHL DUP4 MSTORE PUSH1 0x20 PUSH1 0x4 DUP5 ADD MSTORE DUP3 ADD MSTORE PUSH32 0x446973747269627574696F6E20616D6F756E74206D7573742062652067726561 PUSH1 0x44 DUP3 ADD MSTORE PUSH10 0x746572207468616E203 PUSH1 0xB4 SHL PUSH1 0x64 DUP3 ADD MSTORE REVERT JUMPDEST CALLVALUE PUSH2 0x16D JUMPI PUSH1 0x20 CALLDATASIZE PUSH1 0x3 NOT ADD SLT PUSH2 0x16D JUMPI PUSH1 0x1 PUSH1 0x1 PUSH1 0xA0 SHL SUB PUSH2 0xB4F PUSH2 0x14C1 JUMP JUMPDEST AND PUSH1 0x0 MSTORE PUSH1 0x5 PUSH1 0x20 MSTORE PUSH1 0x20 PUSH1 0x40 PUSH1 0x0 KECCAK256 SLOAD PUSH1 0x40 MLOAD SWAP1 DUP2 MSTORE RETURN JUMPDEST CALLVALUE PUSH2 0x16D JUMPI PUSH1 0x40 CALLDATASIZE PUSH1 0x3 NOT ADD SLT PUSH2 0x16D JUMPI PUSH2 0xB81 PUSH2 0x14AB JUMP JUMPDEST PUSH1 0x4 CALLDATALOAD PUSH1 0x0 MSTORE PUSH1 0x0 PUSH1 0x20 MSTORE PUSH1 0x40 PUSH1 0x0 KECCAK256 SWAP1 PUSH1 0x1 DUP1 PUSH1 0xA0 SHL SUB AND PUSH1 0x0 MSTORE PUSH1 0x20 MSTORE PUSH1 0x20 PUSH1 0xFF PUSH1 0x40 PUSH1 0x0 KECCAK256 SLOAD AND PUSH1 0x40 MLOAD SWAP1 ISZERO ISZERO DUP2 MSTORE RETURN JUMPDEST CALLVALUE PUSH2 0x16D JUMPI PUSH1 0x40 CALLDATASIZE PUSH1 0x3 NOT ADD SLT PUSH2 0x16D JUMPI PUSH2 0xBCE PUSH2 0x14C1 JUMP JUMPDEST PUSH2 0xBD6 PUSH2 0x14AB JUMP JUMPDEST SWAP1 PUSH1 0x1 DUP1 PUSH1 0xA0 SHL SUB DUP1 SWAP2 AND PUSH1 0x0 MSTORE PUSH1 0x4 PUSH1 0x20 MSTORE PUSH1 0x40 PUSH1 0x0 KECCAK256 SWAP2 AND PUSH1 0x0 MSTORE PUSH1 0x20 MSTORE PUSH1 0x20 PUSH1 0x40 PUSH1 0x0 KECCAK256 SLOAD PUSH1 0x40 MLOAD SWAP1 DUP2 MSTORE RETURN JUMPDEST CALLVALUE PUSH2 0x16D JUMPI PUSH1 0x0 CALLDATASIZE PUSH1 0x3 NOT ADD SLT PUSH2 0x16D JUMPI PUSH1 0x20 PUSH1 0x40 MLOAD PUSH1 0x64 DUP2 MSTORE RETURN JUMPDEST CALLVALUE PUSH2 0x16D JUMPI PUSH1 0x0 CALLDATASIZE PUSH1 0x3 NOT ADD SLT PUSH2 0x16D JUMPI PUSH1 0x20 PUSH1 0x6 SLOAD PUSH1 0x40 MLOAD SWAP1 DUP2 MSTORE RETURN JUMPDEST CALLVALUE PUSH2 0x16D JUMPI PUSH1 0x20 DUP1 PUSH1 0x3 NOT CALLDATASIZE ADD SLT PUSH2 0x16D JUMPI PUSH1 0x1 PUSH1 0x1 PUSH1 0xA0 SHL SUB PUSH2 0xC62 PUSH2 0x14C1 JUMP JUMPDEST AND PUSH1 0x0 MSTORE PUSH1 0x3 DUP2 MSTORE PUSH1 0x40 PUSH1 0x0 KECCAK256 PUSH1 0x40 MLOAD SWAP1 DUP2 DUP4 DUP3 SLOAD SWAP2 DUP3 DUP2 MSTORE ADD SWAP1 DUP2 SWAP3 PUSH1 0x0 MSTORE DUP5 PUSH1 0x0 KECCAK256 SWAP1 PUSH1 0x0 JUMPDEST DUP7 DUP3 DUP3 LT PUSH2 0xCE0 JUMPI DUP7 DUP7 PUSH2 0xCA0 DUP3 DUP9 SUB DUP4 PUSH2 0x152E JUMP JUMPDEST PUSH1 0x40 MLOAD SWAP3 DUP4 SWAP3 DUP2 DUP5 ADD SWAP1 DUP3 DUP6 MSTORE MLOAD DUP1 SWAP2 MSTORE PUSH1 0x40 DUP5 ADD SWAP3 SWAP2 PUSH1 0x0 JUMPDEST DUP3 DUP2 LT PUSH2 0xCC9 JUMPI POP POP POP POP SUB SWAP1 RETURN JUMPDEST DUP4 MLOAD DUP6 MSTORE DUP7 SWAP6 POP SWAP4 DUP2 ADD SWAP4 SWAP3 DUP2 ADD SWAP3 PUSH1 0x1 ADD PUSH2 0xCBA JUMP JUMPDEST DUP4 SLOAD DUP6 MSTORE SWAP1 SWAP4 ADD SWAP3 PUSH1 0x1 SWAP3 DUP4 ADD SWAP3 ADD PUSH2 0xC8A JUMP JUMPDEST CALLVALUE PUSH2 0x16D JUMPI PUSH1 0x40 CALLDATASIZE PUSH1 0x3 NOT ADD SLT PUSH2 0x16D JUMPI PUSH2 0xD0D PUSH2 0x172C JUMP JUMPDEST PUSH2 0xD15 PUSH2 0x1BE6 JUMP JUMPDEST PUSH1 0x24 CALLDATALOAD ISZERO ISZERO DUP1 PUSH2 0x11D9 JUMPI JUMPDEST ISZERO PUSH2 0x119F JUMPI PUSH1 0x4 CALLDATALOAD PUSH1 0x0 MSTORE PUSH1 0x2 PUSH1 0x20 MSTORE PUSH1 0x40 PUSH1 0x0 KECCAK256 PUSH2 0xD41 DUP2 SLOAD ISZERO ISZERO PUSH2 0x15F7 JUMP JUMPDEST PUSH1 0x8 DUP2 ADD SLOAD PUSH1 0xFF DUP2 AND PUSH1 0x4 DUP2 LT ISZERO DUP1 PUSH2 0x1135 JUMPI DUP2 ISZERO DUP1 SWAP3 DUP2 ISZERO PUSH2 0x1190 JUMPI JUMPDEST POP ISZERO PUSH2 0x114B JUMPI PUSH2 0x1135 JUMPI PUSH2 0xFC3 JUMPI JUMPDEST POP PUSH1 0xB DUP2 ADD SLOAD PUSH1 0x24 CALLDATALOAD DUP2 GT ISZERO PUSH2 0xFBC JUMPI PUSH2 0xD8A PUSH1 0x24 CALLDATALOAD DUP3 PUSH2 0x1643 JUMP JUMPDEST PUSH1 0x0 SWAP2 DUP2 JUMPDEST DUP2 DUP2 LT PUSH2 0xE9F JUMPI POP POP PUSH1 0x0 JUMPDEST PUSH1 0x24 CALLDATALOAD DUP2 LT DUP1 PUSH2 0xE92 JUMPI JUMPDEST ISZERO PUSH2 0xE37 JUMPI PUSH1 0xB DUP5 ADD SLOAD SWAP1 DUP2 ISZERO PUSH2 0xE21 JUMPI PUSH1 0x0 NOT SWAP2 DUP3 ADD PUSH2 0xDCA DUP2 PUSH1 0xB DUP9 ADD PUSH2 0x14E4 JUMP JUMPDEST DUP2 SLOAD PUSH1 0x1 PUSH1 0x1 PUSH1 0xA0 SHL SUB PUSH1 0x3 SWAP3 DUP4 SHL SHL NOT AND SWAP1 SWAP2 SSTORE PUSH1 0xB DUP8 ADD SWAP2 SWAP1 SWAP2 SSTORE PUSH1 0xC DUP7 ADD SLOAD SWAP3 DUP4 ISZERO PUSH2 0xE21 JUMPI DUP1 PUSH2 0xE1C SWAP5 ADD SWAP2 PUSH2 0xE07 DUP4 PUSH1 0xC DUP11 ADD PUSH2 0x14E4 JUMP JUMPDEST DUP2 SWAP4 SWAP2 SLOAD SWAP3 SHL SHL NOT AND SWAP1 SSTORE PUSH1 0xC DUP7 ADD SSTORE PUSH2 0x15E8 JUMP JUMPDEST PUSH2 0xD9B JUMP JUMPDEST PUSH4 0x4E487B71 PUSH1 0xE0 SHL PUSH1 0x0 MSTORE PUSH1 0x31 PUSH1 0x4 MSTORE PUSH1 0x24 PUSH1 0x0 REVERT JUMPDEST POP SWAP2 PUSH1 0xB DUP2 ADD SLOAD ISZERO PUSH2 0xE7E JUMPI JUMPDEST POP PUSH1 0x40 MLOAD SWAP2 DUP3 MSTORE PUSH1 0x20 DUP3 ADD MSTORE PUSH32 0xD78204B380644F31CF1C59EAF39DF5D2E4D173C5DE43E3D3ECD95496EFB5EFD4 PUSH1 0x40 PUSH1 0x4 CALLDATALOAD SWAP3 LOG2 PUSH1 0x1 DUP1 SSTORE STOP JUMPDEST PUSH1 0x8 ADD DUP1 SLOAD PUSH1 0xFF NOT AND PUSH1 0x2 OR SWAP1 SSTORE DUP3 PUSH2 0xE44 JUMP JUMPDEST POP PUSH1 0xB DUP5 ADD SLOAD ISZERO ISZERO PUSH2 0xDA6 JUMP JUMPDEST PUSH2 0xEAC DUP2 PUSH1 0xB DUP8 ADD PUSH2 0x14E4 JUMP JUMPDEST SWAP1 SLOAD PUSH2 0xEBB DUP4 PUSH1 0xC DUP10 ADD PUSH2 0x14E4 JUMP JUMPDEST SWAP1 SLOAD SWAP1 PUSH1 0x3 SHL SHR DUP1 ISZERO ISZERO DUP1 PUSH2 0xF94 JUMPI JUMPDEST PUSH2 0xEE1 JUMPI JUMPDEST POP POP POP PUSH2 0xEDC SWAP1 PUSH2 0x15E8 JUMP JUMPDEST PUSH2 0xD8F JUMP JUMPDEST PUSH2 0xEEF SWAP1 PUSH1 0x7 DUP10 ADD SLOAD PUSH2 0x1AA6 JUMP JUMPDEST PUSH1 0x3 DUP9 ADD SLOAD SWAP1 DUP2 ISZERO PUSH2 0xF7E JUMPI DIV SWAP2 DUP3 ISZERO PUSH2 0xED0 JUMPI SWAP2 PUSH2 0xEDC SWAP4 SWAP7 SWAP2 PUSH2 0xF75 SWAP4 PUSH1 0x1 DUP1 PUSH1 0xA0 SHL SUB DUP1 PUSH1 0x1 DUP13 ADD SLOAD AND SWAP3 DUP4 PUSH1 0x0 MSTORE PUSH1 0x4 PUSH1 0x20 MSTORE PUSH1 0x40 PUSH1 0x0 KECCAK256 SWAP3 PUSH1 0x3 SHL SHR AND SWAP1 DUP2 PUSH1 0x0 MSTORE PUSH1 0x20 MSTORE PUSH2 0xF48 DUP4 PUSH1 0x40 PUSH1 0x0 KECCAK256 SLOAD PUSH2 0x1AB9 JUMP JUMPDEST SWAP2 PUSH1 0x0 MSTORE PUSH1 0x4 PUSH1 0x20 MSTORE PUSH1 0x40 PUSH1 0x0 KECCAK256 SWAP1 PUSH1 0x0 MSTORE PUSH1 0x20 MSTORE PUSH1 0x40 PUSH1 0x0 KECCAK256 SSTORE PUSH1 0x9 DUP9 ADD PUSH1 0x20 MSTORE PUSH1 0x40 PUSH1 0x0 KECCAK256 SSTORE PUSH2 0x15E8 JUMP JUMPDEST SWAP4 SWAP1 DUP7 DUP1 PUSH2 0xED0 JUMP JUMPDEST PUSH4 0x4E487B71 PUSH1 0xE0 SHL PUSH1 0x0 MSTORE PUSH1 0x12 PUSH1 0x4 MSTORE PUSH1 0x24 PUSH1 0x0 REVERT JUMPDEST POP PUSH1 0x1 DUP1 PUSH1 0xA0 SHL SUB DUP3 DUP5 PUSH1 0x3 SHL SHR AND PUSH1 0x0 MSTORE PUSH1 0xA DUP9 ADD PUSH1 0x20 MSTORE PUSH1 0xFF PUSH1 0x40 PUSH1 0x0 KECCAK256 SLOAD AND ISZERO PUSH2 0xECB JUMP JUMPDEST PUSH1 0x0 PUSH2 0xD8A JUMP JUMPDEST PUSH1 0x1 SWAP1 PUSH1 0xFF NOT AND OR PUSH1 0x8 DUP3 ADD SSTORE PUSH1 0x4 CALLDATALOAD PUSH1 0x0 MSTORE PUSH1 0x2 PUSH1 0x20 MSTORE PUSH1 0x1 DUP1 PUSH1 0xA0 SHL SUB PUSH1 0x1 PUSH1 0x40 PUSH1 0x0 KECCAK256 ADD SLOAD AND PUSH1 0x40 MLOAD SWAP1 PUSH4 0x7845C173 PUSH1 0xE1 SHL DUP3 MSTORE PUSH1 0x20 DUP3 PUSH1 0x4 DUP2 PUSH1 0x1 DUP1 PUSH1 0xA0 SHL SUB PUSH32 0x0 AND GAS STATICCALL SWAP2 DUP3 ISZERO PUSH2 0xACB JUMPI PUSH1 0x0 SWAP3 PUSH2 0x1101 JUMPI JUMPDEST POP PUSH1 0x0 JUMPDEST DUP3 DUP2 LT PUSH2 0x104D JUMPI JUMPDEST POP POP PUSH2 0xD6E JUMP JUMPDEST PUSH1 0x40 MLOAD PUSH4 0x644B7A43 PUSH1 0xE0 SHL DUP2 MSTORE PUSH1 0x4 DUP2 ADD DUP3 SWAP1 MSTORE PUSH1 0x20 DUP2 PUSH1 0x24 DUP2 PUSH32 0x0 PUSH1 0x1 PUSH1 0x1 PUSH1 0xA0 SHL SUB AND GAS STATICCALL DUP1 ISZERO PUSH2 0xACB JUMPI DUP4 SWAP2 PUSH1 0x0 SWAP2 PUSH2 0x10C5 JUMPI JUMPDEST POP PUSH1 0x1 PUSH1 0x1 PUSH1 0xA0 SHL SUB AND EQ PUSH2 0x10C0 JUMPI PUSH2 0x10BB SWAP1 PUSH2 0x15E8 JUMP JUMPDEST PUSH2 0x103E JUMP JUMPDEST PUSH2 0x1046 JUMP JUMPDEST SWAP2 POP POP PUSH1 0x20 DUP2 RETURNDATASIZE PUSH1 0x20 GT PUSH2 0x10F9 JUMPI JUMPDEST DUP2 PUSH2 0x10E1 PUSH1 0x20 SWAP4 DUP4 PUSH2 0x152E JUMP JUMPDEST DUP2 ADD SUB SLT PUSH2 0x16D JUMPI PUSH2 0x10F3 DUP4 SWAP2 PUSH2 0x1550 JUMP JUMPDEST DUP7 PUSH2 0x10A3 JUMP JUMPDEST RETURNDATASIZE SWAP2 POP PUSH2 0x10D4 JUMP JUMPDEST SWAP1 SWAP2 POP PUSH1 0x20 DUP2 RETURNDATASIZE PUSH1 0x20 GT PUSH2 0x112D JUMPI JUMPDEST DUP2 PUSH2 0x111D PUSH1 0x20 SWAP4 DUP4 PUSH2 0x152E JUMP JUMPDEST DUP2 ADD SUB SLT PUSH2 0x16D JUMPI MLOAD SWAP1 DUP4 PUSH2 0x103A JUMP JUMPDEST RETURNDATASIZE SWAP2 POP PUSH2 0x1110 JUMP JUMPDEST PUSH4 0x4E487B71 PUSH1 0xE0 SHL PUSH1 0x0 MSTORE PUSH1 0x21 PUSH1 0x4 MSTORE PUSH1 0x24 PUSH1 0x0 REVERT JUMPDEST PUSH1 0x40 MLOAD PUSH3 0x461BCD PUSH1 0xE5 SHL DUP2 MSTORE PUSH1 0x20 PUSH1 0x4 DUP3 ADD MSTORE PUSH1 0x1B PUSH1 0x24 DUP3 ADD MSTORE PUSH32 0x496E76616C696420646973747269627574696F6E207374617475730000000000 PUSH1 0x44 DUP3 ADD MSTORE PUSH1 0x64 SWAP1 REVERT JUMPDEST SWAP2 POP POP PUSH1 0x1 PUSH1 0x0 SWAP2 EQ DUP6 PUSH2 0xD5F JUMP JUMPDEST PUSH1 0x40 MLOAD PUSH3 0x461BCD PUSH1 0xE5 SHL DUP2 MSTORE PUSH1 0x20 PUSH1 0x4 DUP3 ADD MSTORE PUSH1 0x12 PUSH1 0x24 DUP3 ADD MSTORE PUSH18 0x496E76616C69642062617463682073697A65 PUSH1 0x70 SHL PUSH1 0x44 DUP3 ADD MSTORE PUSH1 0x64 SWAP1 REVERT JUMPDEST POP PUSH1 0x64 PUSH1 0x24 CALLDATALOAD GT ISZERO PUSH2 0xD20 JUMP JUMPDEST CALLVALUE PUSH2 0x16D JUMPI PUSH1 0x0 CALLDATASIZE PUSH1 0x3 NOT ADD SLT PUSH2 0x16D JUMPI PUSH1 0x20 PUSH1 0x40 MLOAD PUSH32 0x5AA58C694AEB083DF8754BF5E98675317E4137A5A8A2C6188D0228869E43DA7E DUP2 MSTORE RETURN JUMPDEST CALLVALUE PUSH2 0x16D JUMPI PUSH1 0x20 CALLDATASIZE PUSH1 0x3 NOT ADD SLT PUSH2 0x16D JUMPI PUSH1 0x4 CALLDATALOAD PUSH1 0x0 MSTORE PUSH1 0x2 PUSH1 0x20 MSTORE PUSH2 0x120 PUSH1 0x40 PUSH1 0x0 KECCAK256 PUSH2 0x12B6 DUP2 SLOAD SWAP2 PUSH1 0x1 DUP1 PUSH1 0xA0 SHL SUB PUSH1 0x1 DUP3 ADD SLOAD AND SWAP1 PUSH1 0x2 DUP2 ADD SLOAD PUSH1 0x3 DUP3 ADD SLOAD PUSH1 0x4 DUP4 ADD SLOAD PUSH1 0x5 DUP5 ADD SLOAD SWAP2 PUSH1 0x6 DUP6 ADD SLOAD SWAP4 PUSH1 0xFF PUSH1 0x8 PUSH1 0x7 DUP9 ADD SLOAD SWAP8 ADD SLOAD AND SWAP7 PUSH1 0x40 MLOAD SWAP10 DUP11 MSTORE PUSH1 0x20 DUP11 ADD MSTORE PUSH1 0x40 DUP10 ADD MSTORE PUSH1 0x60 DUP9 ADD MSTORE PUSH1 0x80 DUP8 ADD MSTORE PUSH1 0xA0 DUP7 ADD MSTORE PUSH1 0xC0 DUP6 ADD MSTORE PUSH1 0xE0 DUP5 ADD MSTORE PUSH2 0x100 DUP4 ADD SWAP1 PUSH2 0x14D7 JUMP JUMPDEST RETURN JUMPDEST CALLVALUE PUSH2 0x16D JUMPI PUSH1 0x20 CALLDATASIZE PUSH1 0x3 NOT ADD SLT PUSH2 0x16D JUMPI PUSH1 0x4 CALLDATALOAD PUSH1 0x0 MSTORE PUSH1 0x2 PUSH1 0x20 MSTORE PUSH1 0xC0 PUSH1 0x40 PUSH1 0x0 KECCAK256 PUSH2 0x12E7 DUP2 SLOAD ISZERO ISZERO PUSH2 0x15F7 JUMP JUMPDEST PUSH2 0x12B6 PUSH1 0x1 DUP1 PUSH1 0xA0 SHL SUB PUSH1 0x1 DUP4 ADD SLOAD AND SWAP2 PUSH1 0x2 DUP2 ADD SLOAD SWAP1 PUSH1 0x7 DUP2 ADD SLOAD PUSH1 0x6 DUP3 ADD SLOAD SWAP1 PUSH1 0xFF PUSH1 0x8 PUSH1 0x4 DUP6 ADD SLOAD SWAP5 ADD SLOAD AND SWAP4 PUSH1 0x40 MLOAD SWAP7 DUP8 MSTORE PUSH1 0x20 DUP8 ADD MSTORE PUSH1 0x40 DUP7 ADD MSTORE PUSH1 0x60 DUP6 ADD MSTORE PUSH1 0x80 DUP5 ADD MSTORE PUSH1 0xA0 DUP4 ADD SWAP1 PUSH2 0x14D7 JUMP JUMPDEST CALLVALUE PUSH2 0x16D JUMPI PUSH1 0x40 CALLDATASIZE PUSH1 0x3 NOT ADD SLT PUSH2 0x16D JUMPI PUSH2 0x1354 PUSH2 0x14AB JUMP JUMPDEST CALLER PUSH1 0x1 PUSH1 0x1 PUSH1 0xA0 SHL SUB DUP3 AND SUB PUSH2 0x1370 JUMPI PUSH2 0x1B SWAP1 PUSH1 0x4 CALLDATALOAD PUSH2 0x1A32 JUMP JUMPDEST PUSH1 0x40 MLOAD PUSH3 0x461BCD PUSH1 0xE5 SHL DUP2 MSTORE PUSH1 0x20 PUSH1 0x4 DUP3 ADD MSTORE PUSH1 0x2F PUSH1 0x24 DUP3 ADD MSTORE PUSH32 0x416363657373436F6E74726F6C3A2063616E206F6E6C792072656E6F756E6365 PUSH1 0x44 DUP3 ADD MSTORE PUSH15 0x103937B632B9903337B91039B2B633 PUSH1 0x89 SHL PUSH1 0x64 DUP3 ADD MSTORE PUSH1 0x84 SWAP1 REVERT JUMPDEST CALLVALUE PUSH2 0x16D JUMPI PUSH1 0x40 CALLDATASIZE PUSH1 0x3 NOT ADD SLT PUSH2 0x16D JUMPI PUSH1 0x4 CALLDATALOAD PUSH2 0x13E9 PUSH2 0x14AB JUMP JUMPDEST DUP2 PUSH1 0x0 MSTORE PUSH1 0x0 PUSH1 0x20 MSTORE PUSH2 0x1403 PUSH1 0x1 PUSH1 0x40 PUSH1 0x0 KECCAK256 ADD SLOAD PUSH2 0x1927 JUMP JUMPDEST DUP2 PUSH1 0x0 MSTORE PUSH1 0x0 PUSH1 0x20 MSTORE PUSH1 0x40 PUSH1 0x0 KECCAK256 SWAP1 PUSH1 0x1 DUP1 PUSH1 0xA0 SHL SUB AND SWAP1 DUP2 PUSH1 0x0 MSTORE PUSH1 0x20 MSTORE PUSH1 0xFF PUSH1 0x40 PUSH1 0x0 KECCAK256 SLOAD AND ISZERO PUSH2 0x1432 JUMPI STOP JUMPDEST DUP2 PUSH1 0x0 MSTORE PUSH1 0x0 PUSH1 0x20 MSTORE PUSH1 0x40 PUSH1 0x0 KECCAK256 DUP2 PUSH1 0x0 MSTORE PUSH1 0x20 MSTORE PUSH1 0x40 PUSH1 0x0 KECCAK256 PUSH1 0x1 PUSH1 0xFF NOT DUP3 SLOAD AND OR SWAP1 SSTORE CALLER SWAP2 PUSH32 0x2F8788117E7EFF1D82E926EC794901D17C78024A50270940304540A733656F0D PUSH1 0x0 DUP1 LOG4 STOP JUMPDEST CALLVALUE PUSH2 0x16D JUMPI PUSH1 0x20 CALLDATASIZE PUSH1 0x3 NOT ADD SLT PUSH2 0x16D JUMPI PUSH1 0x20 SWAP1 PUSH1 0x4 CALLDATALOAD PUSH1 0x0 MSTORE PUSH1 0x0 DUP3 MSTORE PUSH1 0x1 PUSH1 0x40 PUSH1 0x0 KECCAK256 ADD SLOAD DUP2 MSTORE RETURN JUMPDEST PUSH1 0x24 CALLDATALOAD SWAP1 PUSH1 0x1 PUSH1 0x1 PUSH1 0xA0 SHL SUB DUP3 AND DUP3 SUB PUSH2 0x16D JUMPI JUMP JUMPDEST PUSH1 0x4 CALLDATALOAD SWAP1 PUSH1 0x1 PUSH1 0x1 PUSH1 0xA0 SHL SUB DUP3 AND DUP3 SUB PUSH2 0x16D JUMPI JUMP JUMPDEST SWAP1 PUSH1 0x4 DUP3 LT ISZERO PUSH2 0x1135 JUMPI MSTORE JUMP JUMPDEST DUP1 SLOAD DUP3 LT ISZERO PUSH2 0x4B6 JUMPI PUSH1 0x0 MSTORE PUSH1 0x20 PUSH1 0x0 KECCAK256 ADD SWAP1 PUSH1 0x0 SWAP1 JUMP JUMPDEST PUSH1 0x80 DUP2 ADD SWAP1 DUP2 LT PUSH8 0xFFFFFFFFFFFFFFFF DUP3 GT OR PUSH2 0x1518 JUMPI PUSH1 0x40 MSTORE JUMP JUMPDEST PUSH4 0x4E487B71 PUSH1 0xE0 SHL PUSH1 0x0 MSTORE PUSH1 0x41 PUSH1 0x4 MSTORE PUSH1 0x24 PUSH1 0x0 REVERT JUMPDEST SWAP1 PUSH1 0x1F DUP1 NOT SWAP2 ADD AND DUP2 ADD SWAP1 DUP2 LT PUSH8 0xFFFFFFFFFFFFFFFF DUP3 GT OR PUSH2 0x1518 JUMPI PUSH1 0x40 MSTORE JUMP JUMPDEST MLOAD SWAP1 PUSH1 0x1 PUSH1 0x1 PUSH1 0xA0 SHL SUB DUP3 AND DUP3 SUB PUSH2 0x16D JUMPI JUMP JUMPDEST PUSH8 0xFFFFFFFFFFFFFFFF DUP2 GT PUSH2 0x1518 JUMPI PUSH1 0x1F ADD PUSH1 0x1F NOT AND PUSH1 0x20 ADD SWAP1 JUMP JUMPDEST PUSH1 0x0 JUMPDEST DUP4 DUP2 LT PUSH2 0x1593 JUMPI POP POP PUSH1 0x0 SWAP2 ADD MSTORE JUMP JUMPDEST DUP2 DUP2 ADD MLOAD DUP4 DUP3 ADD MSTORE PUSH1 0x20 ADD PUSH2 0x1583 JUMP JUMPDEST DUP2 PUSH1 0x1F DUP3 ADD SLT ISZERO PUSH2 0x16D JUMPI DUP1 MLOAD PUSH2 0x15B9 DUP2 PUSH2 0x1564 JUMP JUMPDEST SWAP3 PUSH2 0x15C7 PUSH1 0x40 MLOAD SWAP5 DUP6 PUSH2 0x152E JUMP JUMPDEST DUP2 DUP5 MSTORE PUSH1 0x20 DUP3 DUP5 ADD ADD GT PUSH2 0x16D JUMPI PUSH2 0x15E5 SWAP2 PUSH1 0x20 DUP1 DUP6 ADD SWAP2 ADD PUSH2 0x1580 JUMP JUMPDEST SWAP1 JUMP JUMPDEST PUSH1 0x0 NOT DUP2 EQ PUSH2 0x4A0 JUMPI PUSH1 0x1 ADD SWAP1 JUMP JUMPDEST ISZERO PUSH2 0x15FE JUMPI JUMP JUMPDEST PUSH1 0x40 MLOAD PUSH3 0x461BCD PUSH1 0xE5 SHL DUP2 MSTORE PUSH1 0x20 PUSH1 0x4 DUP3 ADD MSTORE PUSH1 0x1B PUSH1 0x24 DUP3 ADD MSTORE PUSH32 0x446973747269627574696F6E20646F6573206E6F742065786973740000000000 PUSH1 0x44 DUP3 ADD MSTORE PUSH1 0x64 SWAP1 REVERT JUMPDEST SWAP2 SWAP1 DUP3 SUB SWAP2 DUP3 GT PUSH2 0x4A0 JUMPI JUMP JUMPDEST RETURNDATASIZE ISZERO PUSH2 0x167B JUMPI RETURNDATASIZE SWAP1 PUSH2 0x1661 DUP3 PUSH2 0x1564 JUMP JUMPDEST SWAP2 PUSH2 0x166F PUSH1 0x40 MLOAD SWAP4 DUP5 PUSH2 0x152E JUMP JUMPDEST DUP3 MSTORE RETURNDATASIZE PUSH1 0x0 PUSH1 0x20 DUP5 ADD RETURNDATACOPY JUMP JUMPDEST PUSH1 0x60 SWAP1 JUMP JUMPDEST DUP2 SELFBALANCE LT PUSH2 0x16E7 JUMPI PUSH1 0x0 SWAP2 DUP3 SWAP2 DUP3 SWAP2 DUP3 SWAP2 PUSH1 0x1 PUSH1 0x1 PUSH1 0xA0 SHL SUB AND GAS CALL PUSH2 0x16A3 PUSH2 0x1650 JUMP JUMPDEST POP ISZERO PUSH2 0x16AB JUMPI JUMP JUMPDEST PUSH1 0x40 MLOAD PUSH3 0x461BCD PUSH1 0xE5 SHL DUP2 MSTORE PUSH1 0x20 PUSH1 0x4 DUP3 ADD MSTORE PUSH1 0x14 PUSH1 0x24 DUP3 ADD MSTORE PUSH20 0x12109054881D1C985B9CD9995C8819985A5B1959 PUSH1 0x62 SHL PUSH1 0x44 DUP3 ADD MSTORE PUSH1 0x64 SWAP1 REVERT JUMPDEST PUSH1 0x40 MLOAD PUSH3 0x461BCD PUSH1 0xE5 SHL DUP2 MSTORE PUSH1 0x20 PUSH1 0x4 DUP3 ADD MSTORE PUSH1 0x1D PUSH1 0x24 DUP3 ADD MSTORE PUSH32 0x496E73756666696369656E7420636F6E74726163742062616C616E6365000000 PUSH1 0x44 DUP3 ADD MSTORE PUSH1 0x64 SWAP1 REVERT JUMPDEST CALLER PUSH1 0x0 SWAP1 DUP2 MSTORE PUSH32 0x37775ADB12013835CE20D78B1C52193DD1DA3DC792BC1EC9A2D7427221516C8A PUSH1 0x20 SWAP1 DUP2 MSTORE PUSH1 0x40 DUP1 DUP4 KECCAK256 SLOAD SWAP1 SWAP3 SWAP2 SWAP1 PUSH32 0xFBD454F36A7E1A388BD6FC3AB10D434AA4578F811ACBBCF33AFB1C697486313C SWAP1 PUSH1 0xFF AND ISZERO PUSH2 0x1792 JUMPI POP POP POP POP JUMP JUMPDEST PUSH2 0x179B CALLER PUSH2 0x1AD7 JUMP JUMPDEST SWAP1 DUP5 MLOAD SWAP1 PUSH2 0x17A8 DUP3 PUSH2 0x14FC JUMP JUMPDEST PUSH1 0x42 DUP3 MSTORE DUP4 DUP3 ADD SWAP5 PUSH1 0x60 CALLDATASIZE DUP8 CALLDATACOPY DUP3 MLOAD ISZERO PUSH2 0x1913 JUMPI PUSH1 0x30 DUP7 MSTORE8 DUP3 MLOAD SWAP1 PUSH1 0x1 SWAP2 DUP3 LT ISZERO PUSH2 0x1913 JUMPI SWAP1 PUSH1 0x78 PUSH1 0x21 DUP6 ADD MSTORE8 PUSH1 0x41 SWAP2 JUMPDEST DUP2 DUP4 GT PUSH2 0x18A5 JUMPI POP POP POP PUSH2 0x1863 JUMPI DUP5 PUSH2 0x183F PUSH1 0x48 PUSH2 0x40B SWAP4 PUSH1 0x44 SWAP8 SWAP9 MLOAD SWAP9 DUP10 SWAP2 PUSH2 0x1830 DUP10 DUP5 ADD SWAP9 PUSH23 0x20B1B1B2B9B9A1B7B73A3937B61D1030B1B1B7BAB73A1 PUSH1 0x4D SHL DUP11 MSTORE PUSH2 0x3AA DUP2 MLOAD DUP1 SWAP3 DUP14 PUSH1 0x37 DUP10 ADD SWAP2 ADD PUSH2 0x1580 JUMP JUMPDEST ADD SUB PUSH1 0x28 DUP2 ADD DUP10 MSTORE ADD DUP8 PUSH2 0x152E JUMP JUMPDEST MLOAD SWAP5 DUP6 SWAP4 PUSH3 0x461BCD PUSH1 0xE5 SHL DUP6 MSTORE PUSH1 0x4 DUP6 ADD MSTORE MLOAD DUP1 SWAP3 DUP2 PUSH1 0x24 DUP7 ADD MSTORE DUP6 DUP6 ADD SWAP1 PUSH2 0x1580 JUMP JUMPDEST PUSH1 0x64 DUP4 DUP7 MLOAD SWAP1 PUSH3 0x461BCD PUSH1 0xE5 SHL DUP3 MSTORE DUP1 PUSH1 0x4 DUP4 ADD MSTORE PUSH1 0x24 DUP3 ADD MSTORE PUSH32 0x537472696E67733A20686578206C656E67746820696E73756666696369656E74 PUSH1 0x44 DUP3 ADD MSTORE REVERT JUMPDEST SWAP1 SWAP2 SWAP3 PUSH1 0xF DUP2 AND PUSH1 0x10 DUP2 LT ISZERO PUSH2 0x18FF JUMPI PUSH16 0x181899199A1A9B1B9C1CB0B131B232B3 PUSH1 0x81 SHL SWAP1 BYTE PUSH2 0x18D5 DUP6 DUP8 PUSH2 0x1AC6 JUMP JUMPDEST MSTORE8 PUSH1 0x4 SHR SWAP3 DUP1 ISZERO PUSH2 0x18EB JUMPI PUSH1 0x0 NOT ADD SWAP2 SWAP1 PUSH2 0x17D9 JUMP JUMPDEST PUSH4 0x4E487B71 PUSH1 0xE0 SHL DUP3 MSTORE PUSH1 0x11 PUSH1 0x4 MSTORE PUSH1 0x24 DUP3 REVERT JUMPDEST PUSH4 0x4E487B71 PUSH1 0xE0 SHL DUP4 MSTORE PUSH1 0x32 PUSH1 0x4 MSTORE PUSH1 0x24 DUP4 REVERT JUMPDEST PUSH4 0x4E487B71 PUSH1 0xE0 SHL DUP2 MSTORE PUSH1 0x32 PUSH1 0x4 MSTORE PUSH1 0x24 SWAP1 REVERT JUMPDEST PUSH1 0x0 DUP2 DUP2 MSTORE PUSH1 0x20 DUP2 DUP2 MSTORE PUSH1 0x40 SWAP3 DUP4 DUP4 KECCAK256 CALLER DUP5 MSTORE DUP3 MSTORE PUSH1 0xFF DUP5 DUP5 KECCAK256 SLOAD AND ISZERO PUSH2 0x194E JUMPI POP POP POP POP JUMP JUMPDEST PUSH2 0x1957 CALLER PUSH2 0x1AD7 JUMP JUMPDEST SWAP1 DUP5 MLOAD SWAP1 PUSH2 0x1964 DUP3 PUSH2 0x14FC JUMP JUMPDEST PUSH1 0x42 DUP3 MSTORE DUP4 DUP3 ADD SWAP5 PUSH1 0x60 CALLDATASIZE DUP8 CALLDATACOPY DUP3 MLOAD ISZERO PUSH2 0x1913 JUMPI PUSH1 0x30 DUP7 MSTORE8 DUP3 MLOAD SWAP1 PUSH1 0x1 SWAP2 DUP3 LT ISZERO PUSH2 0x1913 JUMPI SWAP1 PUSH1 0x78 PUSH1 0x21 DUP6 ADD MSTORE8 PUSH1 0x41 SWAP2 JUMPDEST DUP2 DUP4 GT PUSH2 0x19EC JUMPI POP POP POP PUSH2 0x1863 JUMPI DUP5 PUSH2 0x183F PUSH1 0x48 PUSH2 0x40B SWAP4 PUSH1 0x44 SWAP8 SWAP9 MLOAD SWAP9 DUP10 SWAP2 PUSH2 0x1830 DUP10 DUP5 ADD SWAP9 PUSH23 0x20B1B1B2B9B9A1B7B73A3937B61D1030B1B1B7BAB73A1 PUSH1 0x4D SHL DUP11 MSTORE PUSH2 0x3AA DUP2 MLOAD DUP1 SWAP3 DUP14 PUSH1 0x37 DUP10 ADD SWAP2 ADD PUSH2 0x1580 JUMP JUMPDEST SWAP1 SWAP2 SWAP3 PUSH1 0xF DUP2 AND PUSH1 0x10 DUP2 LT ISZERO PUSH2 0x18FF JUMPI PUSH16 0x181899199A1A9B1B9C1CB0B131B232B3 PUSH1 0x81 SHL SWAP1 BYTE PUSH2 0x1A1C DUP6 DUP8 PUSH2 0x1AC6 JUMP JUMPDEST MSTORE8 PUSH1 0x4 SHR SWAP3 DUP1 ISZERO PUSH2 0x18EB JUMPI PUSH1 0x0 NOT ADD SWAP2 SWAP1 PUSH2 0x1995 JUMP JUMPDEST SWAP1 PUSH1 0x0 SWAP2 DUP1 DUP4 MSTORE DUP3 PUSH1 0x20 MSTORE PUSH1 0x40 DUP4 KECCAK256 SWAP2 PUSH1 0x1 DUP1 PUSH1 0xA0 SHL SUB AND SWAP2 DUP3 DUP5 MSTORE PUSH1 0x20 MSTORE PUSH1 0xFF PUSH1 0x40 DUP5 KECCAK256 SLOAD AND PUSH2 0x1A62 JUMPI POP POP POP JUMP JUMPDEST DUP1 DUP4 MSTORE DUP3 PUSH1 0x20 MSTORE PUSH1 0x40 DUP4 KECCAK256 DUP3 DUP5 MSTORE PUSH1 0x20 MSTORE PUSH1 0x40 DUP4 KECCAK256 PUSH1 0xFF NOT DUP2 SLOAD AND SWAP1 SSTORE PUSH32 0xF6391F5C32D9C69D2A47EA670B442974B53935D1EDC7FD64EB21E047A839171B CALLER SWAP4 DUP1 LOG4 JUMP JUMPDEST DUP2 DUP2 MUL SWAP3 SWAP2 DUP2 ISZERO SWAP2 DUP5 DIV EQ OR ISZERO PUSH2 0x4A0 JUMPI JUMP JUMPDEST SWAP2 SWAP1 DUP3 ADD DUP1 SWAP3 GT PUSH2 0x4A0 JUMPI JUMP JUMPDEST SWAP1 DUP2 MLOAD DUP2 LT ISZERO PUSH2 0x4B6 JUMPI ADD PUSH1 0x20 ADD SWAP1 JUMP JUMPDEST PUSH1 0x40 MLOAD SWAP1 PUSH1 0x60 DUP3 ADD DUP3 DUP2 LT PUSH8 0xFFFFFFFFFFFFFFFF DUP3 GT OR PUSH2 0x1518 JUMPI PUSH1 0x40 MSTORE PUSH1 0x2A DUP3 MSTORE PUSH1 0x20 DUP3 ADD PUSH1 0x40 CALLDATASIZE DUP3 CALLDATACOPY DUP3 MLOAD ISZERO PUSH2 0x4B6 JUMPI PUSH1 0x30 SWAP1 MSTORE8 DUP2 MLOAD PUSH1 0x1 SWAP1 DUP2 LT ISZERO PUSH2 0x4B6 JUMPI PUSH1 0x78 PUSH1 0x21 DUP5 ADD MSTORE8 PUSH1 0x29 SWAP1 JUMPDEST DUP1 DUP3 GT PUSH2 0x1B78 JUMPI POP POP PUSH2 0x1B34 JUMPI SWAP1 JUMP JUMPDEST PUSH1 0x64 PUSH1 0x40 MLOAD PUSH3 0x461BCD PUSH1 0xE5 SHL DUP2 MSTORE PUSH1 0x20 PUSH1 0x4 DUP3 ADD MSTORE PUSH1 0x20 PUSH1 0x24 DUP3 ADD MSTORE PUSH32 0x537472696E67733A20686578206C656E67746820696E73756666696369656E74 PUSH1 0x44 DUP3 ADD MSTORE REVERT JUMPDEST SWAP1 SWAP2 PUSH1 0xF DUP2 AND PUSH1 0x10 DUP2 LT ISZERO PUSH2 0x1BD1 JUMPI PUSH16 0x181899199A1A9B1B9C1CB0B131B232B3 PUSH1 0x81 SHL SWAP1 BYTE PUSH2 0x1BA7 DUP5 DUP7 PUSH2 0x1AC6 JUMP JUMPDEST MSTORE8 PUSH1 0x4 SHR SWAP2 DUP1 ISZERO PUSH2 0x1BBC JUMPI PUSH1 0x0 NOT ADD SWAP1 PUSH2 0x1B24 JUMP JUMPDEST PUSH1 0x24 PUSH1 0x0 PUSH4 0x4E487B71 PUSH1 0xE0 SHL DUP2 MSTORE PUSH1 0x11 PUSH1 0x4 MSTORE REVERT JUMPDEST PUSH1 0x24 PUSH1 0x0 PUSH4 0x4E487B71 PUSH1 0xE0 SHL DUP2 MSTORE PUSH1 0x32 PUSH1 0x4 MSTORE REVERT JUMPDEST PUSH1 0x2 PUSH1 0x1 SLOAD EQ PUSH2 0x1BF7 JUMPI PUSH1 0x2 PUSH1 0x1 SSTORE JUMP JUMPDEST PUSH1 0x40 MLOAD PUSH3 0x461BCD PUSH1 0xE5 SHL DUP2 MSTORE PUSH1 0x20 PUSH1 0x4 DUP3 ADD MSTORE PUSH1 0x1F PUSH1 0x24 DUP3 ADD MSTORE PUSH32 0x5265656E7472616E637947756172643A207265656E7472616E742063616C6C00 PUSH1 0x44 DUP3 ADD MSTORE PUSH1 0x64 SWAP1 REVERT INVALID LOG2 PUSH5 0x6970667358 0x22 SLT KECCAK256 0xBE 0x28 SELFBALANCE DELEGATECALL BALANCE 0x5F 0xFB 0x4E 0xB0 PUSH26 0x278B833242DD47EBC84A5158D633CD5838E21F5FC66F64736F6C PUSH4 0x43000813 STOP CALLER 0x2F DUP8 DUP9 GT PUSH31 0x7EFF1D82E926EC794901D17C78024A50270940304540A733656F0D00000000 "},"methodIdentifiers":{"BASIS_POINTS()":"e1f1c4a7","DEFAULT_ADMIN_ROLE()":"a217fddf","DISTRIBUTOR_ROLE()":"f0bd87cc","MAX_HOLDERS_PER_BATCH()":"87d2d0ca","PROPERTY_MANAGER_ROLE()":"47e64656","claimDividends(address)":"c7e772ed","createDistribution(address,uint256)":"9d6a261a","distributions(uint256)":"4487d3df","emergencyWithdraw()":"db2e21bc","getDistribution(uint256)":"3b345a87","getPendingDividends(address,address)":"806b7e22","getRoleAdmin(bytes32)":"248a9ca3","getTokenDistributions(address)":"6ecf8c8e","getTotalDistributed(address)":"964265e2","grantRole(bytes32,address)":"2f2ff15d","hasRole(bytes32,address)":"91d14854","nextDistributionId()":"795be4b9","pendingDividends(address,address)":"8f331f15","processBatchDistribution(uint256,uint256)":"6298c37b","propertyTokenContract()":"e71f5dac","renounceRole(bytes32,address)":"36568abe","revokeRole(bytes32,address)":"d547741f","tokenDistributions(address,uint256)":"f08a7357","totalDistributed(address)":"8b8dfa39"}}}}}