{"contracts/PropertyToken.sol":{"PropertyToken":{"abi":[{"inputs":[],"stateMutability":"nonpayable","type":"constructor"},{"anonymous":false,"inputs":[{"indexed":true,"internalType":"address","name":"tokenAddress","type":"address"},{"indexed":false,"internalType":"string","name":"metadataURI","type":"string"},{"indexed":false,"internalType":"uint256","name":"timestamp","type":"uint256"}],"name":"PropertyMetadataUpdated","type":"event"},{"anonymous":false,"inputs":[{"indexed":true,"internalType":"address","name":"tokenAddress","type":"address"},{"indexed":false,"internalType":"enum IPropertyToken.PropertyStatus","name":"oldStatus","type":"uint8"},{"indexed":false,"internalType":"enum IPropertyToken.PropertyStatus","name":"newStatus","type":"uint8"}],"name":"PropertyStatusUpdated","type":"event"},{"anonymous":false,"inputs":[{"indexed":true,"internalType":"address","name":"tokenAddress","type":"address"},{"indexed":true,"internalType":"string","name":"propertyId","type":"string"},{"indexed":false,"internalType":"string","name":"name","type":"string"},{"indexed":false,"internalType":"uint256","name":"totalSupply","type":"uint256"},{"indexed":true,"internalType":"address","name":"propertyManager","type":"address"}],"name":"PropertyTokenCreated","type":"event"},{"anonymous":false,"inputs":[{"indexed":true,"internalType":"bytes32","name":"role","type":"bytes32"},{"indexed":true,"internalType":"bytes32","name":"previousAdminRole","type":"bytes32"},{"indexed":true,"internalType":"bytes32","name":"newAdminRole","type":"bytes32"}],"name":"RoleAdminChanged","type":"event"},{"anonymous":false,"inputs":[{"indexed":true,"internalType":"bytes32","name":"role","type":"bytes32"},{"indexed":true,"internalType":"address","name":"account","type":"address"},{"indexed":true,"internalType":"address","name":"sender","type":"address"}],"name":"RoleGranted","type":"event"},{"anonymous":false,"inputs":[{"indexed":true,"internalType":"bytes32","name":"role","type":"bytes32"},{"indexed":true,"internalType":"address","name":"account","type":"address"},{"indexed":true,"internalType":"address","name":"sender","type":"address"}],"name":"RoleRevoked","type":"event"},{"anonymous":false,"inputs":[{"indexed":true,"internalType":"address","name":"tokenAddress","type":"address"},{"indexed":true,"internalType":"address","name":"from","type":"address"},{"indexed":true,"internalType":"address","name":"to","type":"address"},{"indexed":false,"internalType":"uint256","name":"amount","type":"uint256"}],"name":"TokensTransferred","type":"event"},{"inputs":[],"name":"DEFAULT_ADMIN_ROLE","outputs":[{"internalType":"bytes32","name":"","type":"bytes32"}],"stateMutability":"view","type":"function"},{"inputs":[],"name":"PROPERTY_MANAGER_ROLE","outputs":[{"internalType":"bytes32","name":"","type":"bytes32"}],"stateMutability":"view","type":"function"},{"inputs":[],"name":"TOKENIZER_ROLE","outputs":[{"internalType":"bytes32","name":"","type":"bytes32"}],"stateMutability":"view","type":"function"},{"inputs":[{"internalType":"uint256","name":"","type":"uint256"}],"name":"allTokens","outputs":[{"internalType":"address","name":"","type":"address"}],"stateMutability":"view","type":"function"},{"inputs":[{"internalType":"string","name":"propertyId","type":"string"},{"internalType":"string","name":"name","type":"string"},{"internalType":"string","name":"symbol","type":"string"},{"internalType":"uint256","name":"totalSupply","type":"uint256"},{"internalType":"uint256","name":"pricePerToken","type":"uint256"},{"internalType":"address","name":"propertyManager","type":"address"},{"internalType":"uint256","name":"managementFeePercent","type":"uint256"},{"internalType":"string","name":"metadataURI","type":"string"},{"internalType":"enum IPropertyToken.PropertyType","name":"propertyType","type":"uint8"}],"name":"createPropertyToken","outputs":[{"internalType":"address","name":"","type":"address"}],"stateMutability":"nonpayable","type":"function"},{"inputs":[{"internalType":"address","name":"tokenAddress","type":"address"},{"internalType":"address","name":"investor","type":"address"}],"name":"getInvestorBalance","outputs":[{"internalType":"uint256","name":"","type":"uint256"}],"stateMutability":"view","type":"function"},{"inputs":[{"internalType":"address","name":"manager","type":"address"}],"name":"getManagerProperties","outputs":[{"internalType":"address[]","name":"","type":"address[]"}],"stateMutability":"view","type":"function"},{"inputs":[{"internalType":"address","name":"tokenAddress","type":"address"}],"name":"getPropertyMetadata","outputs":[{"components":[{"internalType":"string","name":"location","type":"string"},{"internalType":"uint256","name":"valuation","type":"uint256"},{"internalType":"uint256","name":"expectedYield","type":"uint256"},{"internalType":"string[]","name":"documentHashes","type":"string[]"},{"internalType":"uint256","name":"lastUpdated","type":"uint256"}],"internalType":"struct IPropertyToken.PropertyMetadata","name":"","type":"tuple"}],"stateMutability":"view","type":"function"},{"inputs":[{"internalType":"address","name":"tokenAddress","type":"address"}],"name":"getPropertyToken","outputs":[{"components":[{"internalType":"address","name":"tokenAddress","type":"address"},{"internalType":"string","name":"propertyId","type":"string"},{"internalType":"string","name":"name","type":"string"},{"internalType":"string","name":"symbol","type":"string"},{"internalType":"uint256","name":"totalSupply","type":"uint256"},{"internalType":"uint256","name":"pricePerToken","type":"uint256"},{"internalType":"address","name":"propertyManager","type":"address"},{"internalType":"uint256","name":"managementFeePercent","type":"uint256"},{"internalType":"bool","name":"isActive","type":"bool"},{"internalType":"string","name":"metadataURI","type":"string"},{"internalType":"uint256","name":"createdAt","type":"uint256"},{"internalType":"enum IPropertyToken.PropertyType","name":"propertyType","type":"uint8"},{"internalType":"enum IPropertyToken.PropertyStatus","name":"status","type":"uint8"}],"internalType":"struct IPropertyToken.PropertyTokenInfo","name":"","type":"tuple"}],"stateMutability":"view","type":"function"},{"inputs":[{"internalType":"bytes32","name":"role","type":"bytes32"}],"name":"getRoleAdmin","outputs":[{"internalType":"bytes32","name":"","type":"bytes32"}],"stateMutability":"view","type":"function"},{"inputs":[{"internalType":"uint256","name":"index","type":"uint256"}],"name":"getTokenByIndex","outputs":[{"internalType":"address","name":"","type":"address"}],"stateMutability":"view","type":"function"},{"inputs":[{"internalType":"string","name":"propertyId","type":"string"}],"name":"getTokenByPropertyId","outputs":[{"internalType":"address","name":"","type":"address"}],"stateMutability":"view","type":"function"},{"inputs":[],"name":"getTotalTokens","outputs":[{"internalType":"uint256","name":"","type":"uint256"}],"stateMutability":"view","type":"function"},{"inputs":[{"internalType":"bytes32","name":"role","type":"bytes32"},{"internalType":"address","name":"account","type":"address"}],"name":"grantRole","outputs":[],"stateMutability":"nonpayable","type":"function"},{"inputs":[{"internalType":"bytes32","name":"role","type":"bytes32"},{"internalType":"address","name":"account","type":"address"}],"name":"hasRole","outputs":[{"internalType":"bool","name":"","type":"bool"}],"stateMutability":"view","type":"function"},{"inputs":[{"internalType":"address","name":"","type":"address"},{"internalType":"address","name":"","type":"address"}],"name":"investorBalances","outputs":[{"internalType":"uint256","name":"","type":"uint256"}],"stateMutability":"view","type":"function"},{"inputs":[{"internalType":"address","name":"","type":"address"},{"internalType":"uint256","name":"","type":"uint256"}],"name":"managerProperties","outputs":[{"internalType":"address","name":"","type":"address"}],"stateMutability":"view","type":"function"},{"inputs":[{"internalType":"string","name":"","type":"string"}],"name":"propertyIdToToken","outputs":[{"internalType":"address","name":"","type":"address"}],"stateMutability":"view","type":"function"},{"inputs":[{"internalType":"address","name":"","type":"address"}],"name":"propertyMetadata","outputs":[{"internalType":"string","name":"location","type":"string"},{"internalType":"uint256","name":"valuation","type":"uint256"},{"internalType":"uint256","name":"expectedYield","type":"uint256"},{"internalType":"uint256","name":"lastUpdated","type":"uint256"}],"stateMutability":"view","type":"function"},{"inputs":[{"internalType":"address","name":"","type":"address"}],"name":"propertyTokens","outputs":[{"internalType":"address","name":"tokenAddress","type":"address"},{"internalType":"string","name":"propertyId","type":"string"},{"internalType":"string","name":"name","type":"string"},{"internalType":"string","name":"symbol","type":"string"},{"internalType":"uint256","name":"totalSupply","type":"uint256"},{"internalType":"uint256","name":"pricePerToken","type":"uint256"},{"internalType":"address","name":"propertyManager","type":"address"},{"internalType":"uint256","name":"managementFeePercent","type":"uint256"},{"internalType":"bool","name":"isActive","type":"bool"},{"internalType":"string","name":"metadataURI","type":"string"},{"internalType":"uint256","name":"createdAt","type":"uint256"},{"internalType":"enum IPropertyToken.PropertyType","name":"propertyType","type":"uint8"},{"internalType":"enum IPropertyToken.PropertyStatus","name":"status","type":"uint8"}],"stateMutability":"view","type":"function"},{"inputs":[{"internalType":"bytes32","name":"role","type":"bytes32"},{"internalType":"address","name":"account","type":"address"}],"name":"renounceRole","outputs":[],"stateMutability":"nonpayable","type":"function"},{"inputs":[{"internalType":"bytes32","name":"role","type":"bytes32"},{"internalType":"address","name":"account","type":"address"}],"name":"revokeRole","outputs":[],"stateMutability":"nonpayable","type":"function"},{"inputs":[{"internalType":"address","name":"tokenAddress","type":"address"},{"internalType":"address","name":"from","type":"address"},{"internalType":"address","name":"to","type":"address"},{"internalType":"uint256","name":"amount","type":"uint256"}],"name":"transferTokens","outputs":[],"stateMutability":"nonpayable","type":"function"},{"inputs":[{"internalType":"address","name":"tokenAddress","type":"address"},{"internalType":"string","name":"location","type":"string"},{"internalType":"uint256","name":"valuation","type":"uint256"},{"internalType":"uint256","name":"expectedYield","type":"uint256"},{"internalType":"string[]","name":"documentHashes","type":"string[]"},{"internalType":"string","name":"metadataURI","type":"string"}],"name":"updatePropertyMetadata","outputs":[],"stateMutability":"nonpayable","type":"function"},{"inputs":[{"internalType":"address","name":"tokenAddress","type":"address"},{"internalType":"enum IPropertyToken.PropertyStatus","name":"newStatus","type":"uint8"}],"name":"updatePropertyStatus","outputs":[],"stateMutability":"nonpayable","type":"function"}],"evm":{"bytecode":{"linkReferences":{},"object":"6080604081815234620000ef57600180556000808052602091818352808220338352835260ff818320541615620000b7575b7fe70d28ebd9d7d9a3dd77d46ae2481f301c80806f395b08de31d8e095b1c46cee92838352828152818320338452815260ff8284205416156200007c575b612d398581620000f58239f35b83835282815281832090338452528120600160ff19825416179055339160008051602062002e2e833981519152339280a4388080806200006f565b8180528183528082203383528352808220600160ff1982541617905533338360008051602062002e2e8339815191528180a462000031565b600080fdfe608080604052600436101561001357600080fd5b60003560e01c9081630605a334146126385750806313370e441461059257806320d15be1146125df578063248a9ca3146125b05780632f2ff15d146124fd57806336568abe1461246b57806347e6465614612430578063634282af14612407578063644b7a431461238a57806368155ec1146120c5578063718e120b146107ed578063771351fd14611aa6578063829b7c89146119f357806391d14854146119a6578063a217fddf1461198a578063ab9b8c871461098a578063b14bda5914610855578063b56a6b14146107ed578063c127f5f514610778578063c707dd2d14610624578063d547741f146105e3578063dac796bb14610592578063f08b82e614610574578063f5b94e1e146103cd5763fc874ba61461013257600080fd5b346103c85760203660031901126103c85761014b612671565b600061018060405161015c81612707565b82815260606020820152606060408201526060808201528260808201528260a08201528260c08201528260e08201528261010082015260606101208201528261014082015282610160820152015260018060a01b03168060005260026020526101cf60ff60086040600020015416612968565b60005260026020526040600020600b604051916101eb83612707565b80546001600160a01b031683526102046001820161285f565b60208401526102156002820161285f565b60408401526102266003820161285f565b606084015260048101546080840152600581015460a084015260068101546001600160a01b031660c0840152600781015460e0840152600881015460ff1615156101008401526102786009820161285f565b610120840152600a8101546101408401520154600660ff821610156103b25760ff8116610160830152600560ff8260081c1610156103b25760ff9060081c1661018082015260405180916020825260018060a01b0381511660208301526103ae61018061038261032b6103156102ff60208701516101a060408a01526101c0890190612905565b6040870151888203601f190160608a0152612905565b6060860151878203601f19016080890152612905565b608085015160a087015260a085015160c087015260018060a01b0360c08601511660e087015260e08501516101008701526101008501511515610120870152610120850151601f1987830301610140880152612905565b926101408101516101608601526103a16101608201518387019061292a565b01516101a0840190612937565b0390f35b634e487b7160e01b600052602160045260246000fd5b600080fd5b346103c8576020806003193601126103c8576103e7612671565b600060806040516103f7816126ec565b606081528285820152826040820152606080820152015260018060a01b0316806000526002825261043260ff60086040600020015416612968565b600052600381526040600020906040519061044c826126ec565b6104558361285f565b825260019283810154918084019283526002820154916040850192835260038101908154876104838261280e565b936104916040519586612774565b82855260009081528581208686015b84831061055357505050505060049060608701928352015492608086019384526104db604051968488525160a08589015260c0880190612905565b945160408701525160608601525192601f19918286830301608087015284519182815281810182808560051b8401019701946000925b85841061052557875160a08b01528989038af35b90919293949597858061054283868f958790030188528c51612905565b9a0194019401929594939190610511565b83888192610563859d9b9d61285f565b8152019201920191909896986104a0565b346103c85760003660031901126103c8576020600754604051908152f35b346103c85760403660031901126103c8576105ab612671565b6105b3612687565b9060018060a01b038091166000526004602052604060002091166000526020526020604060002054604051908152f35b346103c85760403660031901126103c857610622600435610602612687565b9080600052600060205261061d6001604060002001546129ab565b612b5e565b005b346103c85760403660031901126103c85761063d612671565b60243560058110156103c85760018060a01b0380921691826000526020906002825261067360ff60086040600020015416612968565b7f5aa58c694aeb083df8754bf5e98675317e4137a5a8a2c6188d0228869e43da7e60005260008252604060002033600052825260ff6040600020541690811561075b575b50156107265760ff6107237f7aaa081cd562023d4ad09d4686e390ce99c50431cf77da61ea3ad3f0c7bfb67293604093866000526002815261071b600b866000200180549061ff008560081b1661ff00198316179055865195869160081c16612937565b830190612937565ba2005b6064906040519062461bcd60e51b82526004820152600e60248201526d139bdd08185d5d1a1bdc9a5e995960921b6044820152fd5b9050836000526002825233906006604060002001541614846106b7565b346103c85760203660031901126103c8576001600160a01b03610799612671565b1660005260036020526107d960406000206107b38161285f565b906001810154906004600282015491015490604051948594608086526080860190612905565b926020850152604084015260608301520390f35b346103c85760203660031901126103c8576004356001600160401b0381116103c85761081f6020913690600401612795565b8161083360405192838151938492016127eb565b600690820190815281900382019020546040516001600160a01b039091168152f35b346103c85760203660031901126103c8576001600160a01b0380610877612671565b16600052600260205260406000208181541690600181016108979061285f565b926108a46002830161285f565b906108b16003840161285f565b90600484015490600585015490600686015416600786015490600887015460ff1692600988016108e09061285f565b95600a89015498600b0154976040519b8c9b8c528b6101a06020819201528c0161090991612905565b8b810360408d015261091a91612905565b8a810360608c015261092b91612905565b9460808a015260a089015260c088015260e0870152151561010086015284810361012086015261095a91612905565b91610140840152610160830160ff8216906109749161292a565b61018083019060081c60ff16906103ae91612937565b346103c8576101203660031901126103c8576004356001600160401b0381116103c8576109bb903690600401612795565b6024356001600160401b0381116103c8576109da903690600401612795565b6044356001600160401b0381116103c8576109f9903690600401612795565b9060a4356001600160a01b03811681036103c85760e4356001600160401b0381116103c857610a2c903690600401612795565b9260066101043510156103c8573360009081527fd794e082c83af78a2a6a572f4231a899bef773ee0851bd2fa0fde1ff322f1c7d602052604090205460ff16156117be57610a78612cad565b8451156117795782511561173d578051156116ff57606435156116ae576084351561165a576001600160a01b03821615611616576107d060c435116115d2576040518551610aca818360208a016127eb565b60069082019081528190036020019020546001600160a01b031661158d5760405193846101208101106001600160401b036101208701111761116457610120850160405260608552606060208601526000604086015260608086015260006080860152600060a0860152600060c0860152606060e08601526040518060608101106001600160401b036060830111176111645760608101604052600081526000602082015260006040820152610100860152838552816020860152306040860152604051610b9781612723565b601981527f476c6f62616c4c616e642050726f706572747920546f6b656e00000000000000602082015260608601526001608086015260643560070b60a0860152600060c0860152604051610beb81612723565b6001815260005b602081106115545750610c5590604051610c0b816126ec565b6001815260006020820152306040820152604051610c288161273e565b600081526060820152604051610c3d8161273e565b600081526080820152610c4f8261295b565b5261295b565b50604051946393cce57160e01b86526060600487015285610cc9610ca0610c8a845161016060648601526101c4850190612905565b6020850151848203606319016084860152612905565b60408401516001600160a01b031660a484015260608401518382036063190160c4850152612905565b6080830151151560e483015260a083015160070b61010483015260c0830151151561012483015260e08301519060631983820301610144840152815180825260208201916020808360051b8301019401926000915b8383106114da5750505050508190604061010081950151805160070b61016485015260018060a01b03602082015116610184850152015160070b6101a4830152606435602483015260006044830152038160006101675af19485156114ce57600090600096611482575b50601603611445576001600160a01b038516600081815260026020526040902080546001600160a01b031916909117815586519092906001600160401b03811161116457610dd96001850154612825565b601f8111611410575b50806020601f82116001146113a257600091611397575b508160011b916000199060031b1c19161760018401555b84516001600160401b03811161116457610e2d6002850154612825565b601f8111611362575b50806020601f82116001146112f5576000916112ea575b508160011b916000199060031b1c19161760028401555b8051906001600160401b038211611164578190610e846003860154612825565b601f81116112b5575b50602090601f831160011461124357600092611238575b50508160011b916000199060031b1c19161760038301555b606435600483015560843560058301556006820180546001600160a01b0319166001600160a01b03851617905560c435600783015560088201805460ff191660011790558051906001600160401b03821161116457610f1e6009840154612825565b601f81116111f8575b50602090601f831160011461118557600b9392916000918361117a575b50508160011b916000199060031b1c19161760098201555b42600a82015501805460ff61010435169061ffff19161790556040516020818651610f8a8183858b016127eb565b60069082019081520301902080546001600160a01b0319166001600160a01b0385811691909117909155811660009081526005602052604090208054600160401b81101561116457610fe1916001820181556126d4565b81546001600160a01b0386811660039390931b92831b921b1916179055600754600160401b8110156111645760209461102382600161109c940160075561269d565b81546001600160a01b0360039290921b82811b1990911688831690911b179091557f5aa58c694aeb083df8754bf5e98675317e4137a5a8a2c6188d0228869e43da7e600081815280895260408082209387168252928952919091205460ff161561110b575b5085604051928284809451938492016127eb565b8101039020907fde2b3ccf6d86600b94567d8072c7d848050ab01f180a3cb635451540bbb455c86110d860405194604086526040860190612905565b606435858801526001600160a01b0392831694928616929081900390a4600180556040516001600160a01b039091168152f35b600081815280885260408082206001600160a01b038716808452908a52908220805460ff19166001179055339290917f2f8788117e7eff1d82e926ec794901d17c78024a50270940304540a733656f0d9080a486611088565b634e487b7160e01b600052604160045260246000fd5b015190508880610f44565b906009840160005260206000209160005b601f19851681106111e05750918391600193600b9695601f198116106111c7575b505050811b016009820155610f5c565b015160001960f88460031b161c191690558880806111b7565b91926020600181928685015181550194019201611196565b61122890600985016000526020600020601f850160051c8101916020861061122e575b601f0160051c0190612944565b87610f27565b909150819061121b565b015190508880610ea4565b9250600385016000526020600020906000935b601f198416851061129a576001945083601f19811610611281575b505050811b016003830155610ebc565b015160001960f88460031b161c19169055888080611271565b81810151835560209485019460019093019290910190611256565b6112e490600387016000526020600020601f850160051c8101916020861061122e57601f0160051c0190612944565b89610e8d565b905086015189610e4d565b91506002850160005260206000206000925b601f198316841061134a576001935082601f19811610611331575b5050811b016002840155610e64565b88015160001960f88460031b161c191690558980611322565b88810151825560209384019360019092019101611307565b61139190600286016000526020600020601f840160051c8101916020851061122e57601f0160051c0190612944565b88610e36565b905088015189610df9565b91506001850160005260206000206000925b8a601f19841685106113f957506001935082601f198116106113e0575b5050811b016001840155610e10565b8a015160001960f88460031b161c1916905589806113d1565b8101518255602093840193600190920191016113b4565b61143f90600186016000526020600020601f840160051c8101916020851061122e57601f0160051c0190612944565b88610de2565b60405162461bcd60e51b8152602060048201526015602482015274151bdad95b8818dc99585d1a5bdb8819985a5b1959605a1b6044820152606490fd5b9550506040853d6040116114c6575b8161149e60409383612774565b810103126103c8578451602090950151946001600160a01b03861686036103c8576016610d88565b3d9150611491565b6040513d6000823e3d90fd5b91939695509193602080611541600193601f198682030187528a51908151815283820151151584820152858060a01b0360408301511660408201526080611530606084015160a0606085015260a0840190612905565b920151906080818403910152612905565b98019301930190928b9596949293610d1e565b602090604051611563816126ec565b60008152600083820152600060408201526060808201526060608082015282828501015201610bf2565b60405162461bcd60e51b815260206004820152601a60248201527f50726f706572747920494420616c7265616479206578697374730000000000006044820152606490fd5b606460405162461bcd60e51b815260206004820152602060248201527f4d616e6167656d656e74206665652063616e6e6f7420657863656564203230256044820152fd5b606460405162461bcd60e51b815260206004820152602060248201527f496e76616c69642070726f7065727479206d616e6167657220616464726573736044820152fd5b60405162461bcd60e51b815260206004820152602660248201527f50726963652070657220746f6b656e206d75737420626520677265617465722060448201526507468616e20360d41b6064820152608490fd5b60405162461bcd60e51b815260206004820152602360248201527f546f74616c20737570706c79206d75737420626520677265617465722074686160448201526206e20360ec1b6064820152608490fd5b60405162461bcd60e51b815260206004820152601660248201527553796d626f6c2063616e6e6f7420626520656d70747960501b6044820152606490fd5b60405162461bcd60e51b81526020600482015260146024820152734e616d652063616e6e6f7420626520656d70747960601b6044820152606490fd5b60405162461bcd60e51b815260206004820152601b60248201527f50726f70657274792049442063616e6e6f7420626520656d70747900000000006044820152606490fd5b6117c733612be3565b604051907fe70d28ebd9d7d9a3dd77d46ae2481f301c80806f395b08de31d8e095b1c46cee6117f583612759565b60428352602083019060603683378351156119745760308253835160019081101561197457607860218601536041905b80821161191a5750506118d65760486118a3926118b2926118d29560405195869376020b1b1b2b9b9a1b7b73a3937b61d1030b1b1b7bab73a1604d1b602086015261187a8151809260206037890191016127eb565b8401917001034b99036b4b9b9b4b733903937b6329607d1b6037840152518093868401906127eb565b01036028810184520182612774565b60405162461bcd60e51b8152602060048201529182916024830190612905565b0390fd5b606460405162461bcd60e51b815260206004820152602060248201527f537472696e67733a20686578206c656e67746820696e73756666696369656e746044820152fd5b9091600f81166010811015611974576f181899199a1a9b1b9c1cb0b131b232b360811b901a6119498488612bd2565b5360041c91801561195e576000190190611825565b634e487b7160e01b600052601160045260246000fd5b634e487b7160e01b600052603260045260246000fd5b346103c85760003660031901126103c857602060405160008152f35b346103c85760403660031901126103c8576119bf612687565b600435600052600060205260406000209060018060a01b0316600052602052602060ff604060002054166040519015158152f35b346103c8576020806003193601126103c8576001600160a01b039081611a17612671565b1660005260058152604060002060405191828183549182815201908193600052826000209060005b818110611a905750505083611a55910384612774565b60405192818401908285525180915260408401929160005b828110611a7a5785850386f35b8351871685529381019392810192600101611a6d565b8254881684529284019260019283019201611a3f565b346103c85760c03660031901126103c857611abf612671565b6024356001600160401b0381116103c857611ade903690600401612795565b6084356001600160401b0381116103c857366023820112156103c857806004013591611b098361280e565b91611b176040519384612774565b83835260208301906024829560051b820101903682116103c85760248101925b828410612096575050505060a4356001600160401b0381116103c857611b61903690600401612795565b9260018060a01b03928386166000526002602052611b8960ff60086040600020015416612968565b3360009081527f3a814d6eac3306bf154f1d02bc4f57bb4f0390c16247e6c5afa43a262f9bf195602052604090205460ff168015612078575b156120295783861660005260036020526040600020928051906001600160401b038211611164578190611bf58654612825565b601f8111611ff7575b50602090601f8311600114611f8b57600092611f80575b50508160011b916000199060031b1c19161783555b604435600184015560643560028401555190600160401b8211611164576003830154826003850155808310611f08575b5090600383016000526020600020916000905b828210611df357505050506004429101558083166000526002602052600960406000200182516001600160401b03811161116457611cab8254612825565b601f8111611dc1575b506020601f8211600114611d35579181611d1c94927fee2b3f3b72e6420293f6a9f2071f21f522642910683a99a1ceccac26ca89424e9694600091611d2a575b508160011b916000199060031b1c19161790555b604051928392604084526040840190612905565b9442602084015216930390a2005b905084015188611cf4565b601f198216908360005260206000209160005b818110611da95750927fee2b3f3b72e6420293f6a9f2071f21f522642910683a99a1ceccac26ca89424e96949260019282611d1c989610611d90575b5050811b019055611d08565b86015160001960f88460031b161c191690558880611d84565b9192602060018192868b015181550194019201611d48565b611ded90836000526020600020601f840160051c8101916020851061122e57601f0160051c0190612944565b85611cb4565b80518051906001600160401b03821161116457611e108654612825565b601f8111611ed6575b50602090601f8311600114611e66579282600194936020938695600092611e5b575b5050600019600383901b1c191690841b1787555b01940191019092611c6d565b015190508d80611e3b565b908660005260206000209160005b601f1985168110611ebe575083602093600196938796938794601f19811610611ea5575b505050811b018755611e4f565b015160001960f88460031b161c191690558d8080611e98565b91926020600181928685015181550194019201611e74565b611f0290876000526020600020601f850160051c8101916020861061122e57601f0160051c0190612944565b8a611e19565b600384016000526020600020908382015b8183018110611f29575050611c5a565b80611f3660019254612825565b80611f43575b5001611f19565b601f81118314611f595750600081555b8a611f3c565b600090828252611f77601f60208420920160051c8201858301612944565b81835555611f53565b015190508880611c15565b9250856000526020600020906000935b601f1984168510611fdc576001945083601f19811610611fc3575b505050811b018355611c2a565b015160001960f88460031b161c19169055888080611fb6565b81810151835560209485019460019093019290910190611f9b565b61202390876000526020600020601f850160051c8101916020861061122e57601f0160051c0190612944565b89611bfe565b60405162461bcd60e51b815260206004820152602160248201527f4e6f7420617574686f72697a656420746f20757064617465206d6574616461746044820152606160f81b6064820152608490fd5b50838616600052600260205233846006604060002001541614611bc2565b83356001600160401b0381116103c8576020916120ba839260243691870101612795565b815201930192611b37565b346103c85760803660031901126103c8576120de612671565b6120e6612687565b6001600160a01b0360448035828116949193908590036103c85760648381359361210e612cad565b1693846000526020926002845261212f60ff60086040600020015416612968565b169485151580612381575b1561234c57831561230b5785331480156122e9575b156122a85760405163eca3691760e01b815285600482015286602482015287828201528460070b83820152838160848160006101675af180156114ce5760009061227a575b60169150036122475750508260005260048152604060002084600052815260406000205482810390811161195e5783600052600482526040600020856000528252604060002055826000526004815260406000208560005281526040600020549180830180931161195e577f70c5f97fd0068e96984b8116fe83eefbff3b91244565bf311a3cba619b4ecbc79284600052600483526040600020876000528352604060002055604051908152a460018055005b6e151c985b9cd9995c8819985a5b1959608a1b83916040519262461bcd60e51b84526004840152600f6024840152820152fd5b508381813d83116122a1575b6122908183612774565b810103126103c85760169051612194565b503d612286565b7f4e6f7420617574686f72697a656420746f207472616e7366657200000000000083916040519262461bcd60e51b84526004840152601a6024840152820152fd5b506000805260008352604060002033600052835260ff6040600020541661214f565b7f416d6f756e74206d7573742062652067726561746572207468616e203000000083916040519262461bcd60e51b84526004840152601d6024840152820152fd5b70496e76616c69642061646472657373657360781b83916040519262461bcd60e51b8452600484015260116024840152820152fd5b5086151561213a565b346103c85760203660031901126103c8576004356007548110156123cc576123b360209161269d565b905460405160039290921b1c6001600160a01b03168152f35b60405162461bcd60e51b8152602060048201526013602482015272496e646578206f7574206f6620626f756e647360681b6044820152606490fd5b346103c85760203660031901126103c8576004356007548110156103c8576123b360209161269d565b346103c85760003660031901126103c85760206040517f5aa58c694aeb083df8754bf5e98675317e4137a5a8a2c6188d0228869e43da7e8152f35b346103c85760403660031901126103c857612484612687565b336001600160a01b038216036124a05761062290600435612b5e565b60405162461bcd60e51b815260206004820152602f60248201527f416363657373436f6e74726f6c3a2063616e206f6e6c792072656e6f756e636560448201526e103937b632b9903337b91039b2b63360891b6064820152608490fd5b346103c85760403660031901126103c857600435612519612687565b8160005260006020526125336001604060002001546129ab565b81600052600060205260406000209060018060a01b0316908160005260205260ff604060002054161561256257005b8160005260006020526040600020816000526020526040600020600160ff1982541617905533917f2f8788117e7eff1d82e926ec794901d17c78024a50270940304540a733656f0d600080a4005b346103c85760203660031901126103c85760043560005260006020526020600160406000200154604051908152f35b346103c85760403660031901126103c8576125f8612671565b6024359060018060a01b038091166000526005602052604060002080548310156103c857602092612628916126d4565b9190546040519260031b1c168152f35b346103c85760003660031901126103c857807fe70d28ebd9d7d9a3dd77d46ae2481f301c80806f395b08de31d8e095b1c46cee60209252f35b600435906001600160a01b03821682036103c857565b602435906001600160a01b03821682036103c857565b6007548110156119745760076000527fa66cc928b5edb82af9bd49922954155ab7b0942694bea4ce44661d9a8736c6880190600090565b80548210156119745760005260206000200190600090565b60a081019081106001600160401b0382111761116457604052565b6101a081019081106001600160401b0382111761116457604052565b604081019081106001600160401b0382111761116457604052565b602081019081106001600160401b0382111761116457604052565b608081019081106001600160401b0382111761116457604052565b90601f801991011681019081106001600160401b0382111761116457604052565b81601f820112156103c8578035906001600160401b03821161116457604051926127c9601f8401601f191660200185612774565b828452602083830101116103c857816000926020809301838601378301015290565b60005b8381106127fe5750506000910152565b81810151838201526020016127ee565b6001600160401b0381116111645760051b60200190565b90600182811c92168015612855575b602083101461283f57565b634e487b7160e01b600052602260045260246000fd5b91607f1691612834565b906040519182600082549261287384612825565b9081845260019485811690816000146128e2575060011461289f575b505061289d92500383612774565b565b9093915060005260209081600020936000915b8183106128ca57505061289d9350820101388061288f565b855488840185015294850194879450918301916128b2565b91505061289d94506020925060ff191682840152151560051b820101388061288f565b9060209161291e815180928185528580860191016127eb565b601f01601f1916010190565b9060068210156103b25752565b9060058210156103b25752565b81811061294f575050565b60008155600101612944565b8051156119745760200190565b1561296f57565b60405162461bcd60e51b8152602060048201526014602482015273151bdad95b88191bd95cc81b9bdd08195e1a5cdd60621b6044820152606490fd5b600090808252602090828252604092838120338252835260ff8482205416156129d45750505050565b6129dd33612be3565b918451906129ea82612759565b60428252848201926060368537825115612b4a5760308453825190600191821015612b4a5790607860218501536041915b818311612adc57505050612a9a5760486118d2938693612a7e93612a6f985198899376020b1b1b2b9b9a1b7b73a3937b61d1030b1b1b7bab73a1604d1b8a86015261187a815180928c6037890191016127eb565b01036028810187520185612774565b5192839262461bcd60e51b845260048401526024830190612905565b60648486519062461bcd60e51b825280600483015260248201527f537472696e67733a20686578206c656e67746820696e73756666696369656e746044820152fd5b909192600f81166010811015612b36576f181899199a1a9b1b9c1cb0b131b232b360811b901a612b0c8587612bd2565b5360041c928015612b2257600019019190612a1b565b634e487b7160e01b82526011600452602482fd5b634e487b7160e01b83526032600452602483fd5b634e487b7160e01b81526032600452602490fd5b9060009180835282602052604083209160018060a01b03169182845260205260ff604084205416612b8e57505050565b80835282602052604083208284526020526040832060ff1981541690557ff6391f5c32d9c69d2a47ea670b442974b53935d1edc7fd64eb21e047a839171b339380a4565b908151811015611974570160200190565b60405190606082018281106001600160401b0382111761116457604052602a82526020820160403682378251156119745760309053815160019081101561197457607860218401536029905b808211612c3f5750506118d65790565b9091600f81166010811015612c98576f181899199a1a9b1b9c1cb0b131b232b360811b901a612c6e8486612bd2565b5360041c918015612c83576000190190612c2f565b60246000634e487b7160e01b81526011600452fd5b60246000634e487b7160e01b81526032600452fd5b600260015414612cbe576002600155565b60405162461bcd60e51b815260206004820152601f60248201527f5265656e7472616e637947756172643a207265656e7472616e742063616c6c006044820152606490fdfea264697066735822122082d7cc26d3c209b2714e3bbe8e9afc61075130ced93000305209aac2da86d75f64736f6c634300081300332f8788117e7eff1d82e926ec794901d17c78024a50270940304540a733656f0d","opcodes":"PUSH1 0x80 PUSH1 0x40 DUP2 DUP2 MSTORE CALLVALUE PUSH3 0xEF JUMPI PUSH1 0x1 DUP1 SSTORE PUSH1 0x0 DUP1 DUP1 MSTORE PUSH1 0x20 SWAP2 DUP2 DUP4 MSTORE DUP1 DUP3 KECCAK256 CALLER DUP4 MSTORE DUP4 MSTORE PUSH1 0xFF DUP2 DUP4 KECCAK256 SLOAD AND ISZERO PUSH3 0xB7 JUMPI JUMPDEST PUSH32 0xE70D28EBD9D7D9A3DD77D46AE2481F301C80806F395B08DE31D8E095B1C46CEE SWAP3 DUP4 DUP4 MSTORE DUP3 DUP2 MSTORE DUP2 DUP4 KECCAK256 CALLER DUP5 MSTORE DUP2 MSTORE PUSH1 0xFF DUP3 DUP5 KECCAK256 SLOAD AND ISZERO PUSH3 0x7C JUMPI JUMPDEST PUSH2 0x2D39 DUP6 DUP2 PUSH3 0xF5 DUP3 CODECOPY RETURN JUMPDEST DUP4 DUP4 MSTORE DUP3 DUP2 MSTORE DUP2 DUP4 KECCAK256 SWAP1 CALLER DUP5 MSTORE MSTORE DUP2 KECCAK256 PUSH1 0x1 PUSH1 0xFF NOT DUP3 SLOAD AND OR SWAP1 SSTORE CALLER SWAP2 PUSH1 0x0 DUP1 MLOAD PUSH1 0x20 PUSH3 0x2E2E DUP4 CODECOPY DUP2 MLOAD SWAP2 MSTORE CALLER SWAP3 DUP1 LOG4 CODESIZE DUP1 DUP1 DUP1 PUSH3 0x6F JUMP JUMPDEST DUP2 DUP1 MSTORE DUP2 DUP4 MSTORE DUP1 DUP3 KECCAK256 CALLER DUP4 MSTORE DUP4 MSTORE DUP1 DUP3 KECCAK256 PUSH1 0x1 PUSH1 0xFF NOT DUP3 SLOAD AND OR SWAP1 SSTORE CALLER CALLER DUP4 PUSH1 0x0 DUP1 MLOAD PUSH1 0x20 PUSH3 0x2E2E DUP4 CODECOPY DUP2 MLOAD SWAP2 MSTORE DUP2 DUP1 LOG4 PUSH3 0x31 JUMP JUMPDEST PUSH1 0x0 DUP1 REVERT INVALID PUSH1 0x80 DUP1 PUSH1 0x40 MSTORE PUSH1 0x4 CALLDATASIZE LT ISZERO PUSH2 0x13 JUMPI PUSH1 0x0 DUP1 REVERT JUMPDEST PUSH1 0x0 CALLDATALOAD PUSH1 0xE0 SHR SWAP1 DUP2 PUSH4 0x605A334 EQ PUSH2 0x2638 JUMPI POP DUP1 PUSH4 0x13370E44 EQ PUSH2 0x592 JUMPI DUP1 PUSH4 0x20D15BE1 EQ PUSH2 0x25DF JUMPI DUP1 PUSH4 0x248A9CA3 EQ PUSH2 0x25B0 JUMPI DUP1 PUSH4 0x2F2FF15D EQ PUSH2 0x24FD JUMPI DUP1 PUSH4 0x36568ABE EQ PUSH2 0x246B JUMPI DUP1 PUSH4 0x47E64656 EQ PUSH2 0x2430 JUMPI DUP1 PUSH4 0x634282AF EQ PUSH2 0x2407 JUMPI DUP1 PUSH4 0x644B7A43 EQ PUSH2 0x238A JUMPI DUP1 PUSH4 0x68155EC1 EQ PUSH2 0x20C5 JUMPI DUP1 PUSH4 0x718E120B EQ PUSH2 0x7ED JUMPI DUP1 PUSH4 0x771351FD EQ PUSH2 0x1AA6 JUMPI DUP1 PUSH4 0x829B7C89 EQ PUSH2 0x19F3 JUMPI DUP1 PUSH4 0x91D14854 EQ PUSH2 0x19A6 JUMPI DUP1 PUSH4 0xA217FDDF EQ PUSH2 0x198A JUMPI DUP1 PUSH4 0xAB9B8C87 EQ PUSH2 0x98A JUMPI DUP1 PUSH4 0xB14BDA59 EQ PUSH2 0x855 JUMPI DUP1 PUSH4 0xB56A6B14 EQ PUSH2 0x7ED JUMPI DUP1 PUSH4 0xC127F5F5 EQ PUSH2 0x778 JUMPI DUP1 PUSH4 0xC707DD2D EQ PUSH2 0x624 JUMPI DUP1 PUSH4 0xD547741F EQ PUSH2 0x5E3 JUMPI DUP1 PUSH4 0xDAC796BB EQ PUSH2 0x592 JUMPI DUP1 PUSH4 0xF08B82E6 EQ PUSH2 0x574 JUMPI DUP1 PUSH4 0xF5B94E1E EQ PUSH2 0x3CD JUMPI PUSH4 0xFC874BA6 EQ PUSH2 0x132 JUMPI PUSH1 0x0 DUP1 REVERT JUMPDEST CALLVALUE PUSH2 0x3C8 JUMPI PUSH1 0x20 CALLDATASIZE PUSH1 0x3 NOT ADD SLT PUSH2 0x3C8 JUMPI PUSH2 0x14B PUSH2 0x2671 JUMP JUMPDEST PUSH1 0x0 PUSH2 0x180 PUSH1 0x40 MLOAD PUSH2 0x15C DUP2 PUSH2 0x2707 JUMP JUMPDEST DUP3 DUP2 MSTORE PUSH1 0x60 PUSH1 0x20 DUP3 ADD MSTORE PUSH1 0x60 PUSH1 0x40 DUP3 ADD MSTORE PUSH1 0x60 DUP1 DUP3 ADD MSTORE DUP3 PUSH1 0x80 DUP3 ADD MSTORE DUP3 PUSH1 0xA0 DUP3 ADD MSTORE DUP3 PUSH1 0xC0 DUP3 ADD MSTORE DUP3 PUSH1 0xE0 DUP3 ADD MSTORE DUP3 PUSH2 0x100 DUP3 ADD MSTORE PUSH1 0x60 PUSH2 0x120 DUP3 ADD MSTORE DUP3 PUSH2 0x140 DUP3 ADD MSTORE DUP3 PUSH2 0x160 DUP3 ADD MSTORE ADD MSTORE PUSH1 0x1 DUP1 PUSH1 0xA0 SHL SUB AND DUP1 PUSH1 0x0 MSTORE PUSH1 0x2 PUSH1 0x20 MSTORE PUSH2 0x1CF PUSH1 0xFF PUSH1 0x8 PUSH1 0x40 PUSH1 0x0 KECCAK256 ADD SLOAD AND PUSH2 0x2968 JUMP JUMPDEST PUSH1 0x0 MSTORE PUSH1 0x2 PUSH1 0x20 MSTORE PUSH1 0x40 PUSH1 0x0 KECCAK256 PUSH1 0xB PUSH1 0x40 MLOAD SWAP2 PUSH2 0x1EB DUP4 PUSH2 0x2707 JUMP JUMPDEST DUP1 SLOAD PUSH1 0x1 PUSH1 0x1 PUSH1 0xA0 SHL SUB AND DUP4 MSTORE PUSH2 0x204 PUSH1 0x1 DUP3 ADD PUSH2 0x285F JUMP JUMPDEST PUSH1 0x20 DUP5 ADD MSTORE PUSH2 0x215 PUSH1 0x2 DUP3 ADD PUSH2 0x285F JUMP JUMPDEST PUSH1 0x40 DUP5 ADD MSTORE PUSH2 0x226 PUSH1 0x3 DUP3 ADD PUSH2 0x285F JUMP JUMPDEST PUSH1 0x60 DUP5 ADD MSTORE PUSH1 0x4 DUP2 ADD SLOAD PUSH1 0x80 DUP5 ADD MSTORE PUSH1 0x5 DUP2 ADD SLOAD PUSH1 0xA0 DUP5 ADD MSTORE PUSH1 0x6 DUP2 ADD SLOAD PUSH1 0x1 PUSH1 0x1 PUSH1 0xA0 SHL SUB AND PUSH1 0xC0 DUP5 ADD MSTORE PUSH1 0x7 DUP2 ADD SLOAD PUSH1 0xE0 DUP5 ADD MSTORE PUSH1 0x8 DUP2 ADD SLOAD PUSH1 0xFF AND ISZERO ISZERO PUSH2 0x100 DUP5 ADD MSTORE PUSH2 0x278 PUSH1 0x9 DUP3 ADD PUSH2 0x285F JUMP JUMPDEST PUSH2 0x120 DUP5 ADD MSTORE PUSH1 0xA DUP2 ADD SLOAD PUSH2 0x140 DUP5 ADD MSTORE ADD SLOAD PUSH1 0x6 PUSH1 0xFF DUP3 AND LT ISZERO PUSH2 0x3B2 JUMPI PUSH1 0xFF DUP2 AND PUSH2 0x160 DUP4 ADD MSTORE PUSH1 0x5 PUSH1 0xFF DUP3 PUSH1 0x8 SHR AND LT ISZERO PUSH2 0x3B2 JUMPI PUSH1 0xFF SWAP1 PUSH1 0x8 SHR AND PUSH2 0x180 DUP3 ADD MSTORE PUSH1 0x40 MLOAD DUP1 SWAP2 PUSH1 0x20 DUP3 MSTORE PUSH1 0x1 DUP1 PUSH1 0xA0 SHL SUB DUP2 MLOAD AND PUSH1 0x20 DUP4 ADD MSTORE PUSH2 0x3AE PUSH2 0x180 PUSH2 0x382 PUSH2 0x32B PUSH2 0x315 PUSH2 0x2FF PUSH1 0x20 DUP8 ADD MLOAD PUSH2 0x1A0 PUSH1 0x40 DUP11 ADD MSTORE PUSH2 0x1C0 DUP10 ADD SWAP1 PUSH2 0x2905 JUMP JUMPDEST PUSH1 0x40 DUP8 ADD MLOAD DUP9 DUP3 SUB PUSH1 0x1F NOT ADD PUSH1 0x60 DUP11 ADD MSTORE PUSH2 0x2905 JUMP JUMPDEST PUSH1 0x60 DUP7 ADD MLOAD DUP8 DUP3 SUB PUSH1 0x1F NOT ADD PUSH1 0x80 DUP10 ADD MSTORE PUSH2 0x2905 JUMP JUMPDEST PUSH1 0x80 DUP6 ADD MLOAD PUSH1 0xA0 DUP8 ADD MSTORE PUSH1 0xA0 DUP6 ADD MLOAD PUSH1 0xC0 DUP8 ADD MSTORE PUSH1 0x1 DUP1 PUSH1 0xA0 SHL SUB PUSH1 0xC0 DUP7 ADD MLOAD AND PUSH1 0xE0 DUP8 ADD MSTORE PUSH1 0xE0 DUP6 ADD MLOAD PUSH2 0x100 DUP8 ADD MSTORE PUSH2 0x100 DUP6 ADD MLOAD ISZERO ISZERO PUSH2 0x120 DUP8 ADD MSTORE PUSH2 0x120 DUP6 ADD MLOAD PUSH1 0x1F NOT DUP8 DUP4 SUB ADD PUSH2 0x140 DUP9 ADD MSTORE PUSH2 0x2905 JUMP JUMPDEST SWAP3 PUSH2 0x140 DUP2 ADD MLOAD PUSH2 0x160 DUP7 ADD MSTORE PUSH2 0x3A1 PUSH2 0x160 DUP3 ADD MLOAD DUP4 DUP8 ADD SWAP1 PUSH2 0x292A JUMP JUMPDEST ADD MLOAD PUSH2 0x1A0 DUP5 ADD SWAP1 PUSH2 0x2937 JUMP JUMPDEST SUB SWAP1 RETURN JUMPDEST PUSH4 0x4E487B71 PUSH1 0xE0 SHL PUSH1 0x0 MSTORE PUSH1 0x21 PUSH1 0x4 MSTORE PUSH1 0x24 PUSH1 0x0 REVERT JUMPDEST PUSH1 0x0 DUP1 REVERT JUMPDEST CALLVALUE PUSH2 0x3C8 JUMPI PUSH1 0x20 DUP1 PUSH1 0x3 NOT CALLDATASIZE ADD SLT PUSH2 0x3C8 JUMPI PUSH2 0x3E7 PUSH2 0x2671 JUMP JUMPDEST PUSH1 0x0 PUSH1 0x80 PUSH1 0x40 MLOAD PUSH2 0x3F7 DUP2 PUSH2 0x26EC JUMP JUMPDEST PUSH1 0x60 DUP2 MSTORE DUP3 DUP6 DUP3 ADD MSTORE DUP3 PUSH1 0x40 DUP3 ADD MSTORE PUSH1 0x60 DUP1 DUP3 ADD MSTORE ADD MSTORE PUSH1 0x1 DUP1 PUSH1 0xA0 SHL SUB AND DUP1 PUSH1 0x0 MSTORE PUSH1 0x2 DUP3 MSTORE PUSH2 0x432 PUSH1 0xFF PUSH1 0x8 PUSH1 0x40 PUSH1 0x0 KECCAK256 ADD SLOAD AND PUSH2 0x2968 JUMP JUMPDEST PUSH1 0x0 MSTORE PUSH1 0x3 DUP2 MSTORE PUSH1 0x40 PUSH1 0x0 KECCAK256 SWAP1 PUSH1 0x40 MLOAD SWAP1 PUSH2 0x44C DUP3 PUSH2 0x26EC JUMP JUMPDEST PUSH2 0x455 DUP4 PUSH2 0x285F JUMP JUMPDEST DUP3 MSTORE PUSH1 0x1 SWAP3 DUP4 DUP2 ADD SLOAD SWAP2 DUP1 DUP5 ADD SWAP3 DUP4 MSTORE PUSH1 0x2 DUP3 ADD SLOAD SWAP2 PUSH1 0x40 DUP6 ADD SWAP3 DUP4 MSTORE PUSH1 0x3 DUP2 ADD SWAP1 DUP2 SLOAD DUP8 PUSH2 0x483 DUP3 PUSH2 0x280E JUMP JUMPDEST SWAP4 PUSH2 0x491 PUSH1 0x40 MLOAD SWAP6 DUP7 PUSH2 0x2774 JUMP JUMPDEST DUP3 DUP6 MSTORE PUSH1 0x0 SWAP1 DUP2 MSTORE DUP6 DUP2 KECCAK256 DUP7 DUP7 ADD JUMPDEST DUP5 DUP4 LT PUSH2 0x553 JUMPI POP POP POP POP POP PUSH1 0x4 SWAP1 PUSH1 0x60 DUP8 ADD SWAP3 DUP4 MSTORE ADD SLOAD SWAP3 PUSH1 0x80 DUP7 ADD SWAP4 DUP5 MSTORE PUSH2 0x4DB PUSH1 0x40 MLOAD SWAP7 DUP5 DUP9 MSTORE MLOAD PUSH1 0xA0 DUP6 DUP10 ADD MSTORE PUSH1 0xC0 DUP9 ADD SWAP1 PUSH2 0x2905 JUMP JUMPDEST SWAP5 MLOAD PUSH1 0x40 DUP8 ADD MSTORE MLOAD PUSH1 0x60 DUP7 ADD MSTORE MLOAD SWAP3 PUSH1 0x1F NOT SWAP2 DUP3 DUP7 DUP4 SUB ADD PUSH1 0x80 DUP8 ADD MSTORE DUP5 MLOAD SWAP2 DUP3 DUP2 MSTORE DUP2 DUP2 ADD DUP3 DUP1 DUP6 PUSH1 0x5 SHL DUP5 ADD ADD SWAP8 ADD SWAP5 PUSH1 0x0 SWAP3 JUMPDEST DUP6 DUP5 LT PUSH2 0x525 JUMPI DUP8 MLOAD PUSH1 0xA0 DUP12 ADD MSTORE DUP10 DUP10 SUB DUP11 RETURN JUMPDEST SWAP1 SWAP2 SWAP3 SWAP4 SWAP5 SWAP6 SWAP8 DUP6 DUP1 PUSH2 0x542 DUP4 DUP7 DUP16 SWAP6 DUP8 SWAP1 SUB ADD DUP9 MSTORE DUP13 MLOAD PUSH2 0x2905 JUMP JUMPDEST SWAP11 ADD SWAP5 ADD SWAP5 ADD SWAP3 SWAP6 SWAP5 SWAP4 SWAP2 SWAP1 PUSH2 0x511 JUMP JUMPDEST DUP4 DUP9 DUP2 SWAP3 PUSH2 0x563 DUP6 SWAP14 SWAP12 SWAP14 PUSH2 0x285F JUMP JUMPDEST DUP2 MSTORE ADD SWAP3 ADD SWAP3 ADD SWAP2 SWAP1 SWAP9 SWAP7 SWAP9 PUSH2 0x4A0 JUMP JUMPDEST CALLVALUE PUSH2 0x3C8 JUMPI PUSH1 0x0 CALLDATASIZE PUSH1 0x3 NOT ADD SLT PUSH2 0x3C8 JUMPI PUSH1 0x20 PUSH1 0x7 SLOAD PUSH1 0x40 MLOAD SWAP1 DUP2 MSTORE RETURN JUMPDEST CALLVALUE PUSH2 0x3C8 JUMPI PUSH1 0x40 CALLDATASIZE PUSH1 0x3 NOT ADD SLT PUSH2 0x3C8 JUMPI PUSH2 0x5AB PUSH2 0x2671 JUMP JUMPDEST PUSH2 0x5B3 PUSH2 0x2687 JUMP JUMPDEST SWAP1 PUSH1 0x1 DUP1 PUSH1 0xA0 SHL SUB DUP1 SWAP2 AND PUSH1 0x0 MSTORE PUSH1 0x4 PUSH1 0x20 MSTORE PUSH1 0x40 PUSH1 0x0 KECCAK256 SWAP2 AND PUSH1 0x0 MSTORE PUSH1 0x20 MSTORE PUSH1 0x20 PUSH1 0x40 PUSH1 0x0 KECCAK256 SLOAD PUSH1 0x40 MLOAD SWAP1 DUP2 MSTORE RETURN JUMPDEST CALLVALUE PUSH2 0x3C8 JUMPI PUSH1 0x40 CALLDATASIZE PUSH1 0x3 NOT ADD SLT PUSH2 0x3C8 JUMPI PUSH2 0x622 PUSH1 0x4 CALLDATALOAD PUSH2 0x602 PUSH2 0x2687 JUMP JUMPDEST SWAP1 DUP1 PUSH1 0x0 MSTORE PUSH1 0x0 PUSH1 0x20 MSTORE PUSH2 0x61D PUSH1 0x1 PUSH1 0x40 PUSH1 0x0 KECCAK256 ADD SLOAD PUSH2 0x29AB JUMP JUMPDEST PUSH2 0x2B5E JUMP JUMPDEST STOP JUMPDEST CALLVALUE PUSH2 0x3C8 JUMPI PUSH1 0x40 CALLDATASIZE PUSH1 0x3 NOT ADD SLT PUSH2 0x3C8 JUMPI PUSH2 0x63D PUSH2 0x2671 JUMP JUMPDEST PUSH1 0x24 CALLDATALOAD PUSH1 0x5 DUP2 LT ISZERO PUSH2 0x3C8 JUMPI PUSH1 0x1 DUP1 PUSH1 0xA0 SHL SUB DUP1 SWAP3 AND SWAP2 DUP3 PUSH1 0x0 MSTORE PUSH1 0x20 SWAP1 PUSH1 0x2 DUP3 MSTORE PUSH2 0x673 PUSH1 0xFF PUSH1 0x8 PUSH1 0x40 PUSH1 0x0 KECCAK256 ADD SLOAD AND PUSH2 0x2968 JUMP JUMPDEST PUSH32 0x5AA58C694AEB083DF8754BF5E98675317E4137A5A8A2C6188D0228869E43DA7E PUSH1 0x0 MSTORE PUSH1 0x0 DUP3 MSTORE PUSH1 0x40 PUSH1 0x0 KECCAK256 CALLER PUSH1 0x0 MSTORE DUP3 MSTORE PUSH1 0xFF PUSH1 0x40 PUSH1 0x0 KECCAK256 SLOAD AND SWAP1 DUP2 ISZERO PUSH2 0x75B JUMPI JUMPDEST POP ISZERO PUSH2 0x726 JUMPI PUSH1 0xFF PUSH2 0x723 PUSH32 0x7AAA081CD562023D4AD09D4686E390CE99C50431CF77DA61EA3AD3F0C7BFB672 SWAP4 PUSH1 0x40 SWAP4 DUP7 PUSH1 0x0 MSTORE PUSH1 0x2 DUP2 MSTORE PUSH2 0x71B PUSH1 0xB DUP7 PUSH1 0x0 KECCAK256 ADD DUP1 SLOAD SWAP1 PUSH2 0xFF00 DUP6 PUSH1 0x8 SHL AND PUSH2 0xFF00 NOT DUP4 AND OR SWAP1 SSTORE DUP7 MLOAD SWAP6 DUP7 SWAP2 PUSH1 0x8 SHR AND PUSH2 0x2937 JUMP JUMPDEST DUP4 ADD SWAP1 PUSH2 0x2937 JUMP JUMPDEST LOG2 STOP JUMPDEST PUSH1 0x64 SWAP1 PUSH1 0x40 MLOAD SWAP1 PUSH3 0x461BCD PUSH1 0xE5 SHL DUP3 MSTORE PUSH1 0x4 DUP3 ADD MSTORE PUSH1 0xE PUSH1 0x24 DUP3 ADD MSTORE PUSH14 0x139BDD08185D5D1A1BDC9A5E9959 PUSH1 0x92 SHL PUSH1 0x44 DUP3 ADD MSTORE REVERT JUMPDEST SWAP1 POP DUP4 PUSH1 0x0 MSTORE PUSH1 0x2 DUP3 MSTORE CALLER SWAP1 PUSH1 0x6 PUSH1 0x40 PUSH1 0x0 KECCAK256 ADD SLOAD AND EQ DUP5 PUSH2 0x6B7 JUMP JUMPDEST CALLVALUE PUSH2 0x3C8 JUMPI PUSH1 0x20 CALLDATASIZE PUSH1 0x3 NOT ADD SLT PUSH2 0x3C8 JUMPI PUSH1 0x1 PUSH1 0x1 PUSH1 0xA0 SHL SUB PUSH2 0x799 PUSH2 0x2671 JUMP JUMPDEST AND PUSH1 0x0 MSTORE PUSH1 0x3 PUSH1 0x20 MSTORE PUSH2 0x7D9 PUSH1 0x40 PUSH1 0x0 KECCAK256 PUSH2 0x7B3 DUP2 PUSH2 0x285F JUMP JUMPDEST SWAP1 PUSH1 0x1 DUP2 ADD SLOAD SWAP1 PUSH1 0x4 PUSH1 0x2 DUP3 ADD SLOAD SWAP2 ADD SLOAD SWAP1 PUSH1 0x40 MLOAD SWAP5 DUP6 SWAP5 PUSH1 0x80 DUP7 MSTORE PUSH1 0x80 DUP7 ADD SWAP1 PUSH2 0x2905 JUMP JUMPDEST SWAP3 PUSH1 0x20 DUP6 ADD MSTORE PUSH1 0x40 DUP5 ADD MSTORE PUSH1 0x60 DUP4 ADD MSTORE SUB SWAP1 RETURN JUMPDEST CALLVALUE PUSH2 0x3C8 JUMPI PUSH1 0x20 CALLDATASIZE PUSH1 0x3 NOT ADD SLT PUSH2 0x3C8 JUMPI PUSH1 0x4 CALLDATALOAD PUSH1 0x1 PUSH1 0x1 PUSH1 0x40 SHL SUB DUP2 GT PUSH2 0x3C8 JUMPI PUSH2 0x81F PUSH1 0x20 SWAP2 CALLDATASIZE SWAP1 PUSH1 0x4 ADD PUSH2 0x2795 JUMP JUMPDEST DUP2 PUSH2 0x833 PUSH1 0x40 MLOAD SWAP3 DUP4 DUP2 MLOAD SWAP4 DUP5 SWAP3 ADD PUSH2 0x27EB JUMP JUMPDEST PUSH1 0x6 SWAP1 DUP3 ADD SWAP1 DUP2 MSTORE DUP2 SWAP1 SUB DUP3 ADD SWAP1 KECCAK256 SLOAD PUSH1 0x40 MLOAD PUSH1 0x1 PUSH1 0x1 PUSH1 0xA0 SHL SUB SWAP1 SWAP2 AND DUP2 MSTORE RETURN JUMPDEST CALLVALUE PUSH2 0x3C8 JUMPI PUSH1 0x20 CALLDATASIZE PUSH1 0x3 NOT ADD SLT PUSH2 0x3C8 JUMPI PUSH1 0x1 PUSH1 0x1 PUSH1 0xA0 SHL SUB DUP1 PUSH2 0x877 PUSH2 0x2671 JUMP JUMPDEST AND PUSH1 0x0 MSTORE PUSH1 0x2 PUSH1 0x20 MSTORE PUSH1 0x40 PUSH1 0x0 KECCAK256 DUP2 DUP2 SLOAD AND SWAP1 PUSH1 0x1 DUP2 ADD PUSH2 0x897 SWAP1 PUSH2 0x285F JUMP JUMPDEST SWAP3 PUSH2 0x8A4 PUSH1 0x2 DUP4 ADD PUSH2 0x285F JUMP JUMPDEST SWAP1 PUSH2 0x8B1 PUSH1 0x3 DUP5 ADD PUSH2 0x285F JUMP JUMPDEST SWAP1 PUSH1 0x4 DUP5 ADD SLOAD SWAP1 PUSH1 0x5 DUP6 ADD SLOAD SWAP1 PUSH1 0x6 DUP7 ADD SLOAD AND PUSH1 0x7 DUP7 ADD SLOAD SWAP1 PUSH1 0x8 DUP8 ADD SLOAD PUSH1 0xFF AND SWAP3 PUSH1 0x9 DUP9 ADD PUSH2 0x8E0 SWAP1 PUSH2 0x285F JUMP JUMPDEST SWAP6 PUSH1 0xA DUP10 ADD SLOAD SWAP9 PUSH1 0xB ADD SLOAD SWAP8 PUSH1 0x40 MLOAD SWAP12 DUP13 SWAP12 DUP13 MSTORE DUP12 PUSH2 0x1A0 PUSH1 0x20 DUP2 SWAP3 ADD MSTORE DUP13 ADD PUSH2 0x909 SWAP2 PUSH2 0x2905 JUMP JUMPDEST DUP12 DUP2 SUB PUSH1 0x40 DUP14 ADD MSTORE PUSH2 0x91A SWAP2 PUSH2 0x2905 JUMP JUMPDEST DUP11 DUP2 SUB PUSH1 0x60 DUP13 ADD MSTORE PUSH2 0x92B SWAP2 PUSH2 0x2905 JUMP JUMPDEST SWAP5 PUSH1 0x80 DUP11 ADD MSTORE PUSH1 0xA0 DUP10 ADD MSTORE PUSH1 0xC0 DUP9 ADD MSTORE PUSH1 0xE0 DUP8 ADD MSTORE ISZERO ISZERO PUSH2 0x100 DUP7 ADD MSTORE DUP5 DUP2 SUB PUSH2 0x120 DUP7 ADD MSTORE PUSH2 0x95A SWAP2 PUSH2 0x2905 JUMP JUMPDEST SWAP2 PUSH2 0x140 DUP5 ADD MSTORE PUSH2 0x160 DUP4 ADD PUSH1 0xFF DUP3 AND SWAP1 PUSH2 0x974 SWAP2 PUSH2 0x292A JUMP JUMPDEST PUSH2 0x180 DUP4 ADD SWAP1 PUSH1 0x8 SHR PUSH1 0xFF AND SWAP1 PUSH2 0x3AE SWAP2 PUSH2 0x2937 JUMP JUMPDEST CALLVALUE PUSH2 0x3C8 JUMPI PUSH2 0x120 CALLDATASIZE PUSH1 0x3 NOT ADD SLT PUSH2 0x3C8 JUMPI PUSH1 0x4 CALLDATALOAD PUSH1 0x1 PUSH1 0x1 PUSH1 0x40 SHL SUB DUP2 GT PUSH2 0x3C8 JUMPI PUSH2 0x9BB SWAP1 CALLDATASIZE SWAP1 PUSH1 0x4 ADD PUSH2 0x2795 JUMP JUMPDEST PUSH1 0x24 CALLDATALOAD PUSH1 0x1 PUSH1 0x1 PUSH1 0x40 SHL SUB DUP2 GT PUSH2 0x3C8 JUMPI PUSH2 0x9DA SWAP1 CALLDATASIZE SWAP1 PUSH1 0x4 ADD PUSH2 0x2795 JUMP JUMPDEST PUSH1 0x44 CALLDATALOAD PUSH1 0x1 PUSH1 0x1 PUSH1 0x40 SHL SUB DUP2 GT PUSH2 0x3C8 JUMPI PUSH2 0x9F9 SWAP1 CALLDATASIZE SWAP1 PUSH1 0x4 ADD PUSH2 0x2795 JUMP JUMPDEST SWAP1 PUSH1 0xA4 CALLDATALOAD PUSH1 0x1 PUSH1 0x1 PUSH1 0xA0 SHL SUB DUP2 AND DUP2 SUB PUSH2 0x3C8 JUMPI PUSH1 0xE4 CALLDATALOAD PUSH1 0x1 PUSH1 0x1 PUSH1 0x40 SHL SUB DUP2 GT PUSH2 0x3C8 JUMPI PUSH2 0xA2C SWAP1 CALLDATASIZE SWAP1 PUSH1 0x4 ADD PUSH2 0x2795 JUMP JUMPDEST SWAP3 PUSH1 0x6 PUSH2 0x104 CALLDATALOAD LT ISZERO PUSH2 0x3C8 JUMPI CALLER PUSH1 0x0 SWAP1 DUP2 MSTORE PUSH32 0xD794E082C83AF78A2A6A572F4231A899BEF773EE0851BD2FA0FDE1FF322F1C7D PUSH1 0x20 MSTORE PUSH1 0x40 SWAP1 KECCAK256 SLOAD PUSH1 0xFF AND ISZERO PUSH2 0x17BE JUMPI PUSH2 0xA78 PUSH2 0x2CAD JUMP JUMPDEST DUP5 MLOAD ISZERO PUSH2 0x1779 JUMPI DUP3 MLOAD ISZERO PUSH2 0x173D JUMPI DUP1 MLOAD ISZERO PUSH2 0x16FF JUMPI PUSH1 0x64 CALLDATALOAD ISZERO PUSH2 0x16AE JUMPI PUSH1 0x84 CALLDATALOAD ISZERO PUSH2 0x165A JUMPI PUSH1 0x1 PUSH1 0x1 PUSH1 0xA0 SHL SUB DUP3 AND ISZERO PUSH2 0x1616 JUMPI PUSH2 0x7D0 PUSH1 0xC4 CALLDATALOAD GT PUSH2 0x15D2 JUMPI PUSH1 0x40 MLOAD DUP6 MLOAD PUSH2 0xACA DUP2 DUP4 PUSH1 0x20 DUP11 ADD PUSH2 0x27EB JUMP JUMPDEST PUSH1 0x6 SWAP1 DUP3 ADD SWAP1 DUP2 MSTORE DUP2 SWAP1 SUB PUSH1 0x20 ADD SWAP1 KECCAK256 SLOAD PUSH1 0x1 PUSH1 0x1 PUSH1 0xA0 SHL SUB AND PUSH2 0x158D JUMPI PUSH1 0x40 MLOAD SWAP4 DUP5 PUSH2 0x120 DUP2 ADD LT PUSH1 0x1 PUSH1 0x1 PUSH1 0x40 SHL SUB PUSH2 0x120 DUP8 ADD GT OR PUSH2 0x1164 JUMPI PUSH2 0x120 DUP6 ADD PUSH1 0x40 MSTORE PUSH1 0x60 DUP6 MSTORE PUSH1 0x60 PUSH1 0x20 DUP7 ADD MSTORE PUSH1 0x0 PUSH1 0x40 DUP7 ADD MSTORE PUSH1 0x60 DUP1 DUP7 ADD MSTORE PUSH1 0x0 PUSH1 0x80 DUP7 ADD MSTORE PUSH1 0x0 PUSH1 0xA0 DUP7 ADD MSTORE PUSH1 0x0 PUSH1 0xC0 DUP7 ADD MSTORE PUSH1 0x60 PUSH1 0xE0 DUP7 ADD MSTORE PUSH1 0x40 MLOAD DUP1 PUSH1 0x60 DUP2 ADD LT PUSH1 0x1 PUSH1 0x1 PUSH1 0x40 SHL SUB PUSH1 0x60 DUP4 ADD GT OR PUSH2 0x1164 JUMPI PUSH1 0x60 DUP2 ADD PUSH1 0x40 MSTORE PUSH1 0x0 DUP2 MSTORE PUSH1 0x0 PUSH1 0x20 DUP3 ADD MSTORE PUSH1 0x0 PUSH1 0x40 DUP3 ADD MSTORE PUSH2 0x100 DUP7 ADD MSTORE DUP4 DUP6 MSTORE DUP2 PUSH1 0x20 DUP7 ADD MSTORE ADDRESS PUSH1 0x40 DUP7 ADD MSTORE PUSH1 0x40 MLOAD PUSH2 0xB97 DUP2 PUSH2 0x2723 JUMP JUMPDEST PUSH1 0x19 DUP2 MSTORE PUSH32 0x476C6F62616C4C616E642050726F706572747920546F6B656E00000000000000 PUSH1 0x20 DUP3 ADD MSTORE PUSH1 0x60 DUP7 ADD MSTORE PUSH1 0x1 PUSH1 0x80 DUP7 ADD MSTORE PUSH1 0x64 CALLDATALOAD PUSH1 0x7 SIGNEXTEND PUSH1 0xA0 DUP7 ADD MSTORE PUSH1 0x0 PUSH1 0xC0 DUP7 ADD MSTORE PUSH1 0x40 MLOAD PUSH2 0xBEB DUP2 PUSH2 0x2723 JUMP JUMPDEST PUSH1 0x1 DUP2 MSTORE PUSH1 0x0 JUMPDEST PUSH1 0x20 DUP2 LT PUSH2 0x1554 JUMPI POP PUSH2 0xC55 SWAP1 PUSH1 0x40 MLOAD PUSH2 0xC0B DUP2 PUSH2 0x26EC JUMP JUMPDEST PUSH1 0x1 DUP2 MSTORE PUSH1 0x0 PUSH1 0x20 DUP3 ADD MSTORE ADDRESS PUSH1 0x40 DUP3 ADD MSTORE PUSH1 0x40 MLOAD PUSH2 0xC28 DUP2 PUSH2 0x273E JUMP JUMPDEST PUSH1 0x0 DUP2 MSTORE PUSH1 0x60 DUP3 ADD MSTORE PUSH1 0x40 MLOAD PUSH2 0xC3D DUP2 PUSH2 0x273E JUMP JUMPDEST PUSH1 0x0 DUP2 MSTORE PUSH1 0x80 DUP3 ADD MSTORE PUSH2 0xC4F DUP3 PUSH2 0x295B JUMP JUMPDEST MSTORE PUSH2 0x295B JUMP JUMPDEST POP PUSH1 0x40 MLOAD SWAP5 PUSH4 0x93CCE571 PUSH1 0xE0 SHL DUP7 MSTORE PUSH1 0x60 PUSH1 0x4 DUP8 ADD MSTORE DUP6 PUSH2 0xCC9 PUSH2 0xCA0 PUSH2 0xC8A DUP5 MLOAD PUSH2 0x160 PUSH1 0x64 DUP7 ADD MSTORE PUSH2 0x1C4 DUP6 ADD SWAP1 PUSH2 0x2905 JUMP JUMPDEST PUSH1 0x20 DUP6 ADD MLOAD DUP5 DUP3 SUB PUSH1 0x63 NOT ADD PUSH1 0x84 DUP7 ADD MSTORE PUSH2 0x2905 JUMP JUMPDEST PUSH1 0x40 DUP5 ADD MLOAD PUSH1 0x1 PUSH1 0x1 PUSH1 0xA0 SHL SUB AND PUSH1 0xA4 DUP5 ADD MSTORE PUSH1 0x60 DUP5 ADD MLOAD DUP4 DUP3 SUB PUSH1 0x63 NOT ADD PUSH1 0xC4 DUP6 ADD MSTORE PUSH2 0x2905 JUMP JUMPDEST PUSH1 0x80 DUP4 ADD MLOAD ISZERO ISZERO PUSH1 0xE4 DUP4 ADD MSTORE PUSH1 0xA0 DUP4 ADD MLOAD PUSH1 0x7 SIGNEXTEND PUSH2 0x104 DUP4 ADD MSTORE PUSH1 0xC0 DUP4 ADD MLOAD ISZERO ISZERO PUSH2 0x124 DUP4 ADD MSTORE PUSH1 0xE0 DUP4 ADD MLOAD SWAP1 PUSH1 0x63 NOT DUP4 DUP3 SUB ADD PUSH2 0x144 DUP5 ADD MSTORE DUP2 MLOAD DUP1 DUP3 MSTORE PUSH1 0x20 DUP3 ADD SWAP2 PUSH1 0x20 DUP1 DUP4 PUSH1 0x5 SHL DUP4 ADD ADD SWAP5 ADD SWAP3 PUSH1 0x0 SWAP2 JUMPDEST DUP4 DUP4 LT PUSH2 0x14DA JUMPI POP POP POP POP POP DUP2 SWAP1 PUSH1 0x40 PUSH2 0x100 DUP2 SWAP6 ADD MLOAD DUP1 MLOAD PUSH1 0x7 SIGNEXTEND PUSH2 0x164 DUP6 ADD MSTORE PUSH1 0x1 DUP1 PUSH1 0xA0 SHL SUB PUSH1 0x20 DUP3 ADD MLOAD AND PUSH2 0x184 DUP6 ADD MSTORE ADD MLOAD PUSH1 0x7 SIGNEXTEND PUSH2 0x1A4 DUP4 ADD MSTORE PUSH1 0x64 CALLDATALOAD PUSH1 0x24 DUP4 ADD MSTORE PUSH1 0x0 PUSH1 0x44 DUP4 ADD MSTORE SUB DUP2 PUSH1 0x0 PUSH2 0x167 GAS CALL SWAP5 DUP6 ISZERO PUSH2 0x14CE JUMPI PUSH1 0x0 SWAP1 PUSH1 0x0 SWAP7 PUSH2 0x1482 JUMPI JUMPDEST POP PUSH1 0x16 SUB PUSH2 0x1445 JUMPI PUSH1 0x1 PUSH1 0x1 PUSH1 0xA0 SHL SUB DUP6 AND PUSH1 0x0 DUP2 DUP2 MSTORE PUSH1 0x2 PUSH1 0x20 MSTORE PUSH1 0x40 SWAP1 KECCAK256 DUP1 SLOAD PUSH1 0x1 PUSH1 0x1 PUSH1 0xA0 SHL SUB NOT AND SWAP1 SWAP2 OR DUP2 SSTORE DUP7 MLOAD SWAP1 SWAP3 SWAP1 PUSH1 0x1 PUSH1 0x1 PUSH1 0x40 SHL SUB DUP2 GT PUSH2 0x1164 JUMPI PUSH2 0xDD9 PUSH1 0x1 DUP6 ADD SLOAD PUSH2 0x2825 JUMP JUMPDEST PUSH1 0x1F DUP2 GT PUSH2 0x1410 JUMPI JUMPDEST POP DUP1 PUSH1 0x20 PUSH1 0x1F DUP3 GT PUSH1 0x1 EQ PUSH2 0x13A2 JUMPI PUSH1 0x0 SWAP2 PUSH2 0x1397 JUMPI JUMPDEST POP DUP2 PUSH1 0x1 SHL SWAP2 PUSH1 0x0 NOT SWAP1 PUSH1 0x3 SHL SHR NOT AND OR PUSH1 0x1 DUP5 ADD SSTORE JUMPDEST DUP5 MLOAD PUSH1 0x1 PUSH1 0x1 PUSH1 0x40 SHL SUB DUP2 GT PUSH2 0x1164 JUMPI PUSH2 0xE2D PUSH1 0x2 DUP6 ADD SLOAD PUSH2 0x2825 JUMP JUMPDEST PUSH1 0x1F DUP2 GT PUSH2 0x1362 JUMPI JUMPDEST POP DUP1 PUSH1 0x20 PUSH1 0x1F DUP3 GT PUSH1 0x1 EQ PUSH2 0x12F5 JUMPI PUSH1 0x0 SWAP2 PUSH2 0x12EA JUMPI JUMPDEST POP DUP2 PUSH1 0x1 SHL SWAP2 PUSH1 0x0 NOT SWAP1 PUSH1 0x3 SHL SHR NOT AND OR PUSH1 0x2 DUP5 ADD SSTORE JUMPDEST DUP1 MLOAD SWAP1 PUSH1 0x1 PUSH1 0x1 PUSH1 0x40 SHL SUB DUP3 GT PUSH2 0x1164 JUMPI DUP2 SWAP1 PUSH2 0xE84 PUSH1 0x3 DUP7 ADD SLOAD PUSH2 0x2825 JUMP JUMPDEST PUSH1 0x1F DUP2 GT PUSH2 0x12B5 JUMPI JUMPDEST POP PUSH1 0x20 SWAP1 PUSH1 0x1F DUP4 GT PUSH1 0x1 EQ PUSH2 0x1243 JUMPI PUSH1 0x0 SWAP3 PUSH2 0x1238 JUMPI JUMPDEST POP POP DUP2 PUSH1 0x1 SHL SWAP2 PUSH1 0x0 NOT SWAP1 PUSH1 0x3 SHL SHR NOT AND OR PUSH1 0x3 DUP4 ADD SSTORE JUMPDEST PUSH1 0x64 CALLDATALOAD PUSH1 0x4 DUP4 ADD SSTORE PUSH1 0x84 CALLDATALOAD PUSH1 0x5 DUP4 ADD SSTORE PUSH1 0x6 DUP3 ADD DUP1 SLOAD PUSH1 0x1 PUSH1 0x1 PUSH1 0xA0 SHL SUB NOT AND PUSH1 0x1 PUSH1 0x1 PUSH1 0xA0 SHL SUB DUP6 AND OR SWAP1 SSTORE PUSH1 0xC4 CALLDATALOAD PUSH1 0x7 DUP4 ADD SSTORE PUSH1 0x8 DUP3 ADD DUP1 SLOAD PUSH1 0xFF NOT AND PUSH1 0x1 OR SWAP1 SSTORE DUP1 MLOAD SWAP1 PUSH1 0x1 PUSH1 0x1 PUSH1 0x40 SHL SUB DUP3 GT PUSH2 0x1164 JUMPI PUSH2 0xF1E PUSH1 0x9 DUP5 ADD SLOAD PUSH2 0x2825 JUMP JUMPDEST PUSH1 0x1F DUP2 GT PUSH2 0x11F8 JUMPI JUMPDEST POP PUSH1 0x20 SWAP1 PUSH1 0x1F DUP4 GT PUSH1 0x1 EQ PUSH2 0x1185 JUMPI PUSH1 0xB SWAP4 SWAP3 SWAP2 PUSH1 0x0 SWAP2 DUP4 PUSH2 0x117A JUMPI JUMPDEST POP POP DUP2 PUSH1 0x1 SHL SWAP2 PUSH1 0x0 NOT SWAP1 PUSH1 0x3 SHL SHR NOT AND OR PUSH1 0x9 DUP3 ADD SSTORE JUMPDEST TIMESTAMP PUSH1 0xA DUP3 ADD SSTORE ADD DUP1 SLOAD PUSH1 0xFF PUSH2 0x104 CALLDATALOAD AND SWAP1 PUSH2 0xFFFF NOT AND OR SWAP1 SSTORE PUSH1 0x40 MLOAD PUSH1 0x20 DUP2 DUP7 MLOAD PUSH2 0xF8A DUP2 DUP4 DUP6 DUP12 ADD PUSH2 0x27EB JUMP JUMPDEST PUSH1 0x6 SWAP1 DUP3 ADD SWAP1 DUP2 MSTORE SUB ADD SWAP1 KECCAK256 DUP1 SLOAD PUSH1 0x1 PUSH1 0x1 PUSH1 0xA0 SHL SUB NOT AND PUSH1 0x1 PUSH1 0x1 PUSH1 0xA0 SHL SUB DUP6 DUP2 AND SWAP2 SWAP1 SWAP2 OR SWAP1 SWAP2 SSTORE DUP2 AND PUSH1 0x0 SWAP1 DUP2 MSTORE PUSH1 0x5 PUSH1 0x20 MSTORE PUSH1 0x40 SWAP1 KECCAK256 DUP1 SLOAD PUSH1 0x1 PUSH1 0x40 SHL DUP2 LT ISZERO PUSH2 0x1164 JUMPI PUSH2 0xFE1 SWAP2 PUSH1 0x1 DUP3 ADD DUP2 SSTORE PUSH2 0x26D4 JUMP JUMPDEST DUP2 SLOAD PUSH1 0x1 PUSH1 0x1 PUSH1 0xA0 SHL SUB DUP7 DUP2 AND PUSH1 0x3 SWAP4 SWAP1 SWAP4 SHL SWAP3 DUP4 SHL SWAP3 SHL NOT AND OR SWAP1 SSTORE PUSH1 0x7 SLOAD PUSH1 0x1 PUSH1 0x40 SHL DUP2 LT ISZERO PUSH2 0x1164 JUMPI PUSH1 0x20 SWAP5 PUSH2 0x1023 DUP3 PUSH1 0x1 PUSH2 0x109C SWAP5 ADD PUSH1 0x7 SSTORE PUSH2 0x269D JUMP JUMPDEST DUP2 SLOAD PUSH1 0x1 PUSH1 0x1 PUSH1 0xA0 SHL SUB PUSH1 0x3 SWAP3 SWAP1 SWAP3 SHL DUP3 DUP2 SHL NOT SWAP1 SWAP2 AND DUP9 DUP4 AND SWAP1 SWAP2 SHL OR SWAP1 SWAP2 SSTORE PUSH32 0x5AA58C694AEB083DF8754BF5E98675317E4137A5A8A2C6188D0228869E43DA7E PUSH1 0x0 DUP2 DUP2 MSTORE DUP1 DUP10 MSTORE PUSH1 0x40 DUP1 DUP3 KECCAK256 SWAP4 DUP8 AND DUP3 MSTORE SWAP3 DUP10 MSTORE SWAP2 SWAP1 SWAP2 KECCAK256 SLOAD PUSH1 0xFF AND ISZERO PUSH2 0x110B JUMPI JUMPDEST POP DUP6 PUSH1 0x40 MLOAD SWAP3 DUP3 DUP5 DUP1 SWAP5 MLOAD SWAP4 DUP5 SWAP3 ADD PUSH2 0x27EB JUMP JUMPDEST DUP2 ADD SUB SWAP1 KECCAK256 SWAP1 PUSH32 0xDE2B3CCF6D86600B94567D8072C7D848050AB01F180A3CB635451540BBB455C8 PUSH2 0x10D8 PUSH1 0x40 MLOAD SWAP5 PUSH1 0x40 DUP7 MSTORE PUSH1 0x40 DUP7 ADD SWAP1 PUSH2 0x2905 JUMP JUMPDEST PUSH1 0x64 CALLDATALOAD DUP6 DUP9 ADD MSTORE PUSH1 0x1 PUSH1 0x1 PUSH1 0xA0 SHL SUB SWAP3 DUP4 AND SWAP5 SWAP3 DUP7 AND SWAP3 SWAP1 DUP2 SWAP1 SUB SWAP1 LOG4 PUSH1 0x1 DUP1 SSTORE PUSH1 0x40 MLOAD PUSH1 0x1 PUSH1 0x1 PUSH1 0xA0 SHL SUB SWAP1 SWAP2 AND DUP2 MSTORE RETURN JUMPDEST PUSH1 0x0 DUP2 DUP2 MSTORE DUP1 DUP9 MSTORE PUSH1 0x40 DUP1 DUP3 KECCAK256 PUSH1 0x1 PUSH1 0x1 PUSH1 0xA0 SHL SUB DUP8 AND DUP1 DUP5 MSTORE SWAP1 DUP11 MSTORE SWAP1 DUP3 KECCAK256 DUP1 SLOAD PUSH1 0xFF NOT AND PUSH1 0x1 OR SWAP1 SSTORE CALLER SWAP3 SWAP1 SWAP2 PUSH32 0x2F8788117E7EFF1D82E926EC794901D17C78024A50270940304540A733656F0D SWAP1 DUP1 LOG4 DUP7 PUSH2 0x1088 JUMP JUMPDEST PUSH4 0x4E487B71 PUSH1 0xE0 SHL PUSH1 0x0 MSTORE PUSH1 0x41 PUSH1 0x4 MSTORE PUSH1 0x24 PUSH1 0x0 REVERT JUMPDEST ADD MLOAD SWAP1 POP DUP9 DUP1 PUSH2 0xF44 JUMP JUMPDEST SWAP1 PUSH1 0x9 DUP5 ADD PUSH1 0x0 MSTORE PUSH1 0x20 PUSH1 0x0 KECCAK256 SWAP2 PUSH1 0x0 JUMPDEST PUSH1 0x1F NOT DUP6 AND DUP2 LT PUSH2 0x11E0 JUMPI POP SWAP2 DUP4 SWAP2 PUSH1 0x1 SWAP4 PUSH1 0xB SWAP7 SWAP6 PUSH1 0x1F NOT DUP2 AND LT PUSH2 0x11C7 JUMPI JUMPDEST POP POP POP DUP2 SHL ADD PUSH1 0x9 DUP3 ADD SSTORE PUSH2 0xF5C JUMP JUMPDEST ADD MLOAD PUSH1 0x0 NOT PUSH1 0xF8 DUP5 PUSH1 0x3 SHL AND SHR NOT AND SWAP1 SSTORE DUP9 DUP1 DUP1 PUSH2 0x11B7 JUMP JUMPDEST SWAP2 SWAP3 PUSH1 0x20 PUSH1 0x1 DUP2 SWAP3 DUP7 DUP6 ADD MLOAD DUP2 SSTORE ADD SWAP5 ADD SWAP3 ADD PUSH2 0x1196 JUMP JUMPDEST PUSH2 0x1228 SWAP1 PUSH1 0x9 DUP6 ADD PUSH1 0x0 MSTORE PUSH1 0x20 PUSH1 0x0 KECCAK256 PUSH1 0x1F DUP6 ADD PUSH1 0x5 SHR DUP2 ADD SWAP2 PUSH1 0x20 DUP7 LT PUSH2 0x122E JUMPI JUMPDEST PUSH1 0x1F ADD PUSH1 0x5 SHR ADD SWAP1 PUSH2 0x2944 JUMP JUMPDEST DUP8 PUSH2 0xF27 JUMP JUMPDEST SWAP1 SWAP2 POP DUP2 SWAP1 PUSH2 0x121B JUMP JUMPDEST ADD MLOAD SWAP1 POP DUP9 DUP1 PUSH2 0xEA4 JUMP JUMPDEST SWAP3 POP PUSH1 0x3 DUP6 ADD PUSH1 0x0 MSTORE PUSH1 0x20 PUSH1 0x0 KECCAK256 SWAP1 PUSH1 0x0 SWAP4 JUMPDEST PUSH1 0x1F NOT DUP5 AND DUP6 LT PUSH2 0x129A JUMPI PUSH1 0x1 SWAP5 POP DUP4 PUSH1 0x1F NOT DUP2 AND LT PUSH2 0x1281 JUMPI JUMPDEST POP POP POP DUP2 SHL ADD PUSH1 0x3 DUP4 ADD SSTORE PUSH2 0xEBC JUMP JUMPDEST ADD MLOAD PUSH1 0x0 NOT PUSH1 0xF8 DUP5 PUSH1 0x3 SHL AND SHR NOT AND SWAP1 SSTORE DUP9 DUP1 DUP1 PUSH2 0x1271 JUMP JUMPDEST DUP2 DUP2 ADD MLOAD DUP4 SSTORE PUSH1 0x20 SWAP5 DUP6 ADD SWAP5 PUSH1 0x1 SWAP1 SWAP4 ADD SWAP3 SWAP1 SWAP2 ADD SWAP1 PUSH2 0x1256 JUMP JUMPDEST PUSH2 0x12E4 SWAP1 PUSH1 0x3 DUP8 ADD PUSH1 0x0 MSTORE PUSH1 0x20 PUSH1 0x0 KECCAK256 PUSH1 0x1F DUP6 ADD PUSH1 0x5 SHR DUP2 ADD SWAP2 PUSH1 0x20 DUP7 LT PUSH2 0x122E JUMPI PUSH1 0x1F ADD PUSH1 0x5 SHR ADD SWAP1 PUSH2 0x2944 JUMP JUMPDEST DUP10 PUSH2 0xE8D JUMP JUMPDEST SWAP1 POP DUP7 ADD MLOAD DUP10 PUSH2 0xE4D JUMP JUMPDEST SWAP2 POP PUSH1 0x2 DUP6 ADD PUSH1 0x0 MSTORE PUSH1 0x20 PUSH1 0x0 KECCAK256 PUSH1 0x0 SWAP3 JUMPDEST PUSH1 0x1F NOT DUP4 AND DUP5 LT PUSH2 0x134A JUMPI PUSH1 0x1 SWAP4 POP DUP3 PUSH1 0x1F NOT DUP2 AND LT PUSH2 0x1331 JUMPI JUMPDEST POP POP DUP2 SHL ADD PUSH1 0x2 DUP5 ADD SSTORE PUSH2 0xE64 JUMP JUMPDEST DUP9 ADD MLOAD PUSH1 0x0 NOT PUSH1 0xF8 DUP5 PUSH1 0x3 SHL AND SHR NOT AND SWAP1 SSTORE DUP10 DUP1 PUSH2 0x1322 JUMP JUMPDEST DUP9 DUP2 ADD MLOAD DUP3 SSTORE PUSH1 0x20 SWAP4 DUP5 ADD SWAP4 PUSH1 0x1 SWAP1 SWAP3 ADD SWAP2 ADD PUSH2 0x1307 JUMP JUMPDEST PUSH2 0x1391 SWAP1 PUSH1 0x2 DUP7 ADD PUSH1 0x0 MSTORE PUSH1 0x20 PUSH1 0x0 KECCAK256 PUSH1 0x1F DUP5 ADD PUSH1 0x5 SHR DUP2 ADD SWAP2 PUSH1 0x20 DUP6 LT PUSH2 0x122E JUMPI PUSH1 0x1F ADD PUSH1 0x5 SHR ADD SWAP1 PUSH2 0x2944 JUMP JUMPDEST DUP9 PUSH2 0xE36 JUMP JUMPDEST SWAP1 POP DUP9 ADD MLOAD DUP10 PUSH2 0xDF9 JUMP JUMPDEST SWAP2 POP PUSH1 0x1 DUP6 ADD PUSH1 0x0 MSTORE PUSH1 0x20 PUSH1 0x0 KECCAK256 PUSH1 0x0 SWAP3 JUMPDEST DUP11 PUSH1 0x1F NOT DUP5 AND DUP6 LT PUSH2 0x13F9 JUMPI POP PUSH1 0x1 SWAP4 POP DUP3 PUSH1 0x1F NOT DUP2 AND LT PUSH2 0x13E0 JUMPI JUMPDEST POP POP DUP2 SHL ADD PUSH1 0x1 DUP5 ADD SSTORE PUSH2 0xE10 JUMP JUMPDEST DUP11 ADD MLOAD PUSH1 0x0 NOT PUSH1 0xF8 DUP5 PUSH1 0x3 SHL AND SHR NOT AND SWAP1 SSTORE DUP10 DUP1 PUSH2 0x13D1 JUMP JUMPDEST DUP2 ADD MLOAD DUP3 SSTORE PUSH1 0x20 SWAP4 DUP5 ADD SWAP4 PUSH1 0x1 SWAP1 SWAP3 ADD SWAP2 ADD PUSH2 0x13B4 JUMP JUMPDEST PUSH2 0x143F SWAP1 PUSH1 0x1 DUP7 ADD PUSH1 0x0 MSTORE PUSH1 0x20 PUSH1 0x0 KECCAK256 PUSH1 0x1F DUP5 ADD PUSH1 0x5 SHR DUP2 ADD SWAP2 PUSH1 0x20 DUP6 LT PUSH2 0x122E JUMPI PUSH1 0x1F ADD PUSH1 0x5 SHR ADD SWAP1 PUSH2 0x2944 JUMP JUMPDEST DUP9 PUSH2 0xDE2 JUMP JUMPDEST PUSH1 0x40 MLOAD PUSH3 0x461BCD PUSH1 0xE5 SHL DUP2 MSTORE PUSH1 0x20 PUSH1 0x4 DUP3 ADD MSTORE PUSH1 0x15 PUSH1 0x24 DUP3 ADD MSTORE PUSH21 0x151BDAD95B8818DC99585D1A5BDB8819985A5B1959 PUSH1 0x5A SHL PUSH1 0x44 DUP3 ADD MSTORE PUSH1 0x64 SWAP1 REVERT JUMPDEST SWAP6 POP POP PUSH1 0x40 DUP6 RETURNDATASIZE PUSH1 0x40 GT PUSH2 0x14C6 JUMPI JUMPDEST DUP2 PUSH2 0x149E PUSH1 0x40 SWAP4 DUP4 PUSH2 0x2774 JUMP JUMPDEST DUP2 ADD SUB SLT PUSH2 0x3C8 JUMPI DUP5 MLOAD PUSH1 0x20 SWAP1 SWAP6 ADD MLOAD SWAP5 PUSH1 0x1 PUSH1 0x1 PUSH1 0xA0 SHL SUB DUP7 AND DUP7 SUB PUSH2 0x3C8 JUMPI PUSH1 0x16 PUSH2 0xD88 JUMP JUMPDEST RETURNDATASIZE SWAP2 POP PUSH2 0x1491 JUMP JUMPDEST PUSH1 0x40 MLOAD RETURNDATASIZE PUSH1 0x0 DUP3 RETURNDATACOPY RETURNDATASIZE SWAP1 REVERT JUMPDEST SWAP2 SWAP4 SWAP7 SWAP6 POP SWAP2 SWAP4 PUSH1 0x20 DUP1 PUSH2 0x1541 PUSH1 0x1 SWAP4 PUSH1 0x1F NOT DUP7 DUP3 SUB ADD DUP8 MSTORE DUP11 MLOAD SWAP1 DUP2 MLOAD DUP2 MSTORE DUP4 DUP3 ADD MLOAD ISZERO ISZERO DUP5 DUP3 ADD MSTORE DUP6 DUP1 PUSH1 0xA0 SHL SUB PUSH1 0x40 DUP4 ADD MLOAD AND PUSH1 0x40 DUP3 ADD MSTORE PUSH1 0x80 PUSH2 0x1530 PUSH1 0x60 DUP5 ADD MLOAD PUSH1 0xA0 PUSH1 0x60 DUP6 ADD MSTORE PUSH1 0xA0 DUP5 ADD SWAP1 PUSH2 0x2905 JUMP JUMPDEST SWAP3 ADD MLOAD SWAP1 PUSH1 0x80 DUP2 DUP5 SUB SWAP2 ADD MSTORE PUSH2 0x2905 JUMP JUMPDEST SWAP9 ADD SWAP4 ADD SWAP4 ADD SWAP1 SWAP3 DUP12 SWAP6 SWAP7 SWAP5 SWAP3 SWAP4 PUSH2 0xD1E JUMP JUMPDEST PUSH1 0x20 SWAP1 PUSH1 0x40 MLOAD PUSH2 0x1563 DUP2 PUSH2 0x26EC JUMP JUMPDEST PUSH1 0x0 DUP2 MSTORE PUSH1 0x0 DUP4 DUP3 ADD MSTORE PUSH1 0x0 PUSH1 0x40 DUP3 ADD MSTORE PUSH1 0x60 DUP1 DUP3 ADD MSTORE PUSH1 0x60 PUSH1 0x80 DUP3 ADD MSTORE DUP3 DUP3 DUP6 ADD ADD MSTORE ADD PUSH2 0xBF2 JUMP JUMPDEST PUSH1 0x40 MLOAD PUSH3 0x461BCD PUSH1 0xE5 SHL DUP2 MSTORE PUSH1 0x20 PUSH1 0x4 DUP3 ADD MSTORE PUSH1 0x1A PUSH1 0x24 DUP3 ADD MSTORE PUSH32 0x50726F706572747920494420616C726561647920657869737473000000000000 PUSH1 0x44 DUP3 ADD MSTORE PUSH1 0x64 SWAP1 REVERT JUMPDEST PUSH1 0x64 PUSH1 0x40 MLOAD PUSH3 0x461BCD PUSH1 0xE5 SHL DUP2 MSTORE PUSH1 0x20 PUSH1 0x4 DUP3 ADD MSTORE PUSH1 0x20 PUSH1 0x24 DUP3 ADD MSTORE PUSH32 0x4D616E6167656D656E74206665652063616E6E6F742065786365656420323025 PUSH1 0x44 DUP3 ADD MSTORE REVERT JUMPDEST PUSH1 0x64 PUSH1 0x40 MLOAD PUSH3 0x461BCD PUSH1 0xE5 SHL DUP2 MSTORE PUSH1 0x20 PUSH1 0x4 DUP3 ADD MSTORE PUSH1 0x20 PUSH1 0x24 DUP3 ADD MSTORE PUSH32 0x496E76616C69642070726F7065727479206D616E616765722061646472657373 PUSH1 0x44 DUP3 ADD MSTORE REVERT JUMPDEST PUSH1 0x40 MLOAD PUSH3 0x461BCD PUSH1 0xE5 SHL DUP2 MSTORE PUSH1 0x20 PUSH1 0x4 DUP3 ADD MSTORE PUSH1 0x26 PUSH1 0x24 DUP3 ADD MSTORE PUSH32 0x50726963652070657220746F6B656E206D757374206265206772656174657220 PUSH1 0x44 DUP3 ADD MSTORE PUSH6 0x7468616E203 PUSH1 0xD4 SHL PUSH1 0x64 DUP3 ADD MSTORE PUSH1 0x84 SWAP1 REVERT JUMPDEST PUSH1 0x40 MLOAD PUSH3 0x461BCD PUSH1 0xE5 SHL DUP2 MSTORE PUSH1 0x20 PUSH1 0x4 DUP3 ADD MSTORE PUSH1 0x23 PUSH1 0x24 DUP3 ADD MSTORE PUSH32 0x546F74616C20737570706C79206D757374206265206772656174657220746861 PUSH1 0x44 DUP3 ADD MSTORE PUSH3 0x6E203 PUSH1 0xEC SHL PUSH1 0x64 DUP3 ADD MSTORE PUSH1 0x84 SWAP1 REVERT JUMPDEST PUSH1 0x40 MLOAD PUSH3 0x461BCD PUSH1 0xE5 SHL DUP2 MSTORE PUSH1 0x20 PUSH1 0x4 DUP3 ADD MSTORE PUSH1 0x16 PUSH1 0x24 DUP3 ADD MSTORE PUSH22 0x53796D626F6C2063616E6E6F7420626520656D707479 PUSH1 0x50 SHL PUSH1 0x44 DUP3 ADD MSTORE PUSH1 0x64 SWAP1 REVERT JUMPDEST PUSH1 0x40 MLOAD PUSH3 0x461BCD PUSH1 0xE5 SHL DUP2 MSTORE PUSH1 0x20 PUSH1 0x4 DUP3 ADD MSTORE PUSH1 0x14 PUSH1 0x24 DUP3 ADD MSTORE PUSH20 0x4E616D652063616E6E6F7420626520656D707479 PUSH1 0x60 SHL PUSH1 0x44 DUP3 ADD MSTORE PUSH1 0x64 SWAP1 REVERT JUMPDEST PUSH1 0x40 MLOAD PUSH3 0x461BCD PUSH1 0xE5 SHL DUP2 MSTORE PUSH1 0x20 PUSH1 0x4 DUP3 ADD MSTORE PUSH1 0x1B PUSH1 0x24 DUP3 ADD MSTORE PUSH32 0x50726F70657274792049442063616E6E6F7420626520656D7074790000000000 PUSH1 0x44 DUP3 ADD MSTORE PUSH1 0x64 SWAP1 REVERT JUMPDEST PUSH2 0x17C7 CALLER PUSH2 0x2BE3 JUMP JUMPDEST PUSH1 0x40 MLOAD SWAP1 PUSH32 0xE70D28EBD9D7D9A3DD77D46AE2481F301C80806F395B08DE31D8E095B1C46CEE PUSH2 0x17F5 DUP4 PUSH2 0x2759 JUMP JUMPDEST PUSH1 0x42 DUP4 MSTORE PUSH1 0x20 DUP4 ADD SWAP1 PUSH1 0x60 CALLDATASIZE DUP4 CALLDATACOPY DUP4 MLOAD ISZERO PUSH2 0x1974 JUMPI PUSH1 0x30 DUP3 MSTORE8 DUP4 MLOAD PUSH1 0x1 SWAP1 DUP2 LT ISZERO PUSH2 0x1974 JUMPI PUSH1 0x78 PUSH1 0x21 DUP7 ADD MSTORE8 PUSH1 0x41 SWAP1 JUMPDEST DUP1 DUP3 GT PUSH2 0x191A JUMPI POP POP PUSH2 0x18D6 JUMPI PUSH1 0x48 PUSH2 0x18A3 SWAP3 PUSH2 0x18B2 SWAP3 PUSH2 0x18D2 SWAP6 PUSH1 0x40 MLOAD SWAP6 DUP7 SWAP4 PUSH23 0x20B1B1B2B9B9A1B7B73A3937B61D1030B1B1B7BAB73A1 PUSH1 0x4D SHL PUSH1 0x20 DUP7 ADD MSTORE PUSH2 0x187A DUP2 MLOAD DUP1 SWAP3 PUSH1 0x20 PUSH1 0x37 DUP10 ADD SWAP2 ADD PUSH2 0x27EB JUMP JUMPDEST DUP5 ADD SWAP2 PUSH17 0x1034B99036B4B9B9B4B733903937B6329 PUSH1 0x7D SHL PUSH1 0x37 DUP5 ADD MSTORE MLOAD DUP1 SWAP4 DUP7 DUP5 ADD SWAP1 PUSH2 0x27EB JUMP JUMPDEST ADD SUB PUSH1 0x28 DUP2 ADD DUP5 MSTORE ADD DUP3 PUSH2 0x2774 JUMP JUMPDEST PUSH1 0x40 MLOAD PUSH3 0x461BCD PUSH1 0xE5 SHL DUP2 MSTORE PUSH1 0x20 PUSH1 0x4 DUP3 ADD MSTORE SWAP2 DUP3 SWAP2 PUSH1 0x24 DUP4 ADD SWAP1 PUSH2 0x2905 JUMP JUMPDEST SUB SWAP1 REVERT JUMPDEST PUSH1 0x64 PUSH1 0x40 MLOAD PUSH3 0x461BCD PUSH1 0xE5 SHL DUP2 MSTORE PUSH1 0x20 PUSH1 0x4 DUP3 ADD MSTORE PUSH1 0x20 PUSH1 0x24 DUP3 ADD MSTORE PUSH32 0x537472696E67733A20686578206C656E67746820696E73756666696369656E74 PUSH1 0x44 DUP3 ADD MSTORE REVERT JUMPDEST SWAP1 SWAP2 PUSH1 0xF DUP2 AND PUSH1 0x10 DUP2 LT ISZERO PUSH2 0x1974 JUMPI PUSH16 0x181899199A1A9B1B9C1CB0B131B232B3 PUSH1 0x81 SHL SWAP1 BYTE PUSH2 0x1949 DUP5 DUP9 PUSH2 0x2BD2 JUMP JUMPDEST MSTORE8 PUSH1 0x4 SHR SWAP2 DUP1 ISZERO PUSH2 0x195E JUMPI PUSH1 0x0 NOT ADD SWAP1 PUSH2 0x1825 JUMP JUMPDEST PUSH4 0x4E487B71 PUSH1 0xE0 SHL PUSH1 0x0 MSTORE PUSH1 0x11 PUSH1 0x4 MSTORE PUSH1 0x24 PUSH1 0x0 REVERT JUMPDEST PUSH4 0x4E487B71 PUSH1 0xE0 SHL PUSH1 0x0 MSTORE PUSH1 0x32 PUSH1 0x4 MSTORE PUSH1 0x24 PUSH1 0x0 REVERT JUMPDEST CALLVALUE PUSH2 0x3C8 JUMPI PUSH1 0x0 CALLDATASIZE PUSH1 0x3 NOT ADD SLT PUSH2 0x3C8 JUMPI PUSH1 0x20 PUSH1 0x40 MLOAD PUSH1 0x0 DUP2 MSTORE RETURN JUMPDEST CALLVALUE PUSH2 0x3C8 JUMPI PUSH1 0x40 CALLDATASIZE PUSH1 0x3 NOT ADD SLT PUSH2 0x3C8 JUMPI PUSH2 0x19BF PUSH2 0x2687 JUMP JUMPDEST PUSH1 0x4 CALLDATALOAD PUSH1 0x0 MSTORE PUSH1 0x0 PUSH1 0x20 MSTORE PUSH1 0x40 PUSH1 0x0 KECCAK256 SWAP1 PUSH1 0x1 DUP1 PUSH1 0xA0 SHL SUB AND PUSH1 0x0 MSTORE PUSH1 0x20 MSTORE PUSH1 0x20 PUSH1 0xFF PUSH1 0x40 PUSH1 0x0 KECCAK256 SLOAD AND PUSH1 0x40 MLOAD SWAP1 ISZERO ISZERO DUP2 MSTORE RETURN JUMPDEST CALLVALUE PUSH2 0x3C8 JUMPI PUSH1 0x20 DUP1 PUSH1 0x3 NOT CALLDATASIZE ADD SLT PUSH2 0x3C8 JUMPI PUSH1 0x1 PUSH1 0x1 PUSH1 0xA0 SHL SUB SWAP1 DUP2 PUSH2 0x1A17 PUSH2 0x2671 JUMP JUMPDEST AND PUSH1 0x0 MSTORE PUSH1 0x5 DUP2 MSTORE PUSH1 0x40 PUSH1 0x0 KECCAK256 PUSH1 0x40 MLOAD SWAP2 DUP3 DUP2 DUP4 SLOAD SWAP2 DUP3 DUP2 MSTORE ADD SWAP1 DUP2 SWAP4 PUSH1 0x0 MSTORE DUP3 PUSH1 0x0 KECCAK256 SWAP1 PUSH1 0x0 JUMPDEST DUP2 DUP2 LT PUSH2 0x1A90 JUMPI POP POP POP DUP4 PUSH2 0x1A55 SWAP2 SUB DUP5 PUSH2 0x2774 JUMP JUMPDEST PUSH1 0x40 MLOAD SWAP3 DUP2 DUP5 ADD SWAP1 DUP3 DUP6 MSTORE MLOAD DUP1 SWAP2 MSTORE PUSH1 0x40 DUP5 ADD SWAP3 SWAP2 PUSH1 0x0 JUMPDEST DUP3 DUP2 LT PUSH2 0x1A7A JUMPI DUP6 DUP6 SUB DUP7 RETURN JUMPDEST DUP4 MLOAD DUP8 AND DUP6 MSTORE SWAP4 DUP2 ADD SWAP4 SWAP3 DUP2 ADD SWAP3 PUSH1 0x1 ADD PUSH2 0x1A6D JUMP JUMPDEST DUP3 SLOAD DUP9 AND DUP5 MSTORE SWAP3 DUP5 ADD SWAP3 PUSH1 0x1 SWAP3 DUP4 ADD SWAP3 ADD PUSH2 0x1A3F JUMP JUMPDEST CALLVALUE PUSH2 0x3C8 JUMPI PUSH1 0xC0 CALLDATASIZE PUSH1 0x3 NOT ADD SLT PUSH2 0x3C8 JUMPI PUSH2 0x1ABF PUSH2 0x2671 JUMP JUMPDEST PUSH1 0x24 CALLDATALOAD PUSH1 0x1 PUSH1 0x1 PUSH1 0x40 SHL SUB DUP2 GT PUSH2 0x3C8 JUMPI PUSH2 0x1ADE SWAP1 CALLDATASIZE SWAP1 PUSH1 0x4 ADD PUSH2 0x2795 JUMP JUMPDEST PUSH1 0x84 CALLDATALOAD PUSH1 0x1 PUSH1 0x1 PUSH1 0x40 SHL SUB DUP2 GT PUSH2 0x3C8 JUMPI CALLDATASIZE PUSH1 0x23 DUP3 ADD SLT ISZERO PUSH2 0x3C8 JUMPI DUP1 PUSH1 0x4 ADD CALLDATALOAD SWAP2 PUSH2 0x1B09 DUP4 PUSH2 0x280E JUMP JUMPDEST SWAP2 PUSH2 0x1B17 PUSH1 0x40 MLOAD SWAP4 DUP5 PUSH2 0x2774 JUMP JUMPDEST DUP4 DUP4 MSTORE PUSH1 0x20 DUP4 ADD SWAP1 PUSH1 0x24 DUP3 SWAP6 PUSH1 0x5 SHL DUP3 ADD ADD SWAP1 CALLDATASIZE DUP3 GT PUSH2 0x3C8 JUMPI PUSH1 0x24 DUP2 ADD SWAP3 JUMPDEST DUP3 DUP5 LT PUSH2 0x2096 JUMPI POP POP POP POP PUSH1 0xA4 CALLDATALOAD PUSH1 0x1 PUSH1 0x1 PUSH1 0x40 SHL SUB DUP2 GT PUSH2 0x3C8 JUMPI PUSH2 0x1B61 SWAP1 CALLDATASIZE SWAP1 PUSH1 0x4 ADD PUSH2 0x2795 JUMP JUMPDEST SWAP3 PUSH1 0x1 DUP1 PUSH1 0xA0 SHL SUB SWAP3 DUP4 DUP7 AND PUSH1 0x0 MSTORE PUSH1 0x2 PUSH1 0x20 MSTORE PUSH2 0x1B89 PUSH1 0xFF PUSH1 0x8 PUSH1 0x40 PUSH1 0x0 KECCAK256 ADD SLOAD AND PUSH2 0x2968 JUMP JUMPDEST CALLER PUSH1 0x0 SWAP1 DUP2 MSTORE PUSH32 0x3A814D6EAC3306BF154F1D02BC4F57BB4F0390C16247E6C5AFA43A262F9BF195 PUSH1 0x20 MSTORE PUSH1 0x40 SWAP1 KECCAK256 SLOAD PUSH1 0xFF AND DUP1 ISZERO PUSH2 0x2078 JUMPI JUMPDEST ISZERO PUSH2 0x2029 JUMPI DUP4 DUP7 AND PUSH1 0x0 MSTORE PUSH1 0x3 PUSH1 0x20 MSTORE PUSH1 0x40 PUSH1 0x0 KECCAK256 SWAP3 DUP1 MLOAD SWAP1 PUSH1 0x1 PUSH1 0x1 PUSH1 0x40 SHL SUB DUP3 GT PUSH2 0x1164 JUMPI DUP2 SWAP1 PUSH2 0x1BF5 DUP7 SLOAD PUSH2 0x2825 JUMP JUMPDEST PUSH1 0x1F DUP2 GT PUSH2 0x1FF7 JUMPI JUMPDEST POP PUSH1 0x20 SWAP1 PUSH1 0x1F DUP4 GT PUSH1 0x1 EQ PUSH2 0x1F8B JUMPI PUSH1 0x0 SWAP3 PUSH2 0x1F80 JUMPI JUMPDEST POP POP DUP2 PUSH1 0x1 SHL SWAP2 PUSH1 0x0 NOT SWAP1 PUSH1 0x3 SHL SHR NOT AND OR DUP4 SSTORE JUMPDEST PUSH1 0x44 CALLDATALOAD PUSH1 0x1 DUP5 ADD SSTORE PUSH1 0x64 CALLDATALOAD PUSH1 0x2 DUP5 ADD SSTORE MLOAD SWAP1 PUSH1 0x1 PUSH1 0x40 SHL DUP3 GT PUSH2 0x1164 JUMPI PUSH1 0x3 DUP4 ADD SLOAD DUP3 PUSH1 0x3 DUP6 ADD SSTORE DUP1 DUP4 LT PUSH2 0x1F08 JUMPI JUMPDEST POP SWAP1 PUSH1 0x3 DUP4 ADD PUSH1 0x0 MSTORE PUSH1 0x20 PUSH1 0x0 KECCAK256 SWAP2 PUSH1 0x0 SWAP1 JUMPDEST DUP3 DUP3 LT PUSH2 0x1DF3 JUMPI POP POP POP POP PUSH1 0x4 TIMESTAMP SWAP2 ADD SSTORE DUP1 DUP4 AND PUSH1 0x0 MSTORE PUSH1 0x2 PUSH1 0x20 MSTORE PUSH1 0x9 PUSH1 0x40 PUSH1 0x0 KECCAK256 ADD DUP3 MLOAD PUSH1 0x1 PUSH1 0x1 PUSH1 0x40 SHL SUB DUP2 GT PUSH2 0x1164 JUMPI PUSH2 0x1CAB DUP3 SLOAD PUSH2 0x2825 JUMP JUMPDEST PUSH1 0x1F DUP2 GT PUSH2 0x1DC1 JUMPI JUMPDEST POP PUSH1 0x20 PUSH1 0x1F DUP3 GT PUSH1 0x1 EQ PUSH2 0x1D35 JUMPI SWAP2 DUP2 PUSH2 0x1D1C SWAP5 SWAP3 PUSH32 0xEE2B3F3B72E6420293F6A9F2071F21F522642910683A99A1CECCAC26CA89424E SWAP7 SWAP5 PUSH1 0x0 SWAP2 PUSH2 0x1D2A JUMPI JUMPDEST POP DUP2 PUSH1 0x1 SHL SWAP2 PUSH1 0x0 NOT SWAP1 PUSH1 0x3 SHL SHR NOT AND OR SWAP1 SSTORE JUMPDEST PUSH1 0x40 MLOAD SWAP3 DUP4 SWAP3 PUSH1 0x40 DUP5 MSTORE PUSH1 0x40 DUP5 ADD SWAP1 PUSH2 0x2905 JUMP JUMPDEST SWAP5 TIMESTAMP PUSH1 0x20 DUP5 ADD MSTORE AND SWAP4 SUB SWAP1 LOG2 STOP JUMPDEST SWAP1 POP DUP5 ADD MLOAD DUP9 PUSH2 0x1CF4 JUMP JUMPDEST PUSH1 0x1F NOT DUP3 AND SWAP1 DUP4 PUSH1 0x0 MSTORE PUSH1 0x20 PUSH1 0x0 KECCAK256 SWAP2 PUSH1 0x0 JUMPDEST DUP2 DUP2 LT PUSH2 0x1DA9 JUMPI POP SWAP3 PUSH32 0xEE2B3F3B72E6420293F6A9F2071F21F522642910683A99A1CECCAC26CA89424E SWAP7 SWAP5 SWAP3 PUSH1 0x1 SWAP3 DUP3 PUSH2 0x1D1C SWAP9 SWAP7 LT PUSH2 0x1D90 JUMPI JUMPDEST POP POP DUP2 SHL ADD SWAP1 SSTORE PUSH2 0x1D08 JUMP JUMPDEST DUP7 ADD MLOAD PUSH1 0x0 NOT PUSH1 0xF8 DUP5 PUSH1 0x3 SHL AND SHR NOT AND SWAP1 SSTORE DUP9 DUP1 PUSH2 0x1D84 JUMP JUMPDEST SWAP2 SWAP3 PUSH1 0x20 PUSH1 0x1 DUP2 SWAP3 DUP7 DUP12 ADD MLOAD DUP2 SSTORE ADD SWAP5 ADD SWAP3 ADD PUSH2 0x1D48 JUMP JUMPDEST PUSH2 0x1DED SWAP1 DUP4 PUSH1 0x0 MSTORE PUSH1 0x20 PUSH1 0x0 KECCAK256 PUSH1 0x1F DUP5 ADD PUSH1 0x5 SHR DUP2 ADD SWAP2 PUSH1 0x20 DUP6 LT PUSH2 0x122E JUMPI PUSH1 0x1F ADD PUSH1 0x5 SHR ADD SWAP1 PUSH2 0x2944 JUMP JUMPDEST DUP6 PUSH2 0x1CB4 JUMP JUMPDEST DUP1 MLOAD DUP1 MLOAD SWAP1 PUSH1 0x1 PUSH1 0x1 PUSH1 0x40 SHL SUB DUP3 GT PUSH2 0x1164 JUMPI PUSH2 0x1E10 DUP7 SLOAD PUSH2 0x2825 JUMP JUMPDEST PUSH1 0x1F DUP2 GT PUSH2 0x1ED6 JUMPI JUMPDEST POP PUSH1 0x20 SWAP1 PUSH1 0x1F DUP4 GT PUSH1 0x1 EQ PUSH2 0x1E66 JUMPI SWAP3 DUP3 PUSH1 0x1 SWAP5 SWAP4 PUSH1 0x20 SWAP4 DUP7 SWAP6 PUSH1 0x0 SWAP3 PUSH2 0x1E5B JUMPI JUMPDEST POP POP PUSH1 0x0 NOT PUSH1 0x3 DUP4 SWAP1 SHL SHR NOT AND SWAP1 DUP5 SHL OR DUP8 SSTORE JUMPDEST ADD SWAP5 ADD SWAP2 ADD SWAP1 SWAP3 PUSH2 0x1C6D JUMP JUMPDEST ADD MLOAD SWAP1 POP DUP14 DUP1 PUSH2 0x1E3B JUMP JUMPDEST SWAP1 DUP7 PUSH1 0x0 MSTORE PUSH1 0x20 PUSH1 0x0 KECCAK256 SWAP2 PUSH1 0x0 JUMPDEST PUSH1 0x1F NOT DUP6 AND DUP2 LT PUSH2 0x1EBE JUMPI POP DUP4 PUSH1 0x20 SWAP4 PUSH1 0x1 SWAP7 SWAP4 DUP8 SWAP7 SWAP4 DUP8 SWAP5 PUSH1 0x1F NOT DUP2 AND LT PUSH2 0x1EA5 JUMPI JUMPDEST POP POP POP DUP2 SHL ADD DUP8 SSTORE PUSH2 0x1E4F JUMP JUMPDEST ADD MLOAD PUSH1 0x0 NOT PUSH1 0xF8 DUP5 PUSH1 0x3 SHL AND SHR NOT AND SWAP1 SSTORE DUP14 DUP1 DUP1 PUSH2 0x1E98 JUMP JUMPDEST SWAP2 SWAP3 PUSH1 0x20 PUSH1 0x1 DUP2 SWAP3 DUP7 DUP6 ADD MLOAD DUP2 SSTORE ADD SWAP5 ADD SWAP3 ADD PUSH2 0x1E74 JUMP JUMPDEST PUSH2 0x1F02 SWAP1 DUP8 PUSH1 0x0 MSTORE PUSH1 0x20 PUSH1 0x0 KECCAK256 PUSH1 0x1F DUP6 ADD PUSH1 0x5 SHR DUP2 ADD SWAP2 PUSH1 0x20 DUP7 LT PUSH2 0x122E JUMPI PUSH1 0x1F ADD PUSH1 0x5 SHR ADD SWAP1 PUSH2 0x2944 JUMP JUMPDEST DUP11 PUSH2 0x1E19 JUMP JUMPDEST PUSH1 0x3 DUP5 ADD PUSH1 0x0 MSTORE PUSH1 0x20 PUSH1 0x0 KECCAK256 SWAP1 DUP4 DUP3 ADD JUMPDEST DUP2 DUP4 ADD DUP2 LT PUSH2 0x1F29 JUMPI POP POP PUSH2 0x1C5A JUMP JUMPDEST DUP1 PUSH2 0x1F36 PUSH1 0x1 SWAP3 SLOAD PUSH2 0x2825 JUMP JUMPDEST DUP1 PUSH2 0x1F43 JUMPI JUMPDEST POP ADD PUSH2 0x1F19 JUMP JUMPDEST PUSH1 0x1F DUP2 GT DUP4 EQ PUSH2 0x1F59 JUMPI POP PUSH1 0x0 DUP2 SSTORE JUMPDEST DUP11 PUSH2 0x1F3C JUMP JUMPDEST PUSH1 0x0 SWAP1 DUP3 DUP3 MSTORE PUSH2 0x1F77 PUSH1 0x1F PUSH1 0x20 DUP5 KECCAK256 SWAP3 ADD PUSH1 0x5 SHR DUP3 ADD DUP6 DUP4 ADD PUSH2 0x2944 JUMP JUMPDEST DUP2 DUP4 SSTORE SSTORE PUSH2 0x1F53 JUMP JUMPDEST ADD MLOAD SWAP1 POP DUP9 DUP1 PUSH2 0x1C15 JUMP JUMPDEST SWAP3 POP DUP6 PUSH1 0x0 MSTORE PUSH1 0x20 PUSH1 0x0 KECCAK256 SWAP1 PUSH1 0x0 SWAP4 JUMPDEST PUSH1 0x1F NOT DUP5 AND DUP6 LT PUSH2 0x1FDC JUMPI PUSH1 0x1 SWAP5 POP DUP4 PUSH1 0x1F NOT DUP2 AND LT PUSH2 0x1FC3 JUMPI JUMPDEST POP POP POP DUP2 SHL ADD DUP4 SSTORE PUSH2 0x1C2A JUMP JUMPDEST ADD MLOAD PUSH1 0x0 NOT PUSH1 0xF8 DUP5 PUSH1 0x3 SHL AND SHR NOT AND SWAP1 SSTORE DUP9 DUP1 DUP1 PUSH2 0x1FB6 JUMP JUMPDEST DUP2 DUP2 ADD MLOAD DUP4 SSTORE PUSH1 0x20 SWAP5 DUP6 ADD SWAP5 PUSH1 0x1 SWAP1 SWAP4 ADD SWAP3 SWAP1 SWAP2 ADD SWAP1 PUSH2 0x1F9B JUMP JUMPDEST PUSH2 0x2023 SWAP1 DUP8 PUSH1 0x0 MSTORE PUSH1 0x20 PUSH1 0x0 KECCAK256 PUSH1 0x1F DUP6 ADD PUSH1 0x5 SHR DUP2 ADD SWAP2 PUSH1 0x20 DUP7 LT PUSH2 0x122E JUMPI PUSH1 0x1F ADD PUSH1 0x5 SHR ADD SWAP1 PUSH2 0x2944 JUMP JUMPDEST DUP10 PUSH2 0x1BFE JUMP JUMPDEST PUSH1 0x40 MLOAD PUSH3 0x461BCD PUSH1 0xE5 SHL DUP2 MSTORE PUSH1 0x20 PUSH1 0x4 DUP3 ADD MSTORE PUSH1 0x21 PUSH1 0x24 DUP3 ADD MSTORE PUSH32 0x4E6F7420617574686F72697A656420746F20757064617465206D657461646174 PUSH1 0x44 DUP3 ADD MSTORE PUSH1 0x61 PUSH1 0xF8 SHL PUSH1 0x64 DUP3 ADD MSTORE PUSH1 0x84 SWAP1 REVERT JUMPDEST POP DUP4 DUP7 AND PUSH1 0x0 MSTORE PUSH1 0x2 PUSH1 0x20 MSTORE CALLER DUP5 PUSH1 0x6 PUSH1 0x40 PUSH1 0x0 KECCAK256 ADD SLOAD AND EQ PUSH2 0x1BC2 JUMP JUMPDEST DUP4 CALLDATALOAD PUSH1 0x1 PUSH1 0x1 PUSH1 0x40 SHL SUB DUP2 GT PUSH2 0x3C8 JUMPI PUSH1 0x20 SWAP2 PUSH2 0x20BA DUP4 SWAP3 PUSH1 0x24 CALLDATASIZE SWAP2 DUP8 ADD ADD PUSH2 0x2795 JUMP JUMPDEST DUP2 MSTORE ADD SWAP4 ADD SWAP3 PUSH2 0x1B37 JUMP JUMPDEST CALLVALUE PUSH2 0x3C8 JUMPI PUSH1 0x80 CALLDATASIZE PUSH1 0x3 NOT ADD SLT PUSH2 0x3C8 JUMPI PUSH2 0x20DE PUSH2 0x2671 JUMP JUMPDEST PUSH2 0x20E6 PUSH2 0x2687 JUMP JUMPDEST PUSH1 0x1 PUSH1 0x1 PUSH1 0xA0 SHL SUB PUSH1 0x44 DUP1 CALLDATALOAD DUP3 DUP2 AND SWAP5 SWAP2 SWAP4 SWAP1 DUP6 SWAP1 SUB PUSH2 0x3C8 JUMPI PUSH1 0x64 DUP4 DUP2 CALLDATALOAD SWAP4 PUSH2 0x210E PUSH2 0x2CAD JUMP JUMPDEST AND SWAP4 DUP5 PUSH1 0x0 MSTORE PUSH1 0x20 SWAP3 PUSH1 0x2 DUP5 MSTORE PUSH2 0x212F PUSH1 0xFF PUSH1 0x8 PUSH1 0x40 PUSH1 0x0 KECCAK256 ADD SLOAD AND PUSH2 0x2968 JUMP JUMPDEST AND SWAP5 DUP6 ISZERO ISZERO DUP1 PUSH2 0x2381 JUMPI JUMPDEST ISZERO PUSH2 0x234C JUMPI DUP4 ISZERO PUSH2 0x230B JUMPI DUP6 CALLER EQ DUP1 ISZERO PUSH2 0x22E9 JUMPI JUMPDEST ISZERO PUSH2 0x22A8 JUMPI PUSH1 0x40 MLOAD PUSH4 0xECA36917 PUSH1 0xE0 SHL DUP2 MSTORE DUP6 PUSH1 0x4 DUP3 ADD MSTORE DUP7 PUSH1 0x24 DUP3 ADD MSTORE DUP8 DUP3 DUP3 ADD MSTORE DUP5 PUSH1 0x7 SIGNEXTEND DUP4 DUP3 ADD MSTORE DUP4 DUP2 PUSH1 0x84 DUP2 PUSH1 0x0 PUSH2 0x167 GAS CALL DUP1 ISZERO PUSH2 0x14CE JUMPI PUSH1 0x0 SWAP1 PUSH2 0x227A JUMPI JUMPDEST PUSH1 0x16 SWAP2 POP SUB PUSH2 0x2247 JUMPI POP POP DUP3 PUSH1 0x0 MSTORE PUSH1 0x4 DUP2 MSTORE PUSH1 0x40 PUSH1 0x0 KECCAK256 DUP5 PUSH1 0x0 MSTORE DUP2 MSTORE PUSH1 0x40 PUSH1 0x0 KECCAK256 SLOAD DUP3 DUP2 SUB SWAP1 DUP2 GT PUSH2 0x195E JUMPI DUP4 PUSH1 0x0 MSTORE PUSH1 0x4 DUP3 MSTORE PUSH1 0x40 PUSH1 0x0 KECCAK256 DUP6 PUSH1 0x0 MSTORE DUP3 MSTORE PUSH1 0x40 PUSH1 0x0 KECCAK256 SSTORE DUP3 PUSH1 0x0 MSTORE PUSH1 0x4 DUP2 MSTORE PUSH1 0x40 PUSH1 0x0 KECCAK256 DUP6 PUSH1 0x0 MSTORE DUP2 MSTORE PUSH1 0x40 PUSH1 0x0 KECCAK256 SLOAD SWAP2 DUP1 DUP4 ADD DUP1 SWAP4 GT PUSH2 0x195E JUMPI PUSH32 0x70C5F97FD0068E96984B8116FE83EEFBFF3B91244565BF311A3CBA619B4ECBC7 SWAP3 DUP5 PUSH1 0x0 MSTORE PUSH1 0x4 DUP4 MSTORE PUSH1 0x40 PUSH1 0x0 KECCAK256 DUP8 PUSH1 0x0 MSTORE DUP4 MSTORE PUSH1 0x40 PUSH1 0x0 KECCAK256 SSTORE PUSH1 0x40 MLOAD SWAP1 DUP2 MSTORE LOG4 PUSH1 0x1 DUP1 SSTORE STOP JUMPDEST PUSH15 0x151C985B9CD9995C8819985A5B1959 PUSH1 0x8A SHL DUP4 SWAP2 PUSH1 0x40 MLOAD SWAP3 PUSH3 0x461BCD PUSH1 0xE5 SHL DUP5 MSTORE PUSH1 0x4 DUP5 ADD MSTORE PUSH1 0xF PUSH1 0x24 DUP5 ADD MSTORE DUP3 ADD MSTORE REVERT JUMPDEST POP DUP4 DUP2 DUP2 RETURNDATASIZE DUP4 GT PUSH2 0x22A1 JUMPI JUMPDEST PUSH2 0x2290 DUP2 DUP4 PUSH2 0x2774 JUMP JUMPDEST DUP2 ADD SUB SLT PUSH2 0x3C8 JUMPI PUSH1 0x16 SWAP1 MLOAD PUSH2 0x2194 JUMP JUMPDEST POP RETURNDATASIZE PUSH2 0x2286 JUMP JUMPDEST PUSH32 0x4E6F7420617574686F72697A656420746F207472616E73666572000000000000 DUP4 SWAP2 PUSH1 0x40 MLOAD SWAP3 PUSH3 0x461BCD PUSH1 0xE5 SHL DUP5 MSTORE PUSH1 0x4 DUP5 ADD MSTORE PUSH1 0x1A PUSH1 0x24 DUP5 ADD MSTORE DUP3 ADD MSTORE REVERT JUMPDEST POP PUSH1 0x0 DUP1 MSTORE PUSH1 0x0 DUP4 MSTORE PUSH1 0x40 PUSH1 0x0 KECCAK256 CALLER PUSH1 0x0 MSTORE DUP4 MSTORE PUSH1 0xFF PUSH1 0x40 PUSH1 0x0 KECCAK256 SLOAD AND PUSH2 0x214F JUMP JUMPDEST PUSH32 0x416D6F756E74206D7573742062652067726561746572207468616E2030000000 DUP4 SWAP2 PUSH1 0x40 MLOAD SWAP3 PUSH3 0x461BCD PUSH1 0xE5 SHL DUP5 MSTORE PUSH1 0x4 DUP5 ADD MSTORE PUSH1 0x1D PUSH1 0x24 DUP5 ADD MSTORE DUP3 ADD MSTORE REVERT JUMPDEST PUSH17 0x496E76616C696420616464726573736573 PUSH1 0x78 SHL DUP4 SWAP2 PUSH1 0x40 MLOAD SWAP3 PUSH3 0x461BCD PUSH1 0xE5 SHL DUP5 MSTORE PUSH1 0x4 DUP5 ADD MSTORE PUSH1 0x11 PUSH1 0x24 DUP5 ADD MSTORE DUP3 ADD MSTORE REVERT JUMPDEST POP DUP7 ISZERO ISZERO PUSH2 0x213A JUMP JUMPDEST CALLVALUE PUSH2 0x3C8 JUMPI PUSH1 0x20 CALLDATASIZE PUSH1 0x3 NOT ADD SLT PUSH2 0x3C8 JUMPI PUSH1 0x4 CALLDATALOAD PUSH1 0x7 SLOAD DUP2 LT ISZERO PUSH2 0x23CC JUMPI PUSH2 0x23B3 PUSH1 0x20 SWAP2 PUSH2 0x269D JUMP JUMPDEST SWAP1 SLOAD PUSH1 0x40 MLOAD PUSH1 0x3 SWAP3 SWAP1 SWAP3 SHL SHR PUSH1 0x1 PUSH1 0x1 PUSH1 0xA0 SHL SUB AND DUP2 MSTORE RETURN JUMPDEST PUSH1 0x40 MLOAD PUSH3 0x461BCD PUSH1 0xE5 SHL DUP2 MSTORE PUSH1 0x20 PUSH1 0x4 DUP3 ADD MSTORE PUSH1 0x13 PUSH1 0x24 DUP3 ADD MSTORE PUSH19 0x496E646578206F7574206F6620626F756E6473 PUSH1 0x68 SHL PUSH1 0x44 DUP3 ADD MSTORE PUSH1 0x64 SWAP1 REVERT JUMPDEST CALLVALUE PUSH2 0x3C8 JUMPI PUSH1 0x20 CALLDATASIZE PUSH1 0x3 NOT ADD SLT PUSH2 0x3C8 JUMPI PUSH1 0x4 CALLDATALOAD PUSH1 0x7 SLOAD DUP2 LT ISZERO PUSH2 0x3C8 JUMPI PUSH2 0x23B3 PUSH1 0x20 SWAP2 PUSH2 0x269D JUMP JUMPDEST CALLVALUE PUSH2 0x3C8 JUMPI PUSH1 0x0 CALLDATASIZE PUSH1 0x3 NOT ADD SLT PUSH2 0x3C8 JUMPI PUSH1 0x20 PUSH1 0x40 MLOAD PUSH32 0x5AA58C694AEB083DF8754BF5E98675317E4137A5A8A2C6188D0228869E43DA7E DUP2 MSTORE RETURN JUMPDEST CALLVALUE PUSH2 0x3C8 JUMPI PUSH1 0x40 CALLDATASIZE PUSH1 0x3 NOT ADD SLT PUSH2 0x3C8 JUMPI PUSH2 0x2484 PUSH2 0x2687 JUMP JUMPDEST CALLER PUSH1 0x1 PUSH1 0x1 PUSH1 0xA0 SHL SUB DUP3 AND SUB PUSH2 0x24A0 JUMPI PUSH2 0x622 SWAP1 PUSH1 0x4 CALLDATALOAD PUSH2 0x2B5E JUMP JUMPDEST PUSH1 0x40 MLOAD PUSH3 0x461BCD PUSH1 0xE5 SHL DUP2 MSTORE PUSH1 0x20 PUSH1 0x4 DUP3 ADD MSTORE PUSH1 0x2F PUSH1 0x24 DUP3 ADD MSTORE PUSH32 0x416363657373436F6E74726F6C3A2063616E206F6E6C792072656E6F756E6365 PUSH1 0x44 DUP3 ADD MSTORE PUSH15 0x103937B632B9903337B91039B2B633 PUSH1 0x89 SHL PUSH1 0x64 DUP3 ADD MSTORE PUSH1 0x84 SWAP1 REVERT JUMPDEST CALLVALUE PUSH2 0x3C8 JUMPI PUSH1 0x40 CALLDATASIZE PUSH1 0x3 NOT ADD SLT PUSH2 0x3C8 JUMPI PUSH1 0x4 CALLDATALOAD PUSH2 0x2519 PUSH2 0x2687 JUMP JUMPDEST DUP2 PUSH1 0x0 MSTORE PUSH1 0x0 PUSH1 0x20 MSTORE PUSH2 0x2533 PUSH1 0x1 PUSH1 0x40 PUSH1 0x0 KECCAK256 ADD SLOAD PUSH2 0x29AB JUMP JUMPDEST DUP2 PUSH1 0x0 MSTORE PUSH1 0x0 PUSH1 0x20 MSTORE PUSH1 0x40 PUSH1 0x0 KECCAK256 SWAP1 PUSH1 0x1 DUP1 PUSH1 0xA0 SHL SUB AND SWAP1 DUP2 PUSH1 0x0 MSTORE PUSH1 0x20 MSTORE PUSH1 0xFF PUSH1 0x40 PUSH1 0x0 KECCAK256 SLOAD AND ISZERO PUSH2 0x2562 JUMPI STOP JUMPDEST DUP2 PUSH1 0x0 MSTORE PUSH1 0x0 PUSH1 0x20 MSTORE PUSH1 0x40 PUSH1 0x0 KECCAK256 DUP2 PUSH1 0x0 MSTORE PUSH1 0x20 MSTORE PUSH1 0x40 PUSH1 0x0 KECCAK256 PUSH1 0x1 PUSH1 0xFF NOT DUP3 SLOAD AND OR SWAP1 SSTORE CALLER SWAP2 PUSH32 0x2F8788117E7EFF1D82E926EC794901D17C78024A50270940304540A733656F0D PUSH1 0x0 DUP1 LOG4 STOP JUMPDEST CALLVALUE PUSH2 0x3C8 JUMPI PUSH1 0x20 CALLDATASIZE PUSH1 0x3 NOT ADD SLT PUSH2 0x3C8 JUMPI PUSH1 0x4 CALLDATALOAD PUSH1 0x0 MSTORE PUSH1 0x0 PUSH1 0x20 MSTORE PUSH1 0x20 PUSH1 0x1 PUSH1 0x40 PUSH1 0x0 KECCAK256 ADD SLOAD PUSH1 0x40 MLOAD SWAP1 DUP2 MSTORE RETURN JUMPDEST CALLVALUE PUSH2 0x3C8 JUMPI PUSH1 0x40 CALLDATASIZE PUSH1 0x3 NOT ADD SLT PUSH2 0x3C8 JUMPI PUSH2 0x25F8 PUSH2 0x2671 JUMP JUMPDEST PUSH1 0x24 CALLDATALOAD SWAP1 PUSH1 0x1 DUP1 PUSH1 0xA0 SHL SUB DUP1 SWAP2 AND PUSH1 0x0 MSTORE PUSH1 0x5 PUSH1 0x20 MSTORE PUSH1 0x40 PUSH1 0x0 KECCAK256 DUP1 SLOAD DUP4 LT ISZERO PUSH2 0x3C8 JUMPI PUSH1 0x20 SWAP3 PUSH2 0x2628 SWAP2 PUSH2 0x26D4 JUMP JUMPDEST SWAP2 SWAP1 SLOAD PUSH1 0x40 MLOAD SWAP3 PUSH1 0x3 SHL SHR AND DUP2 MSTORE RETURN JUMPDEST CALLVALUE PUSH2 0x3C8 JUMPI PUSH1 0x0 CALLDATASIZE PUSH1 0x3 NOT ADD SLT PUSH2 0x3C8 JUMPI DUP1 PUSH32 0xE70D28EBD9D7D9A3DD77D46AE2481F301C80806F395B08DE31D8E095B1C46CEE PUSH1 0x20 SWAP3 MSTORE RETURN JUMPDEST PUSH1 0x4 CALLDATALOAD SWAP1 PUSH1 0x1 PUSH1 0x1 PUSH1 0xA0 SHL SUB DUP3 AND DUP3 SUB PUSH2 0x3C8 JUMPI JUMP JUMPDEST PUSH1 0x24 CALLDATALOAD SWAP1 PUSH1 0x1 PUSH1 0x1 PUSH1 0xA0 SHL SUB DUP3 AND DUP3 SUB PUSH2 0x3C8 JUMPI JUMP JUMPDEST PUSH1 0x7 SLOAD DUP2 LT ISZERO PUSH2 0x1974 JUMPI PUSH1 0x7 PUSH1 0x0 MSTORE PUSH32 0xA66CC928B5EDB82AF9BD49922954155AB7B0942694BEA4CE44661D9A8736C688 ADD SWAP1 PUSH1 0x0 SWAP1 JUMP JUMPDEST DUP1 SLOAD DUP3 LT ISZERO PUSH2 0x1974 JUMPI PUSH1 0x0 MSTORE PUSH1 0x20 PUSH1 0x0 KECCAK256 ADD SWAP1 PUSH1 0x0 SWAP1 JUMP JUMPDEST PUSH1 0xA0 DUP2 ADD SWAP1 DUP2 LT PUSH1 0x1 PUSH1 0x1 PUSH1 0x40 SHL SUB DUP3 GT OR PUSH2 0x1164 JUMPI PUSH1 0x40 MSTORE JUMP JUMPDEST PUSH2 0x1A0 DUP2 ADD SWAP1 DUP2 LT PUSH1 0x1 PUSH1 0x1 PUSH1 0x40 SHL SUB DUP3 GT OR PUSH2 0x1164 JUMPI PUSH1 0x40 MSTORE JUMP JUMPDEST PUSH1 0x40 DUP2 ADD SWAP1 DUP2 LT PUSH1 0x1 PUSH1 0x1 PUSH1 0x40 SHL SUB DUP3 GT OR PUSH2 0x1164 JUMPI PUSH1 0x40 MSTORE JUMP JUMPDEST PUSH1 0x20 DUP2 ADD SWAP1 DUP2 LT PUSH1 0x1 PUSH1 0x1 PUSH1 0x40 SHL SUB DUP3 GT OR PUSH2 0x1164 JUMPI PUSH1 0x40 MSTORE JUMP JUMPDEST PUSH1 0x80 DUP2 ADD SWAP1 DUP2 LT PUSH1 0x1 PUSH1 0x1 PUSH1 0x40 SHL SUB DUP3 GT OR PUSH2 0x1164 JUMPI PUSH1 0x40 MSTORE JUMP JUMPDEST SWAP1 PUSH1 0x1F DUP1 NOT SWAP2 ADD AND DUP2 ADD SWAP1 DUP2 LT PUSH1 0x1 PUSH1 0x1 PUSH1 0x40 SHL SUB DUP3 GT OR PUSH2 0x1164 JUMPI PUSH1 0x40 MSTORE JUMP JUMPDEST DUP2 PUSH1 0x1F DUP3 ADD SLT ISZERO PUSH2 0x3C8 JUMPI DUP1 CALLDATALOAD SWAP1 PUSH1 0x1 PUSH1 0x1 PUSH1 0x40 SHL SUB DUP3 GT PUSH2 0x1164 JUMPI PUSH1 0x40 MLOAD SWAP3 PUSH2 0x27C9 PUSH1 0x1F DUP5 ADD PUSH1 0x1F NOT AND PUSH1 0x20 ADD DUP6 PUSH2 0x2774 JUMP JUMPDEST DUP3 DUP5 MSTORE PUSH1 0x20 DUP4 DUP4 ADD ADD GT PUSH2 0x3C8 JUMPI DUP2 PUSH1 0x0 SWAP3 PUSH1 0x20 DUP1 SWAP4 ADD DUP4 DUP7 ADD CALLDATACOPY DUP4 ADD ADD MSTORE SWAP1 JUMP JUMPDEST PUSH1 0x0 JUMPDEST DUP4 DUP2 LT PUSH2 0x27FE JUMPI POP POP PUSH1 0x0 SWAP2 ADD MSTORE JUMP JUMPDEST DUP2 DUP2 ADD MLOAD DUP4 DUP3 ADD MSTORE PUSH1 0x20 ADD PUSH2 0x27EE JUMP JUMPDEST PUSH1 0x1 PUSH1 0x1 PUSH1 0x40 SHL SUB DUP2 GT PUSH2 0x1164 JUMPI PUSH1 0x5 SHL PUSH1 0x20 ADD SWAP1 JUMP JUMPDEST SWAP1 PUSH1 0x1 DUP3 DUP2 SHR SWAP3 AND DUP1 ISZERO PUSH2 0x2855 JUMPI JUMPDEST PUSH1 0x20 DUP4 LT EQ PUSH2 0x283F JUMPI JUMP JUMPDEST PUSH4 0x4E487B71 PUSH1 0xE0 SHL PUSH1 0x0 MSTORE PUSH1 0x22 PUSH1 0x4 MSTORE PUSH1 0x24 PUSH1 0x0 REVERT JUMPDEST SWAP2 PUSH1 0x7F AND SWAP2 PUSH2 0x2834 JUMP JUMPDEST SWAP1 PUSH1 0x40 MLOAD SWAP2 DUP3 PUSH1 0x0 DUP3 SLOAD SWAP3 PUSH2 0x2873 DUP5 PUSH2 0x2825 JUMP JUMPDEST SWAP1 DUP2 DUP5 MSTORE PUSH1 0x1 SWAP5 DUP6 DUP2 AND SWAP1 DUP2 PUSH1 0x0 EQ PUSH2 0x28E2 JUMPI POP PUSH1 0x1 EQ PUSH2 0x289F JUMPI JUMPDEST POP POP PUSH2 0x289D SWAP3 POP SUB DUP4 PUSH2 0x2774 JUMP JUMPDEST JUMP JUMPDEST SWAP1 SWAP4 SWAP2 POP PUSH1 0x0 MSTORE PUSH1 0x20 SWAP1 DUP2 PUSH1 0x0 KECCAK256 SWAP4 PUSH1 0x0 SWAP2 JUMPDEST DUP2 DUP4 LT PUSH2 0x28CA JUMPI POP POP PUSH2 0x289D SWAP4 POP DUP3 ADD ADD CODESIZE DUP1 PUSH2 0x288F JUMP JUMPDEST DUP6 SLOAD DUP9 DUP5 ADD DUP6 ADD MSTORE SWAP5 DUP6 ADD SWAP5 DUP8 SWAP5 POP SWAP2 DUP4 ADD SWAP2 PUSH2 0x28B2 JUMP JUMPDEST SWAP2 POP POP PUSH2 0x289D SWAP5 POP PUSH1 0x20 SWAP3 POP PUSH1 0xFF NOT AND DUP3 DUP5 ADD MSTORE ISZERO ISZERO PUSH1 0x5 SHL DUP3 ADD ADD CODESIZE DUP1 PUSH2 0x288F JUMP JUMPDEST SWAP1 PUSH1 0x20 SWAP2 PUSH2 0x291E DUP2 MLOAD DUP1 SWAP3 DUP2 DUP6 MSTORE DUP6 DUP1 DUP7 ADD SWAP2 ADD PUSH2 0x27EB JUMP JUMPDEST PUSH1 0x1F ADD PUSH1 0x1F NOT AND ADD ADD SWAP1 JUMP JUMPDEST SWAP1 PUSH1 0x6 DUP3 LT ISZERO PUSH2 0x3B2 JUMPI MSTORE JUMP JUMPDEST SWAP1 PUSH1 0x5 DUP3 LT ISZERO PUSH2 0x3B2 JUMPI MSTORE JUMP JUMPDEST DUP2 DUP2 LT PUSH2 0x294F JUMPI POP POP JUMP JUMPDEST PUSH1 0x0 DUP2 SSTORE PUSH1 0x1 ADD PUSH2 0x2944 JUMP JUMPDEST DUP1 MLOAD ISZERO PUSH2 0x1974 JUMPI PUSH1 0x20 ADD SWAP1 JUMP JUMPDEST ISZERO PUSH2 0x296F JUMPI JUMP JUMPDEST PUSH1 0x40 MLOAD PUSH3 0x461BCD PUSH1 0xE5 SHL DUP2 MSTORE PUSH1 0x20 PUSH1 0x4 DUP3 ADD MSTORE PUSH1 0x14 PUSH1 0x24 DUP3 ADD MSTORE PUSH20 0x151BDAD95B88191BD95CC81B9BDD08195E1A5CDD PUSH1 0x62 SHL PUSH1 0x44 DUP3 ADD MSTORE PUSH1 0x64 SWAP1 REVERT JUMPDEST PUSH1 0x0 SWAP1 DUP1 DUP3 MSTORE PUSH1 0x20 SWAP1 DUP3 DUP3 MSTORE PUSH1 0x40 SWAP3 DUP4 DUP2 KECCAK256 CALLER DUP3 MSTORE DUP4 MSTORE PUSH1 0xFF DUP5 DUP3 KECCAK256 SLOAD AND ISZERO PUSH2 0x29D4 JUMPI POP POP POP POP JUMP JUMPDEST PUSH2 0x29DD CALLER PUSH2 0x2BE3 JUMP JUMPDEST SWAP2 DUP5 MLOAD SWAP1 PUSH2 0x29EA DUP3 PUSH2 0x2759 JUMP JUMPDEST PUSH1 0x42 DUP3 MSTORE DUP5 DUP3 ADD SWAP3 PUSH1 0x60 CALLDATASIZE DUP6 CALLDATACOPY DUP3 MLOAD ISZERO PUSH2 0x2B4A JUMPI PUSH1 0x30 DUP5 MSTORE8 DUP3 MLOAD SWAP1 PUSH1 0x1 SWAP2 DUP3 LT ISZERO PUSH2 0x2B4A JUMPI SWAP1 PUSH1 0x78 PUSH1 0x21 DUP6 ADD MSTORE8 PUSH1 0x41 SWAP2 JUMPDEST DUP2 DUP4 GT PUSH2 0x2ADC JUMPI POP POP POP PUSH2 0x2A9A JUMPI PUSH1 0x48 PUSH2 0x18D2 SWAP4 DUP7 SWAP4 PUSH2 0x2A7E SWAP4 PUSH2 0x2A6F SWAP9 MLOAD SWAP9 DUP10 SWAP4 PUSH23 0x20B1B1B2B9B9A1B7B73A3937B61D1030B1B1B7BAB73A1 PUSH1 0x4D SHL DUP11 DUP7 ADD MSTORE PUSH2 0x187A DUP2 MLOAD DUP1 SWAP3 DUP13 PUSH1 0x37 DUP10 ADD SWAP2 ADD PUSH2 0x27EB JUMP JUMPDEST ADD SUB PUSH1 0x28 DUP2 ADD DUP8 MSTORE ADD DUP6 PUSH2 0x2774 JUMP JUMPDEST MLOAD SWAP3 DUP4 SWAP3 PUSH3 0x461BCD PUSH1 0xE5 SHL DUP5 MSTORE PUSH1 0x4 DUP5 ADD MSTORE PUSH1 0x24 DUP4 ADD SWAP1 PUSH2 0x2905 JUMP JUMPDEST PUSH1 0x64 DUP5 DUP7 MLOAD SWAP1 PUSH3 0x461BCD PUSH1 0xE5 SHL DUP3 MSTORE DUP1 PUSH1 0x4 DUP4 ADD MSTORE PUSH1 0x24 DUP3 ADD MSTORE PUSH32 0x537472696E67733A20686578206C656E67746820696E73756666696369656E74 PUSH1 0x44 DUP3 ADD MSTORE REVERT JUMPDEST SWAP1 SWAP2 SWAP3 PUSH1 0xF DUP2 AND PUSH1 0x10 DUP2 LT ISZERO PUSH2 0x2B36 JUMPI PUSH16 0x181899199A1A9B1B9C1CB0B131B232B3 PUSH1 0x81 SHL SWAP1 BYTE PUSH2 0x2B0C DUP6 DUP8 PUSH2 0x2BD2 JUMP JUMPDEST MSTORE8 PUSH1 0x4 SHR SWAP3 DUP1 ISZERO PUSH2 0x2B22 JUMPI PUSH1 0x0 NOT ADD SWAP2 SWAP1 PUSH2 0x2A1B JUMP JUMPDEST PUSH4 0x4E487B71 PUSH1 0xE0 SHL DUP3 MSTORE PUSH1 0x11 PUSH1 0x4 MSTORE PUSH1 0x24 DUP3 REVERT JUMPDEST PUSH4 0x4E487B71 PUSH1 0xE0 SHL DUP4 MSTORE PUSH1 0x32 PUSH1 0x4 MSTORE PUSH1 0x24 DUP4 REVERT JUMPDEST PUSH4 0x4E487B71 PUSH1 0xE0 SHL DUP2 MSTORE PUSH1 0x32 PUSH1 0x4 MSTORE PUSH1 0x24 SWAP1 REVERT JUMPDEST SWAP1 PUSH1 0x0 SWAP2 DUP1 DUP4 MSTORE DUP3 PUSH1 0x20 MSTORE PUSH1 0x40 DUP4 KECCAK256 SWAP2 PUSH1 0x1 DUP1 PUSH1 0xA0 SHL SUB AND SWAP2 DUP3 DUP5 MSTORE PUSH1 0x20 MSTORE PUSH1 0xFF PUSH1 0x40 DUP5 KECCAK256 SLOAD AND PUSH2 0x2B8E JUMPI POP POP POP JUMP JUMPDEST DUP1 DUP4 MSTORE DUP3 PUSH1 0x20 MSTORE PUSH1 0x40 DUP4 KECCAK256 DUP3 DUP5 MSTORE PUSH1 0x20 MSTORE PUSH1 0x40 DUP4 KECCAK256 PUSH1 0xFF NOT DUP2 SLOAD AND SWAP1 SSTORE PUSH32 0xF6391F5C32D9C69D2A47EA670B442974B53935D1EDC7FD64EB21E047A839171B CALLER SWAP4 DUP1 LOG4 JUMP JUMPDEST SWAP1 DUP2 MLOAD DUP2 LT ISZERO PUSH2 0x1974 JUMPI ADD PUSH1 0x20 ADD SWAP1 JUMP JUMPDEST PUSH1 0x40 MLOAD SWAP1 PUSH1 0x60 DUP3 ADD DUP3 DUP2 LT PUSH1 0x1 PUSH1 0x1 PUSH1 0x40 SHL SUB DUP3 GT OR PUSH2 0x1164 JUMPI PUSH1 0x40 MSTORE PUSH1 0x2A DUP3 MSTORE PUSH1 0x20 DUP3 ADD PUSH1 0x40 CALLDATASIZE DUP3 CALLDATACOPY DUP3 MLOAD ISZERO PUSH2 0x1974 JUMPI PUSH1 0x30 SWAP1 MSTORE8 DUP2 MLOAD PUSH1 0x1 SWAP1 DUP2 LT ISZERO PUSH2 0x1974 JUMPI PUSH1 0x78 PUSH1 0x21 DUP5 ADD MSTORE8 PUSH1 0x29 SWAP1 JUMPDEST DUP1 DUP3 GT PUSH2 0x2C3F JUMPI POP POP PUSH2 0x18D6 JUMPI SWAP1 JUMP JUMPDEST SWAP1 SWAP2 PUSH1 0xF DUP2 AND PUSH1 0x10 DUP2 LT ISZERO PUSH2 0x2C98 JUMPI PUSH16 0x181899199A1A9B1B9C1CB0B131B232B3 PUSH1 0x81 SHL SWAP1 BYTE PUSH2 0x2C6E DUP5 DUP7 PUSH2 0x2BD2 JUMP JUMPDEST MSTORE8 PUSH1 0x4 SHR SWAP2 DUP1 ISZERO PUSH2 0x2C83 JUMPI PUSH1 0x0 NOT ADD SWAP1 PUSH2 0x2C2F JUMP JUMPDEST PUSH1 0x24 PUSH1 0x0 PUSH4 0x4E487B71 PUSH1 0xE0 SHL DUP2 MSTORE PUSH1 0x11 PUSH1 0x4 MSTORE REVERT JUMPDEST PUSH1 0x24 PUSH1 0x0 PUSH4 0x4E487B71 PUSH1 0xE0 SHL DUP2 MSTORE PUSH1 0x32 PUSH1 0x4 MSTORE REVERT JUMPDEST PUSH1 0x2 PUSH1 0x1 SLOAD EQ PUSH2 0x2CBE JUMPI PUSH1 0x2 PUSH1 0x1 SSTORE JUMP JUMPDEST PUSH1 0x40 MLOAD PUSH3 0x461BCD PUSH1 0xE5 SHL DUP2 MSTORE PUSH1 0x20 PUSH1 0x4 DUP3 ADD MSTORE PUSH1 0x1F PUSH1 0x24 DUP3 ADD MSTORE PUSH32 0x5265656E7472616E637947756172643A207265656E7472616E742063616C6C00 PUSH1 0x44 DUP3 ADD MSTORE PUSH1 0x64 SWAP1 REVERT INVALID LOG2 PUSH5 0x6970667358 0x22 SLT KECCAK256 DUP3 0xD7 0xCC 0x26 0xD3 0xC2 MULMOD 0xB2 PUSH18 0x4E3BBE8E9AFC61075130CED93000305209AA 0xC2 0xDA DUP7 0xD7 0x5F PUSH5 0x736F6C6343 STOP ADDMOD SGT STOP CALLER 0x2F DUP8 DUP9 GT PUSH31 0x7EFF1D82E926EC794901D17C78024A50270940304540A733656F0D00000000 "},"methodIdentifiers":{"DEFAULT_ADMIN_ROLE()":"a217fddf","PROPERTY_MANAGER_ROLE()":"47e64656","TOKENIZER_ROLE()":"0605a334","allTokens(uint256)":"634282af","createPropertyToken(string,string,string,uint256,uint256,address,uint256,string,uint8)":"ab9b8c87","getInvestorBalance(address,address)":"dac796bb","getManagerProperties(address)":"829b7c89","getPropertyMetadata(address)":"f5b94e1e","getPropertyToken(address)":"fc874ba6","getRoleAdmin(bytes32)":"248a9ca3","getTokenByIndex(uint256)":"644b7a43","getTokenByPropertyId(string)":"b56a6b14","getTotalTokens()":"f08b82e6","grantRole(bytes32,address)":"2f2ff15d","hasRole(bytes32,address)":"91d14854","investorBalances(address,address)":"13370e44","managerProperties(address,uint256)":"20d15be1","propertyIdToToken(string)":"718e120b","propertyMetadata(address)":"c127f5f5","propertyTokens(address)":"b14bda59","renounceRole(bytes32,address)":"36568abe","revokeRole(bytes32,address)":"d547741f","transferTokens(address,address,address,uint256)":"68155ec1","updatePropertyMetadata(address,string,uint256,uint256,string[],string)":"771351fd","updatePropertyStatus(address,uint8)":"c707dd2d"}}}}}