{
  "_format": "hh-sol-artifact-1",
  "contractName": "DividendDistributor",
  "sourceName": "contracts/DividendDistributor.sol",
  "abi": [
    {
      "inputs": [
        {
          "internalType": "address",
          "name": "_propertyTokenContract",
          "type": "address"
        }
      ],
      "stateMutability": "nonpayable",
      "type": "constructor"
    },
    {
      "anonymous": false,
      "inputs": [
        {
          "indexed": true,
          "internalType": "uint256",
          "name": "distributionId",
          "type": "uint256"
        },
        {
          "indexed": false,
          "internalType": "uint256",
          "name": "batchNumber",
          "type": "uint256"
        },
        {
          "indexed": false,
          "internalType": "uint256",
          "name": "holdersProcessed",
          "type": "uint256"
        }
      ],
      "name": "BatchDistributionProcessed",
      "type": "event"
    },
    {
      "anonymous": false,
      "inputs": [
        {
          "indexed": true,
          "internalType": "uint256",
          "name": "distributionId",
          "type": "uint256"
        },
        {
          "indexed": true,
          "internalType": "address",
          "name": "tokenAddress",
          "type": "address"
        },
        {
          "indexed": true,
          "internalType": "address",
          "name": "holder",
          "type": "address"
        },
        {
          "indexed": false,
          "internalType": "uint256",
          "name": "amount",
          "type": "uint256"
        }
      ],
      "name": "DividendClaimed",
      "type": "event"
    },
    {
      "anonymous": false,
      "inputs": [
        {
          "indexed": true,
          "internalType": "uint256",
          "name": "distributionId",
          "type": "uint256"
        },
        {
          "indexed": true,
          "internalType": "address",
          "name": "tokenAddress",
          "type": "address"
        },
        {
          "indexed": false,
          "internalType": "uint256",
          "name": "totalAmount",
          "type": "uint256"
        },
        {
          "indexed": false,
          "internalType": "uint256",
          "name": "netAmount",
          "type": "uint256"
        },
        {
          "indexed": false,
          "internalType": "uint256",
          "name": "managementFee",
          "type": "uint256"
        }
      ],
      "name": "DividendDistributionCreated",
      "type": "event"
    },
    {
      "anonymous": false,
      "inputs": [
        {
          "indexed": true,
          "internalType": "address",
          "name": "tokenAddress",
          "type": "address"
        },
        {
          "indexed": true,
          "internalType": "address",
          "name": "manager",
          "type": "address"
        },
        {
          "indexed": false,
          "internalType": "uint256",
          "name": "amount",
          "type": "uint256"
        }
      ],
      "name": "ManagementFeeCollected",
      "type": "event"
    },
    {
      "anonymous": false,
      "inputs": [
        {
          "indexed": true,
          "internalType": "bytes32",
          "name": "role",
          "type": "bytes32"
        },
        {
          "indexed": true,
          "internalType": "bytes32",
          "name": "previousAdminRole",
          "type": "bytes32"
        },
        {
          "indexed": true,
          "internalType": "bytes32",
          "name": "newAdminRole",
          "type": "bytes32"
        }
      ],
      "name": "RoleAdminChanged",
      "type": "event"
    },
    {
      "anonymous": false,
      "inputs": [
        {
          "indexed": true,
          "internalType": "bytes32",
          "name": "role",
          "type": "bytes32"
        },
        {
          "indexed": true,
          "internalType": "address",
          "name": "account",
          "type": "address"
        },
        {
          "indexed": true,
          "internalType": "address",
          "name": "sender",
          "type": "address"
        }
      ],
      "name": "RoleGranted",
      "type": "event"
    },
    {
      "anonymous": false,
      "inputs": [
        {
          "indexed": true,
          "internalType": "bytes32",
          "name": "role",
          "type": "bytes32"
        },
        {
          "indexed": true,
          "internalType": "address",
          "name": "account",
          "type": "address"
        },
        {
          "indexed": true,
          "internalType": "address",
          "name": "sender",
          "type": "address"
        }
      ],
      "name": "RoleRevoked",
      "type": "event"
    },
    {
      "inputs": [],
      "name": "BASIS_POINTS",
      "outputs": [
        {
          "internalType": "uint256",
          "name": "",
          "type": "uint256"
        }
      ],
      "stateMutability": "view",
      "type": "function"
    },
    {
      "inputs": [],
      "name": "DEFAULT_ADMIN_ROLE",
      "outputs": [
        {
          "internalType": "bytes32",
          "name": "",
          "type": "bytes32"
        }
      ],
      "stateMutability": "view",
      "type": "function"
    },
    {
      "inputs": [],
      "name": "DISTRIBUTOR_ROLE",
      "outputs": [
        {
          "internalType": "bytes32",
          "name": "",
          "type": "bytes32"
        }
      ],
      "stateMutability": "view",
      "type": "function"
    },
    {
      "inputs": [],
      "name": "MAX_HOLDERS_PER_BATCH",
      "outputs": [
        {
          "internalType": "uint256",
          "name": "",
          "type": "uint256"
        }
      ],
      "stateMutability": "view",
      "type": "function"
    },
    {
      "inputs": [],
      "name": "PROPERTY_MANAGER_ROLE",
      "outputs": [
        {
          "internalType": "bytes32",
          "name": "",
          "type": "bytes32"
        }
      ],
      "stateMutability": "view",
      "type": "function"
    },
    {
      "inputs": [
        {
          "internalType": "address",
          "name": "tokenAddress",
          "type": "address"
        }
      ],
      "name": "claimDividends",
      "outputs": [],
      "stateMutability": "nonpayable",
      "type": "function"
    },
    {
      "inputs": [
        {
          "internalType": "address",
          "name": "tokenAddress",
          "type": "address"
        },
        {
          "internalType": "uint256",
          "name": "totalAmount",
          "type": "uint256"
        }
      ],
      "name": "createDistribution",
      "outputs": [
        {
          "internalType": "uint256",
          "name": "",
          "type": "uint256"
        }
      ],
      "stateMutability": "nonpayable",
      "type": "function"
    },
    {
      "inputs": [
        {
          "internalType": "uint256",
          "name": "",
          "type": "uint256"
        }
      ],
      "name": "distributions",
      "outputs": [
        {
          "internalType": "uint256",
          "name": "distributionId",
          "type": "uint256"
        },
        {
          "internalType": "address",
          "name": "tokenAddress",
          "type": "address"
        },
        {
          "internalType": "uint256",
          "name": "totalAmount",
          "type": "uint256"
        },
        {
          "internalType": "uint256",
          "name": "totalTokenSupply",
          "type": "uint256"
        },
        {
          "internalType": "uint256",
          "name": "distributionDate",
          "type": "uint256"
        },
        {
          "internalType": "uint256",
          "name": "managementFeePercent",
          "type": "uint256"
        },
        {
          "internalType": "uint256",
          "name": "managementFeeAmount",
          "type": "uint256"
        },
        {
          "internalType": "uint256",
          "name": "netDistributionAmount",
          "type": "uint256"
        },
        {
          "internalType": "enum IDividendDistributor.DistributionStatus",
          "name": "status",
          "type": "uint8"
        }
      ],
      "stateMutability": "view",
      "type": "function"
    },
    {
      "inputs": [],
      "name": "emergencyWithdraw",
      "outputs": [],
      "stateMutability": "nonpayable",
      "type": "function"
    },
    {
      "inputs": [
        {
          "internalType": "uint256",
          "name": "distributionId",
          "type": "uint256"
        }
      ],
      "name": "getDistribution",
      "outputs": [
        {
          "internalType": "address",
          "name": "tokenAddress",
          "type": "address"
        },
        {
          "internalType": "uint256",
          "name": "totalAmount",
          "type": "uint256"
        },
        {
          "internalType": "uint256",
          "name": "netAmount",
          "type": "uint256"
        },
        {
          "internalType": "uint256",
          "name": "managementFee",
          "type": "uint256"
        },
        {
          "internalType": "uint256",
          "name": "distributionDate",
          "type": "uint256"
        },
        {
          "internalType": "enum IDividendDistributor.DistributionStatus",
          "name": "status",
          "type": "uint8"
        }
      ],
      "stateMutability": "view",
      "type": "function"
    },
    {
      "inputs": [
        {
          "internalType": "address",
          "name": "tokenAddress",
          "type": "address"
        },
        {
          "internalType": "address",
          "name": "holder",
          "type": "address"
        }
      ],
      "name": "getPendingDividends",
      "outputs": [
        {
          "internalType": "uint256",
          "name": "",
          "type": "uint256"
        }
      ],
      "stateMutability": "view",
      "type": "function"
    },
    {
      "inputs": [
        {
          "internalType": "bytes32",
          "name": "role",
          "type": "bytes32"
        }
      ],
      "name": "getRoleAdmin",
      "outputs": [
        {
          "internalType": "bytes32",
          "name": "",
          "type": "bytes32"
        }
      ],
      "stateMutability": "view",
      "type": "function"
    },
    {
      "inputs": [
        {
          "internalType": "address",
          "name": "tokenAddress",
          "type": "address"
        }
      ],
      "name": "getTokenDistributions",
      "outputs": [
        {
          "internalType": "uint256[]",
          "name": "",
          "type": "uint256[]"
        }
      ],
      "stateMutability": "view",
      "type": "function"
    },
    {
      "inputs": [
        {
          "internalType": "address",
          "name": "tokenAddress",
          "type": "address"
        }
      ],
      "name": "getTotalDistributed",
      "outputs": [
        {
          "internalType": "uint256",
          "name": "",
          "type": "uint256"
        }
      ],
      "stateMutability": "view",
      "type": "function"
    },
    {
      "inputs": [
        {
          "internalType": "bytes32",
          "name": "role",
          "type": "bytes32"
        },
        {
          "internalType": "address",
          "name": "account",
          "type": "address"
        }
      ],
      "name": "grantRole",
      "outputs": [],
      "stateMutability": "nonpayable",
      "type": "function"
    },
    {
      "inputs": [
        {
          "internalType": "bytes32",
          "name": "role",
          "type": "bytes32"
        },
        {
          "internalType": "address",
          "name": "account",
          "type": "address"
        }
      ],
      "name": "hasRole",
      "outputs": [
        {
          "internalType": "bool",
          "name": "",
          "type": "bool"
        }
      ],
      "stateMutability": "view",
      "type": "function"
    },
    {
      "inputs": [],
      "name": "nextDistributionId",
      "outputs": [
        {
          "internalType": "uint256",
          "name": "",
          "type": "uint256"
        }
      ],
      "stateMutability": "view",
      "type": "function"
    },
    {
      "inputs": [
        {
          "internalType": "address",
          "name": "",
          "type": "address"
        },
        {
          "internalType": "address",
          "name": "",
          "type": "address"
        }
      ],
      "name": "pendingDividends",
      "outputs": [
        {
          "internalType": "uint256",
          "name": "",
          "type": "uint256"
        }
      ],
      "stateMutability": "view",
      "type": "function"
    },
    {
      "inputs": [
        {
          "internalType": "uint256",
          "name": "distributionId",
          "type": "uint256"
        },
        {
          "internalType": "uint256",
          "name": "batchSize",
          "type": "uint256"
        }
      ],
      "name": "processBatchDistribution",
      "outputs": [],
      "stateMutability": "nonpayable",
      "type": "function"
    },
    {
      "inputs": [],
      "name": "propertyTokenContract",
      "outputs": [
        {
          "internalType": "contract IPropertyToken",
          "name": "",
          "type": "address"
        }
      ],
      "stateMutability": "view",
      "type": "function"
    },
    {
      "inputs": [
        {
          "internalType": "bytes32",
          "name": "role",
          "type": "bytes32"
        },
        {
          "internalType": "address",
          "name": "account",
          "type": "address"
        }
      ],
      "name": "renounceRole",
      "outputs": [],
      "stateMutability": "nonpayable",
      "type": "function"
    },
    {
      "inputs": [
        {
          "internalType": "bytes32",
          "name": "role",
          "type": "bytes32"
        },
        {
          "internalType": "address",
          "name": "account",
          "type": "address"
        }
      ],
      "name": "revokeRole",
      "outputs": [],
      "stateMutability": "nonpayable",
      "type": "function"
    },
    {
      "inputs": [
        {
          "internalType": "address",
          "name": "",
          "type": "address"
        },
        {
          "internalType": "uint256",
          "name": "",
          "type": "uint256"
        }
      ],
      "name": "tokenDistributions",
      "outputs": [
        {
          "internalType": "uint256",
          "name": "",
          "type": "uint256"
        }
      ],
      "stateMutability": "view",
      "type": "function"
    },
    {
      "inputs": [
        {
          "internalType": "address",
          "name": "",
          "type": "address"
        }
      ],
      "name": "totalDistributed",
      "outputs": [
        {
          "internalType": "uint256",
          "name": "",
          "type": "uint256"
        }
      ],
      "stateMutability": "view",
      "type": "function"
    },
    {
      "stateMutability": "payable",
      "type": "receive"
    }
  ],
  "bytecode": "0x60a034620001ad57601f62001e5b38819003918201601f1916830192916001600160401b03841183851017620001b25780839260409586528339602092839181010312620001ad57516001600160a01b03811690819003620001ad5760018055600160065580156200016a576080526000808052808252828120338252825260ff83822054161562000132575b7ffbd454f36a7e1a388bd6fc3ab10d434aa4578f811acbbcf33afb1c697486313c91828252818152838220338352815260ff848320541615620000f7575b8351611c729081620001c982396080518181816101e1015281816107640152818161100901526110690152f35b8282528181528382209033835252828120600160ff19825416179055339160008051602062001e3b833981519152339280a4388080620000ca565b8080528082528281203382528252828120600160ff1982541617905533338260008051602062001e3b8339815191528180a46200008c565b50606491519062461bcd60e51b82526004820152601f60248201527f496e76616c69642070726f706572747920746f6b656e20636f6e7472616374006044820152fd5b600080fd5b634e487b7160e01b600052604160045260246000fdfe608080604052600436101561001d575b50361561001b57600080fd5b005b60003560e01c908163248a9ca314611480575080632f2ff15d146113cd57806336568abe1461133b5780633b345a87146112b85780634487d3df1461122157806347e64656146111e65780636298c37b14610cf45780636ecf8c8e14610c40578063795be4b914610c22578063806b7e2214610bb557806387d2d0ca14610c065780638b8dfa3914610b2e5780638f331f1514610bb557806391d1485414610b68578063964265e214610b2e5780639d6a261a14610708578063a217fddf146106ec578063c7e772ed1461050b578063d547741f146104cc578063db2e21bc1461022d578063e1f1c4a714610210578063e71f5dac146101cb578063f08a7357146101725763f0bd87cc14610132573861000f565b3461016d57600036600319011261016d5760206040517ffbd454f36a7e1a388bd6fc3ab10d434aa4578f811acbbcf33afb1c697486313c8152f35b600080fd5b3461016d57604036600319011261016d5761018b6114c1565b6001600160a01b031660009081526003602052604090208054602435919082101561016d576020916101bc916114e4565b90549060031b1c604051908152f35b3461016d57600036600319011261016d576040517f00000000000000000000000000000000000000000000000000000000000000006001600160a01b03168152602090f35b3461016d57600036600319011261016d5760206040516127108152f35b3461016d57600036600319011261016d573360009081527fad3228b676f7d3cd4284a5443f17f1962b36e491b30a40b2405849e597ba5fb5602090815260409091205460ff161561030e574780156102d057600080808093335af1610290611650565b501561029857005b6064906040519062461bcd60e51b82526004820152601160248201527015da5d1a191c985dd85b0819985a5b1959607a1b6044820152fd5b60405162461bcd60e51b81526004810183905260166024820152754e6f2062616c616e636520746f20776974686472617760501b6044820152606490fd5b61031733611ad7565b90600091604051610327816114fc565b604281528281019360603686378151156104b6576030855381516001908110156104b657607860218401536041905b80821161045c57505061041957906103e26048604494936040519687916103d38784019676020b1b1b2b9b9a1b7b73a3937b61d1030b1b1b7bab73a1604d1b88526103aa815180928b603789019101611580565b8401917001034b99036b4b9b9b4b733903937b6329607d1b603784015251809386840190611580565b0103602881018752018561152e565b61040b60405194859362461bcd60e51b8552600485015251809281602486015285850190611580565b601f01601f19168101030190fd5b6064836040519062461bcd60e51b825280600483015260248201527f537472696e67733a20686578206c656e67746820696e73756666696369656e746044820152fd5b9091600f811660108110156104b6576f181899199a1a9b1b9c1cb0b131b232b360811b901a61048b8486611ac6565b5360041c9180156104a0576000190190610356565b634e487b7160e01b600052601160045260246000fd5b634e487b7160e01b600052603260045260246000fd5b3461016d57604036600319011261016d5761001b6004356104eb6114ab565b90806000526000602052610506600160406000200154611927565b611a32565b3461016d5760208060031936011261016d576105256114c1565b61052d611be6565b6001600160a01b031660008181526004835260408082203383528452902054909181156106b15782600052600481526040600020336000528152600060408120558260005261059d60059283835261058a81604060002054611ab9565b8560005284845260406000205533611680565b8260005260038152604060002092604051808584829754938481520190600052846000209260005b8682821061069b575050506105dc9250038561152e565b60005b845181101561069557808361062892861b870101518060005260028552604060002060098101903360005281875260406000205415158061067f575b61062d575b5050506115e8565b6105df565b600a0186526040600020600160ff19825416179055855283604060002054916040519283527f96a7185d82cc69593923de8d4b06ace70544411b1cc122153661ff794aa4d3f7873394a4868080610620565b50600a8101875260ff604060002054161561061b565b60018055005b855484526001958601958a9550930192016105c5565b6064906040519062461bcd60e51b8252600482015260146024820152734e6f2070656e64696e67206469766964656e647360601b6044820152fd5b3461016d57600036600319011261016d57602060405160008152f35b3461016d57604036600319011261016d576107216114c1565b60249081359161072f61172c565b610737611be6565b8215610ad757604051637e43a5d360e11b81526001600160a01b03928316600482018190529160008282817f000000000000000000000000000000000000000000000000000000000000000088165afa918215610acb57600092610964575b506101008201511561092057600654936107af856115e8565b60065584600052600260205260406000209260e081019260086127106107d686518b611aa6565b04956107e2878b611643565b9589825560018201896bffffffffffffffffffffffff60a01b8254161790558a6002830155608085015160038301554260048301555160058201558660068201558560078201550160ff19815416905585600052600360205260406000208054916801000000000000000083101561090c57509360609360209993610890847f5075963a9041ed42429279f6ffa82b2b40f4332e9c7ad5de5f467d3638b982999860018d9b970181556114e4565b81549060031b908a821b91600019901b1916179055836108c9575b5050604051928352888301526040820152a360018055604051908152f35b60c0016108d98483835116611680565b5116877fb46130b279b057e97e6b556f82eae25ad037b863a7220079669b3c354a6790a38b604051868152a389806108ab565b634e487b7160e01b60009081526041600452fd5b606490601c6040519162461bcd60e51b8352602060048401528201527f50726f706572747920746f6b656e206973206e6f7420616374697665000000006044820152fd5b9091503d806000833e610977818361152e565b810160208282031261016d57815167ffffffffffffffff9283821161016d5701906101a092838383031261016d5760405193840184811082821117610ab6576040526109c283611550565b8452602083015181811161016d57826109dc9185016115a3565b6020850152604083015181811161016d57826109f99185016115a3565b6040850152606083015181811161016d5782610a169185016115a3565b60608501526080830151608085015260a083015160a0850152610a3b60c08401611550565b60c085015260e083015160e08501526101008084015190811515820361016d57850152610120918284015191821161016d57610a789184016115a3565b9083015261014080820151908301526101608082015190600682101561016d578301526101808091015190600582101561016d578201529085610796565b85634e487b7160e01b60005260416004526000fd5b6040513d6000823e3d90fd5b608490602a6040519162461bcd60e51b8352602060048401528201527f446973747269627574696f6e20616d6f756e74206d75737420626520677265616044820152690746572207468616e20360b41b6064820152fd5b3461016d57602036600319011261016d576001600160a01b03610b4f6114c1565b1660005260056020526020604060002054604051908152f35b3461016d57604036600319011261016d57610b816114ab565b600435600052600060205260406000209060018060a01b0316600052602052602060ff604060002054166040519015158152f35b3461016d57604036600319011261016d57610bce6114c1565b610bd66114ab565b9060018060a01b038091166000526004602052604060002091166000526020526020604060002054604051908152f35b3461016d57600036600319011261016d57602060405160648152f35b3461016d57600036600319011261016d576020600654604051908152f35b3461016d5760208060031936011261016d576001600160a01b03610c626114c1565b1660005260038152604060002060405190818382549182815201908192600052846000209060005b86828210610ce0578686610ca08288038361152e565b604051928392818401908285525180915260408401929160005b828110610cc957505050500390f35b835185528695509381019392810192600101610cba565b835485529093019260019283019201610c8a565b3461016d57604036600319011261016d57610d0d61172c565b610d15611be6565b6024351515806111d9575b1561119f5760043560005260026020526040600020610d41815415156115f7565b600881015460ff811660048110158061113557811580928115611190575b501561114b5761113557610fc3575b50600b810154602435811115610fbc57610d8a60243582611643565b600091815b818110610e9f57505060005b602435811080610e92575b15610e3757600b840154908115610e2157600019918201610dca81600b88016114e4565b81546001600160a01b03600392831b1b1916909155600b870191909155600c860154928315610e215780610e1c940191610e0783600c8a016114e4565b81939154921b1b19169055600c8601556115e8565b610d9b565b634e487b7160e01b600052603160045260246000fd5b5091600b81015415610e7e575b5060405191825260208201527fd78204b380644f31cf1c59eaf39df5d2e4d173c5de43e3d3ecd95496efb5efd4604060043592a260018055005b600801805460ff1916600217905582610e44565b50600b8401541515610da6565b610eac81600b87016114e4565b9054610ebb83600c89016114e4565b90549060031b1c80151580610f94575b610ee1575b505050610edc906115e8565b610d8f565b610eef906007890154611aa6565b6003880154908115610f7e5704918215610ed05791610edc939691610f759360018060a01b038060018c0154169283600052600460205260406000209260031b1c169081600052602052610f4883604060002054611ab9565b916000526004602052604060002090600052602052604060002055600988016020526040600020556115e8565b93908680610ed0565b634e487b7160e01b600052601260045260246000fd5b5060018060a01b03828460031b1c16600052600a880160205260ff6040600020541615610ecb565b6000610d8a565b60019060ff1916176008820155600435600052600260205260018060a01b036001604060002001541660405190637845c17360e11b825260208260048160018060a01b037f0000000000000000000000000000000000000000000000000000000000000000165afa918215610acb57600092611101575b5060005b82811061104d575b5050610d6e565b60405163644b7a4360e01b8152600481018290526020816024817f00000000000000000000000000000000000000000000000000000000000000006001600160a01b03165afa8015610acb5783916000916110c5575b506001600160a01b0316146110c0576110bb906115e8565b61103e565b611046565b9150506020813d6020116110f9575b816110e16020938361152e565b8101031261016d576110f38391611550565b866110a3565b3d91506110d4565b9091506020813d60201161112d575b8161111d6020938361152e565b8101031261016d5751908361103a565b3d9150611110565b634e487b7160e01b600052602160045260246000fd5b60405162461bcd60e51b815260206004820152601b60248201527f496e76616c696420646973747269627574696f6e2073746174757300000000006044820152606490fd5b91505060016000911485610d5f565b60405162461bcd60e51b8152602060048201526012602482015271496e76616c69642062617463682073697a6560701b6044820152606490fd5b5060646024351115610d20565b3461016d57600036600319011261016d5760206040517f5aa58c694aeb083df8754bf5e98675317e4137a5a8a2c6188d0228869e43da7e8152f35b3461016d57602036600319011261016d57600435600052600260205261012060406000206112b681549160018060a01b036001820154169060028101546003820154600483015460058401549160068501549360ff600860078801549701541696604051998a5260208a015260408901526060880152608087015260a086015260c085015260e08401526101008301906114d7565bf35b3461016d57602036600319011261016d57600435600052600260205260c060406000206112e7815415156115f7565b6112b660018060a01b0360018301541691600281015490600781015460068201549060ff600860048501549401541693604051968752602087015260408601526060850152608084015260a08301906114d7565b3461016d57604036600319011261016d576113546114ab565b336001600160a01b038216036113705761001b90600435611a32565b60405162461bcd60e51b815260206004820152602f60248201527f416363657373436f6e74726f6c3a2063616e206f6e6c792072656e6f756e636560448201526e103937b632b9903337b91039b2b63360891b6064820152608490fd5b3461016d57604036600319011261016d576004356113e96114ab565b816000526000602052611403600160406000200154611927565b81600052600060205260406000209060018060a01b0316908160005260205260ff604060002054161561143257005b8160005260006020526040600020816000526020526040600020600160ff1982541617905533917f2f8788117e7eff1d82e926ec794901d17c78024a50270940304540a733656f0d600080a4005b3461016d57602036600319011261016d57602090600435600052600082526001604060002001548152f35b602435906001600160a01b038216820361016d57565b600435906001600160a01b038216820361016d57565b9060048210156111355752565b80548210156104b65760005260206000200190600090565b6080810190811067ffffffffffffffff82111761151857604052565b634e487b7160e01b600052604160045260246000fd5b90601f8019910116810190811067ffffffffffffffff82111761151857604052565b51906001600160a01b038216820361016d57565b67ffffffffffffffff811161151857601f01601f191660200190565b60005b8381106115935750506000910152565b8181015183820152602001611583565b81601f8201121561016d5780516115b981611564565b926115c7604051948561152e565b8184526020828401011161016d576115e59160208085019101611580565b90565b60001981146104a05760010190565b156115fe57565b60405162461bcd60e51b815260206004820152601b60248201527f446973747269627574696f6e20646f6573206e6f7420657869737400000000006044820152606490fd5b919082039182116104a057565b3d1561167b573d9061166182611564565b9161166f604051938461152e565b82523d6000602084013e565b606090565b8147106116e7576000918291829182916001600160a01b03165af16116a3611650565b50156116ab57565b60405162461bcd60e51b815260206004820152601460248201527312109054881d1c985b9cd9995c8819985a5b195960621b6044820152606490fd5b60405162461bcd60e51b815260206004820152601d60248201527f496e73756666696369656e7420636f6e74726163742062616c616e63650000006044820152606490fd5b3360009081527f37775adb12013835ce20d78b1c52193dd1da3dc792bc1ec9a2d7427221516c8a6020908152604080832054909291907ffbd454f36a7e1a388bd6fc3ab10d434aa4578f811acbbcf33afb1c697486313c9060ff16156117925750505050565b61179b33611ad7565b908451906117a8826114fc565b6042825283820194606036873782511561191357603086538251906001918210156119135790607860218501536041915b8183116118a557505050611863578461183f604861040b9360449798519889916118308984019876020b1b1b2b9b9a1b7b73a3937b61d1030b1b1b7bab73a1604d1b8a526103aa815180928d603789019101611580565b0103602881018952018761152e565b5194859362461bcd60e51b8552600485015251809281602486015285850190611580565b60648386519062461bcd60e51b825280600483015260248201527f537472696e67733a20686578206c656e67746820696e73756666696369656e746044820152fd5b909192600f811660108110156118ff576f181899199a1a9b1b9c1cb0b131b232b360811b901a6118d58587611ac6565b5360041c9280156118eb576000190191906117d9565b634e487b7160e01b82526011600452602482fd5b634e487b7160e01b83526032600452602483fd5b634e487b7160e01b81526032600452602490fd5b60008181526020818152604092838320338452825260ff84842054161561194e5750505050565b61195733611ad7565b90845190611964826114fc565b6042825283820194606036873782511561191357603086538251906001918210156119135790607860218501536041915b8183116119ec57505050611863578461183f604861040b9360449798519889916118308984019876020b1b1b2b9b9a1b7b73a3937b61d1030b1b1b7bab73a1604d1b8a526103aa815180928d603789019101611580565b909192600f811660108110156118ff576f181899199a1a9b1b9c1cb0b131b232b360811b901a611a1c8587611ac6565b5360041c9280156118eb57600019019190611995565b9060009180835282602052604083209160018060a01b03169182845260205260ff604084205416611a6257505050565b80835282602052604083208284526020526040832060ff1981541690557ff6391f5c32d9c69d2a47ea670b442974b53935d1edc7fd64eb21e047a839171b339380a4565b818102929181159184041417156104a057565b919082018092116104a057565b9081518110156104b6570160200190565b604051906060820182811067ffffffffffffffff82111761151857604052602a82526020820160403682378251156104b6576030905381516001908110156104b657607860218401536029905b808211611b78575050611b345790565b606460405162461bcd60e51b815260206004820152602060248201527f537472696e67733a20686578206c656e67746820696e73756666696369656e746044820152fd5b9091600f81166010811015611bd1576f181899199a1a9b1b9c1cb0b131b232b360811b901a611ba78486611ac6565b5360041c918015611bbc576000190190611b24565b60246000634e487b7160e01b81526011600452fd5b60246000634e487b7160e01b81526032600452fd5b600260015414611bf7576002600155565b60405162461bcd60e51b815260206004820152601f60248201527f5265656e7472616e637947756172643a207265656e7472616e742063616c6c006044820152606490fdfea2646970667358221220be2847f4315ffb4eb079278b833242dd47ebc84a5158d633cd5838e21f5fc66f64736f6c634300081300332f8788117e7eff1d82e926ec794901d17c78024a50270940304540a733656f0d",
  "linkReferences": {},
  "deployedLinkReferences": {}
}