{
  "_format": "hh-sol-artifact-1",
  "contractName": "PropertyToken",
  "sourceName": "contracts/PropertyToken.sol",
  "abi": [
    {
      "inputs": [],
      "stateMutability": "nonpayable",
      "type": "constructor"
    },
    {
      "anonymous": false,
      "inputs": [
        {
          "indexed": true,
          "internalType": "address",
          "name": "tokenAddress",
          "type": "address"
        },
        {
          "indexed": false,
          "internalType": "string",
          "name": "metadataURI",
          "type": "string"
        },
        {
          "indexed": false,
          "internalType": "uint256",
          "name": "timestamp",
          "type": "uint256"
        }
      ],
      "name": "PropertyMetadataUpdated",
      "type": "event"
    },
    {
      "anonymous": false,
      "inputs": [
        {
          "indexed": true,
          "internalType": "address",
          "name": "tokenAddress",
          "type": "address"
        },
        {
          "indexed": false,
          "internalType": "enum IPropertyToken.PropertyStatus",
          "name": "oldStatus",
          "type": "uint8"
        },
        {
          "indexed": false,
          "internalType": "enum IPropertyToken.PropertyStatus",
          "name": "newStatus",
          "type": "uint8"
        }
      ],
      "name": "PropertyStatusUpdated",
      "type": "event"
    },
    {
      "anonymous": false,
      "inputs": [
        {
          "indexed": true,
          "internalType": "address",
          "name": "tokenAddress",
          "type": "address"
        },
        {
          "indexed": true,
          "internalType": "string",
          "name": "propertyId",
          "type": "string"
        },
        {
          "indexed": false,
          "internalType": "string",
          "name": "name",
          "type": "string"
        },
        {
          "indexed": false,
          "internalType": "uint256",
          "name": "totalSupply",
          "type": "uint256"
        },
        {
          "indexed": true,
          "internalType": "address",
          "name": "propertyManager",
          "type": "address"
        }
      ],
      "name": "PropertyTokenCreated",
      "type": "event"
    },
    {
      "anonymous": false,
      "inputs": [
        {
          "indexed": true,
          "internalType": "bytes32",
          "name": "role",
          "type": "bytes32"
        },
        {
          "indexed": true,
          "internalType": "bytes32",
          "name": "previousAdminRole",
          "type": "bytes32"
        },
        {
          "indexed": true,
          "internalType": "bytes32",
          "name": "newAdminRole",
          "type": "bytes32"
        }
      ],
      "name": "RoleAdminChanged",
      "type": "event"
    },
    {
      "anonymous": false,
      "inputs": [
        {
          "indexed": true,
          "internalType": "bytes32",
          "name": "role",
          "type": "bytes32"
        },
        {
          "indexed": true,
          "internalType": "address",
          "name": "account",
          "type": "address"
        },
        {
          "indexed": true,
          "internalType": "address",
          "name": "sender",
          "type": "address"
        }
      ],
      "name": "RoleGranted",
      "type": "event"
    },
    {
      "anonymous": false,
      "inputs": [
        {
          "indexed": true,
          "internalType": "bytes32",
          "name": "role",
          "type": "bytes32"
        },
        {
          "indexed": true,
          "internalType": "address",
          "name": "account",
          "type": "address"
        },
        {
          "indexed": true,
          "internalType": "address",
          "name": "sender",
          "type": "address"
        }
      ],
      "name": "RoleRevoked",
      "type": "event"
    },
    {
      "anonymous": false,
      "inputs": [
        {
          "indexed": true,
          "internalType": "address",
          "name": "tokenAddress",
          "type": "address"
        },
        {
          "indexed": true,
          "internalType": "address",
          "name": "from",
          "type": "address"
        },
        {
          "indexed": true,
          "internalType": "address",
          "name": "to",
          "type": "address"
        },
        {
          "indexed": false,
          "internalType": "uint256",
          "name": "amount",
          "type": "uint256"
        }
      ],
      "name": "TokensTransferred",
      "type": "event"
    },
    {
      "inputs": [],
      "name": "DEFAULT_ADMIN_ROLE",
      "outputs": [
        {
          "internalType": "bytes32",
          "name": "",
          "type": "bytes32"
        }
      ],
      "stateMutability": "view",
      "type": "function"
    },
    {
      "inputs": [],
      "name": "PROPERTY_MANAGER_ROLE",
      "outputs": [
        {
          "internalType": "bytes32",
          "name": "",
          "type": "bytes32"
        }
      ],
      "stateMutability": "view",
      "type": "function"
    },
    {
      "inputs": [],
      "name": "TOKENIZER_ROLE",
      "outputs": [
        {
          "internalType": "bytes32",
          "name": "",
          "type": "bytes32"
        }
      ],
      "stateMutability": "view",
      "type": "function"
    },
    {
      "inputs": [
        {
          "internalType": "uint256",
          "name": "",
          "type": "uint256"
        }
      ],
      "name": "allTokens",
      "outputs": [
        {
          "internalType": "address",
          "name": "",
          "type": "address"
        }
      ],
      "stateMutability": "view",
      "type": "function"
    },
    {
      "inputs": [
        {
          "internalType": "string",
          "name": "propertyId",
          "type": "string"
        },
        {
          "internalType": "string",
          "name": "name",
          "type": "string"
        },
        {
          "internalType": "string",
          "name": "symbol",
          "type": "string"
        },
        {
          "internalType": "uint256",
          "name": "totalSupply",
          "type": "uint256"
        },
        {
          "internalType": "uint256",
          "name": "pricePerToken",
          "type": "uint256"
        },
        {
          "internalType": "address",
          "name": "propertyManager",
          "type": "address"
        },
        {
          "internalType": "uint256",
          "name": "managementFeePercent",
          "type": "uint256"
        },
        {
          "internalType": "string",
          "name": "metadataURI",
          "type": "string"
        },
        {
          "internalType": "enum IPropertyToken.PropertyType",
          "name": "propertyType",
          "type": "uint8"
        }
      ],
      "name": "createPropertyToken",
      "outputs": [
        {
          "internalType": "address",
          "name": "",
          "type": "address"
        }
      ],
      "stateMutability": "nonpayable",
      "type": "function"
    },
    {
      "inputs": [
        {
          "internalType": "address",
          "name": "tokenAddress",
          "type": "address"
        },
        {
          "internalType": "address",
          "name": "investor",
          "type": "address"
        }
      ],
      "name": "getInvestorBalance",
      "outputs": [
        {
          "internalType": "uint256",
          "name": "",
          "type": "uint256"
        }
      ],
      "stateMutability": "view",
      "type": "function"
    },
    {
      "inputs": [
        {
          "internalType": "address",
          "name": "manager",
          "type": "address"
        }
      ],
      "name": "getManagerProperties",
      "outputs": [
        {
          "internalType": "address[]",
          "name": "",
          "type": "address[]"
        }
      ],
      "stateMutability": "view",
      "type": "function"
    },
    {
      "inputs": [
        {
          "internalType": "address",
          "name": "tokenAddress",
          "type": "address"
        }
      ],
      "name": "getPropertyMetadata",
      "outputs": [
        {
          "components": [
            {
              "internalType": "string",
              "name": "location",
              "type": "string"
            },
            {
              "internalType": "uint256",
              "name": "valuation",
              "type": "uint256"
            },
            {
              "internalType": "uint256",
              "name": "expectedYield",
              "type": "uint256"
            },
            {
              "internalType": "string[]",
              "name": "documentHashes",
              "type": "string[]"
            },
            {
              "internalType": "uint256",
              "name": "lastUpdated",
              "type": "uint256"
            }
          ],
          "internalType": "struct IPropertyToken.PropertyMetadata",
          "name": "",
          "type": "tuple"
        }
      ],
      "stateMutability": "view",
      "type": "function"
    },
    {
      "inputs": [
        {
          "internalType": "address",
          "name": "tokenAddress",
          "type": "address"
        }
      ],
      "name": "getPropertyToken",
      "outputs": [
        {
          "components": [
            {
              "internalType": "address",
              "name": "tokenAddress",
              "type": "address"
            },
            {
              "internalType": "string",
              "name": "propertyId",
              "type": "string"
            },
            {
              "internalType": "string",
              "name": "name",
              "type": "string"
            },
            {
              "internalType": "string",
              "name": "symbol",
              "type": "string"
            },
            {
              "internalType": "uint256",
              "name": "totalSupply",
              "type": "uint256"
            },
            {
              "internalType": "uint256",
              "name": "pricePerToken",
              "type": "uint256"
            },
            {
              "internalType": "address",
              "name": "propertyManager",
              "type": "address"
            },
            {
              "internalType": "uint256",
              "name": "managementFeePercent",
              "type": "uint256"
            },
            {
              "internalType": "bool",
              "name": "isActive",
              "type": "bool"
            },
            {
              "internalType": "string",
              "name": "metadataURI",
              "type": "string"
            },
            {
              "internalType": "uint256",
              "name": "createdAt",
              "type": "uint256"
            },
            {
              "internalType": "enum IPropertyToken.PropertyType",
              "name": "propertyType",
              "type": "uint8"
            },
            {
              "internalType": "enum IPropertyToken.PropertyStatus",
              "name": "status",
              "type": "uint8"
            }
          ],
          "internalType": "struct IPropertyToken.PropertyTokenInfo",
          "name": "",
          "type": "tuple"
        }
      ],
      "stateMutability": "view",
      "type": "function"
    },
    {
      "inputs": [
        {
          "internalType": "bytes32",
          "name": "role",
          "type": "bytes32"
        }
      ],
      "name": "getRoleAdmin",
      "outputs": [
        {
          "internalType": "bytes32",
          "name": "",
          "type": "bytes32"
        }
      ],
      "stateMutability": "view",
      "type": "function"
    },
    {
      "inputs": [
        {
          "internalType": "uint256",
          "name": "index",
          "type": "uint256"
        }
      ],
      "name": "getTokenByIndex",
      "outputs": [
        {
          "internalType": "address",
          "name": "",
          "type": "address"
        }
      ],
      "stateMutability": "view",
      "type": "function"
    },
    {
      "inputs": [
        {
          "internalType": "string",
          "name": "propertyId",
          "type": "string"
        }
      ],
      "name": "getTokenByPropertyId",
      "outputs": [
        {
          "internalType": "address",
          "name": "",
          "type": "address"
        }
      ],
      "stateMutability": "view",
      "type": "function"
    },
    {
      "inputs": [],
      "name": "getTotalTokens",
      "outputs": [
        {
          "internalType": "uint256",
          "name": "",
          "type": "uint256"
        }
      ],
      "stateMutability": "view",
      "type": "function"
    },
    {
      "inputs": [
        {
          "internalType": "bytes32",
          "name": "role",
          "type": "bytes32"
        },
        {
          "internalType": "address",
          "name": "account",
          "type": "address"
        }
      ],
      "name": "grantRole",
      "outputs": [],
      "stateMutability": "nonpayable",
      "type": "function"
    },
    {
      "inputs": [
        {
          "internalType": "bytes32",
          "name": "role",
          "type": "bytes32"
        },
        {
          "internalType": "address",
          "name": "account",
          "type": "address"
        }
      ],
      "name": "hasRole",
      "outputs": [
        {
          "internalType": "bool",
          "name": "",
          "type": "bool"
        }
      ],
      "stateMutability": "view",
      "type": "function"
    },
    {
      "inputs": [
        {
          "internalType": "address",
          "name": "",
          "type": "address"
        },
        {
          "internalType": "address",
          "name": "",
          "type": "address"
        }
      ],
      "name": "investorBalances",
      "outputs": [
        {
          "internalType": "uint256",
          "name": "",
          "type": "uint256"
        }
      ],
      "stateMutability": "view",
      "type": "function"
    },
    {
      "inputs": [
        {
          "internalType": "address",
          "name": "",
          "type": "address"
        },
        {
          "internalType": "uint256",
          "name": "",
          "type": "uint256"
        }
      ],
      "name": "managerProperties",
      "outputs": [
        {
          "internalType": "address",
          "name": "",
          "type": "address"
        }
      ],
      "stateMutability": "view",
      "type": "function"
    },
    {
      "inputs": [
        {
          "internalType": "string",
          "name": "",
          "type": "string"
        }
      ],
      "name": "propertyIdToToken",
      "outputs": [
        {
          "internalType": "address",
          "name": "",
          "type": "address"
        }
      ],
      "stateMutability": "view",
      "type": "function"
    },
    {
      "inputs": [
        {
          "internalType": "address",
          "name": "",
          "type": "address"
        }
      ],
      "name": "propertyMetadata",
      "outputs": [
        {
          "internalType": "string",
          "name": "location",
          "type": "string"
        },
        {
          "internalType": "uint256",
          "name": "valuation",
          "type": "uint256"
        },
        {
          "internalType": "uint256",
          "name": "expectedYield",
          "type": "uint256"
        },
        {
          "internalType": "uint256",
          "name": "lastUpdated",
          "type": "uint256"
        }
      ],
      "stateMutability": "view",
      "type": "function"
    },
    {
      "inputs": [
        {
          "internalType": "address",
          "name": "",
          "type": "address"
        }
      ],
      "name": "propertyTokens",
      "outputs": [
        {
          "internalType": "address",
          "name": "tokenAddress",
          "type": "address"
        },
        {
          "internalType": "string",
          "name": "propertyId",
          "type": "string"
        },
        {
          "internalType": "string",
          "name": "name",
          "type": "string"
        },
        {
          "internalType": "string",
          "name": "symbol",
          "type": "string"
        },
        {
          "internalType": "uint256",
          "name": "totalSupply",
          "type": "uint256"
        },
        {
          "internalType": "uint256",
          "name": "pricePerToken",
          "type": "uint256"
        },
        {
          "internalType": "address",
          "name": "propertyManager",
          "type": "address"
        },
        {
          "internalType": "uint256",
          "name": "managementFeePercent",
          "type": "uint256"
        },
        {
          "internalType": "bool",
          "name": "isActive",
          "type": "bool"
        },
        {
          "internalType": "string",
          "name": "metadataURI",
          "type": "string"
        },
        {
          "internalType": "uint256",
          "name": "createdAt",
          "type": "uint256"
        },
        {
          "internalType": "enum IPropertyToken.PropertyType",
          "name": "propertyType",
          "type": "uint8"
        },
        {
          "internalType": "enum IPropertyToken.PropertyStatus",
          "name": "status",
          "type": "uint8"
        }
      ],
      "stateMutability": "view",
      "type": "function"
    },
    {
      "inputs": [
        {
          "internalType": "bytes32",
          "name": "role",
          "type": "bytes32"
        },
        {
          "internalType": "address",
          "name": "account",
          "type": "address"
        }
      ],
      "name": "renounceRole",
      "outputs": [],
      "stateMutability": "nonpayable",
      "type": "function"
    },
    {
      "inputs": [
        {
          "internalType": "bytes32",
          "name": "role",
          "type": "bytes32"
        },
        {
          "internalType": "address",
          "name": "account",
          "type": "address"
        }
      ],
      "name": "revokeRole",
      "outputs": [],
      "stateMutability": "nonpayable",
      "type": "function"
    },
    {
      "inputs": [
        {
          "internalType": "address",
          "name": "tokenAddress",
          "type": "address"
        },
        {
          "internalType": "address",
          "name": "from",
          "type": "address"
        },
        {
          "internalType": "address",
          "name": "to",
          "type": "address"
        },
        {
          "internalType": "uint256",
          "name": "amount",
          "type": "uint256"
        }
      ],
      "name": "transferTokens",
      "outputs": [],
      "stateMutability": "nonpayable",
      "type": "function"
    },
    {
      "inputs": [
        {
          "internalType": "address",
          "name": "tokenAddress",
          "type": "address"
        },
        {
          "internalType": "string",
          "name": "location",
          "type": "string"
        },
        {
          "internalType": "uint256",
          "name": "valuation",
          "type": "uint256"
        },
        {
          "internalType": "uint256",
          "name": "expectedYield",
          "type": "uint256"
        },
        {
          "internalType": "string[]",
          "name": "documentHashes",
          "type": "string[]"
        },
        {
          "internalType": "string",
          "name": "metadataURI",
          "type": "string"
        }
      ],
      "name": "updatePropertyMetadata",
      "outputs": [],
      "stateMutability": "nonpayable",
      "type": "function"
    },
    {
      "inputs": [
        {
          "internalType": "address",
          "name": "tokenAddress",
          "type": "address"
        },
        {
          "internalType": "enum IPropertyToken.PropertyStatus",
          "name": "newStatus",
          "type": "uint8"
        }
      ],
      "name": "updatePropertyStatus",
      "outputs": [],
      "stateMutability": "nonpayable",
      "type": "function"
    }
  ],
  "bytecode": "0x6080604081815234620000ef57600180556000808052602091818352808220338352835260ff818320541615620000b7575b7fe70d28ebd9d7d9a3dd77d46ae2481f301c80806f395b08de31d8e095b1c46cee92838352828152818320338452815260ff8284205416156200007c575b612d398581620000f58239f35b83835282815281832090338452528120600160ff19825416179055339160008051602062002e2e833981519152339280a4388080806200006f565b8180528183528082203383528352808220600160ff1982541617905533338360008051602062002e2e8339815191528180a462000031565b600080fdfe608080604052600436101561001357600080fd5b60003560e01c9081630605a334146126385750806313370e441461059257806320d15be1146125df578063248a9ca3146125b05780632f2ff15d146124fd57806336568abe1461246b57806347e6465614612430578063634282af14612407578063644b7a431461238a57806368155ec1146120c5578063718e120b146107ed578063771351fd14611aa6578063829b7c89146119f357806391d14854146119a6578063a217fddf1461198a578063ab9b8c871461098a578063b14bda5914610855578063b56a6b14146107ed578063c127f5f514610778578063c707dd2d14610624578063d547741f146105e3578063dac796bb14610592578063f08b82e614610574578063f5b94e1e146103cd5763fc874ba61461013257600080fd5b346103c85760203660031901126103c85761014b612671565b600061018060405161015c81612707565b82815260606020820152606060408201526060808201528260808201528260a08201528260c08201528260e08201528261010082015260606101208201528261014082015282610160820152015260018060a01b03168060005260026020526101cf60ff60086040600020015416612968565b60005260026020526040600020600b604051916101eb83612707565b80546001600160a01b031683526102046001820161285f565b60208401526102156002820161285f565b60408401526102266003820161285f565b606084015260048101546080840152600581015460a084015260068101546001600160a01b031660c0840152600781015460e0840152600881015460ff1615156101008401526102786009820161285f565b610120840152600a8101546101408401520154600660ff821610156103b25760ff8116610160830152600560ff8260081c1610156103b25760ff9060081c1661018082015260405180916020825260018060a01b0381511660208301526103ae61018061038261032b6103156102ff60208701516101a060408a01526101c0890190612905565b6040870151888203601f190160608a0152612905565b6060860151878203601f19016080890152612905565b608085015160a087015260a085015160c087015260018060a01b0360c08601511660e087015260e08501516101008701526101008501511515610120870152610120850151601f1987830301610140880152612905565b926101408101516101608601526103a16101608201518387019061292a565b01516101a0840190612937565b0390f35b634e487b7160e01b600052602160045260246000fd5b600080fd5b346103c8576020806003193601126103c8576103e7612671565b600060806040516103f7816126ec565b606081528285820152826040820152606080820152015260018060a01b0316806000526002825261043260ff60086040600020015416612968565b600052600381526040600020906040519061044c826126ec565b6104558361285f565b825260019283810154918084019283526002820154916040850192835260038101908154876104838261280e565b936104916040519586612774565b82855260009081528581208686015b84831061055357505050505060049060608701928352015492608086019384526104db604051968488525160a08589015260c0880190612905565b945160408701525160608601525192601f19918286830301608087015284519182815281810182808560051b8401019701946000925b85841061052557875160a08b01528989038af35b90919293949597858061054283868f958790030188528c51612905565b9a0194019401929594939190610511565b83888192610563859d9b9d61285f565b8152019201920191909896986104a0565b346103c85760003660031901126103c8576020600754604051908152f35b346103c85760403660031901126103c8576105ab612671565b6105b3612687565b9060018060a01b038091166000526004602052604060002091166000526020526020604060002054604051908152f35b346103c85760403660031901126103c857610622600435610602612687565b9080600052600060205261061d6001604060002001546129ab565b612b5e565b005b346103c85760403660031901126103c85761063d612671565b60243560058110156103c85760018060a01b0380921691826000526020906002825261067360ff60086040600020015416612968565b7f5aa58c694aeb083df8754bf5e98675317e4137a5a8a2c6188d0228869e43da7e60005260008252604060002033600052825260ff6040600020541690811561075b575b50156107265760ff6107237f7aaa081cd562023d4ad09d4686e390ce99c50431cf77da61ea3ad3f0c7bfb67293604093866000526002815261071b600b866000200180549061ff008560081b1661ff00198316179055865195869160081c16612937565b830190612937565ba2005b6064906040519062461bcd60e51b82526004820152600e60248201526d139bdd08185d5d1a1bdc9a5e995960921b6044820152fd5b9050836000526002825233906006604060002001541614846106b7565b346103c85760203660031901126103c8576001600160a01b03610799612671565b1660005260036020526107d960406000206107b38161285f565b906001810154906004600282015491015490604051948594608086526080860190612905565b926020850152604084015260608301520390f35b346103c85760203660031901126103c8576004356001600160401b0381116103c85761081f6020913690600401612795565b8161083360405192838151938492016127eb565b600690820190815281900382019020546040516001600160a01b039091168152f35b346103c85760203660031901126103c8576001600160a01b0380610877612671565b16600052600260205260406000208181541690600181016108979061285f565b926108a46002830161285f565b906108b16003840161285f565b90600484015490600585015490600686015416600786015490600887015460ff1692600988016108e09061285f565b95600a89015498600b0154976040519b8c9b8c528b6101a06020819201528c0161090991612905565b8b810360408d015261091a91612905565b8a810360608c015261092b91612905565b9460808a015260a089015260c088015260e0870152151561010086015284810361012086015261095a91612905565b91610140840152610160830160ff8216906109749161292a565b61018083019060081c60ff16906103ae91612937565b346103c8576101203660031901126103c8576004356001600160401b0381116103c8576109bb903690600401612795565b6024356001600160401b0381116103c8576109da903690600401612795565b6044356001600160401b0381116103c8576109f9903690600401612795565b9060a4356001600160a01b03811681036103c85760e4356001600160401b0381116103c857610a2c903690600401612795565b9260066101043510156103c8573360009081527fd794e082c83af78a2a6a572f4231a899bef773ee0851bd2fa0fde1ff322f1c7d602052604090205460ff16156117be57610a78612cad565b8451156117795782511561173d578051156116ff57606435156116ae576084351561165a576001600160a01b03821615611616576107d060c435116115d2576040518551610aca818360208a016127eb565b60069082019081528190036020019020546001600160a01b031661158d5760405193846101208101106001600160401b036101208701111761116457610120850160405260608552606060208601526000604086015260608086015260006080860152600060a0860152600060c0860152606060e08601526040518060608101106001600160401b036060830111176111645760608101604052600081526000602082015260006040820152610100860152838552816020860152306040860152604051610b9781612723565b601981527f476c6f62616c4c616e642050726f706572747920546f6b656e00000000000000602082015260608601526001608086015260643560070b60a0860152600060c0860152604051610beb81612723565b6001815260005b602081106115545750610c5590604051610c0b816126ec565b6001815260006020820152306040820152604051610c288161273e565b600081526060820152604051610c3d8161273e565b600081526080820152610c4f8261295b565b5261295b565b50604051946393cce57160e01b86526060600487015285610cc9610ca0610c8a845161016060648601526101c4850190612905565b6020850151848203606319016084860152612905565b60408401516001600160a01b031660a484015260608401518382036063190160c4850152612905565b6080830151151560e483015260a083015160070b61010483015260c0830151151561012483015260e08301519060631983820301610144840152815180825260208201916020808360051b8301019401926000915b8383106114da5750505050508190604061010081950151805160070b61016485015260018060a01b03602082015116610184850152015160070b6101a4830152606435602483015260006044830152038160006101675af19485156114ce57600090600096611482575b50601603611445576001600160a01b038516600081815260026020526040902080546001600160a01b031916909117815586519092906001600160401b03811161116457610dd96001850154612825565b601f8111611410575b50806020601f82116001146113a257600091611397575b508160011b916000199060031b1c19161760018401555b84516001600160401b03811161116457610e2d6002850154612825565b601f8111611362575b50806020601f82116001146112f5576000916112ea575b508160011b916000199060031b1c19161760028401555b8051906001600160401b038211611164578190610e846003860154612825565b601f81116112b5575b50602090601f831160011461124357600092611238575b50508160011b916000199060031b1c19161760038301555b606435600483015560843560058301556006820180546001600160a01b0319166001600160a01b03851617905560c435600783015560088201805460ff191660011790558051906001600160401b03821161116457610f1e6009840154612825565b601f81116111f8575b50602090601f831160011461118557600b9392916000918361117a575b50508160011b916000199060031b1c19161760098201555b42600a82015501805460ff61010435169061ffff19161790556040516020818651610f8a8183858b016127eb565b60069082019081520301902080546001600160a01b0319166001600160a01b0385811691909117909155811660009081526005602052604090208054600160401b81101561116457610fe1916001820181556126d4565b81546001600160a01b0386811660039390931b92831b921b1916179055600754600160401b8110156111645760209461102382600161109c940160075561269d565b81546001600160a01b0360039290921b82811b1990911688831690911b179091557f5aa58c694aeb083df8754bf5e98675317e4137a5a8a2c6188d0228869e43da7e600081815280895260408082209387168252928952919091205460ff161561110b575b5085604051928284809451938492016127eb565b8101039020907fde2b3ccf6d86600b94567d8072c7d848050ab01f180a3cb635451540bbb455c86110d860405194604086526040860190612905565b606435858801526001600160a01b0392831694928616929081900390a4600180556040516001600160a01b039091168152f35b600081815280885260408082206001600160a01b038716808452908a52908220805460ff19166001179055339290917f2f8788117e7eff1d82e926ec794901d17c78024a50270940304540a733656f0d9080a486611088565b634e487b7160e01b600052604160045260246000fd5b015190508880610f44565b906009840160005260206000209160005b601f19851681106111e05750918391600193600b9695601f198116106111c7575b505050811b016009820155610f5c565b015160001960f88460031b161c191690558880806111b7565b91926020600181928685015181550194019201611196565b61122890600985016000526020600020601f850160051c8101916020861061122e575b601f0160051c0190612944565b87610f27565b909150819061121b565b015190508880610ea4565b9250600385016000526020600020906000935b601f198416851061129a576001945083601f19811610611281575b505050811b016003830155610ebc565b015160001960f88460031b161c19169055888080611271565b81810151835560209485019460019093019290910190611256565b6112e490600387016000526020600020601f850160051c8101916020861061122e57601f0160051c0190612944565b89610e8d565b905086015189610e4d565b91506002850160005260206000206000925b601f198316841061134a576001935082601f19811610611331575b5050811b016002840155610e64565b88015160001960f88460031b161c191690558980611322565b88810151825560209384019360019092019101611307565b61139190600286016000526020600020601f840160051c8101916020851061122e57601f0160051c0190612944565b88610e36565b905088015189610df9565b91506001850160005260206000206000925b8a601f19841685106113f957506001935082601f198116106113e0575b5050811b016001840155610e10565b8a015160001960f88460031b161c1916905589806113d1565b8101518255602093840193600190920191016113b4565b61143f90600186016000526020600020601f840160051c8101916020851061122e57601f0160051c0190612944565b88610de2565b60405162461bcd60e51b8152602060048201526015602482015274151bdad95b8818dc99585d1a5bdb8819985a5b1959605a1b6044820152606490fd5b9550506040853d6040116114c6575b8161149e60409383612774565b810103126103c8578451602090950151946001600160a01b03861686036103c8576016610d88565b3d9150611491565b6040513d6000823e3d90fd5b91939695509193602080611541600193601f198682030187528a51908151815283820151151584820152858060a01b0360408301511660408201526080611530606084015160a0606085015260a0840190612905565b920151906080818403910152612905565b98019301930190928b9596949293610d1e565b602090604051611563816126ec565b60008152600083820152600060408201526060808201526060608082015282828501015201610bf2565b60405162461bcd60e51b815260206004820152601a60248201527f50726f706572747920494420616c7265616479206578697374730000000000006044820152606490fd5b606460405162461bcd60e51b815260206004820152602060248201527f4d616e6167656d656e74206665652063616e6e6f7420657863656564203230256044820152fd5b606460405162461bcd60e51b815260206004820152602060248201527f496e76616c69642070726f7065727479206d616e6167657220616464726573736044820152fd5b60405162461bcd60e51b815260206004820152602660248201527f50726963652070657220746f6b656e206d75737420626520677265617465722060448201526507468616e20360d41b6064820152608490fd5b60405162461bcd60e51b815260206004820152602360248201527f546f74616c20737570706c79206d75737420626520677265617465722074686160448201526206e20360ec1b6064820152608490fd5b60405162461bcd60e51b815260206004820152601660248201527553796d626f6c2063616e6e6f7420626520656d70747960501b6044820152606490fd5b60405162461bcd60e51b81526020600482015260146024820152734e616d652063616e6e6f7420626520656d70747960601b6044820152606490fd5b60405162461bcd60e51b815260206004820152601b60248201527f50726f70657274792049442063616e6e6f7420626520656d70747900000000006044820152606490fd5b6117c733612be3565b604051907fe70d28ebd9d7d9a3dd77d46ae2481f301c80806f395b08de31d8e095b1c46cee6117f583612759565b60428352602083019060603683378351156119745760308253835160019081101561197457607860218601536041905b80821161191a5750506118d65760486118a3926118b2926118d29560405195869376020b1b1b2b9b9a1b7b73a3937b61d1030b1b1b7bab73a1604d1b602086015261187a8151809260206037890191016127eb565b8401917001034b99036b4b9b9b4b733903937b6329607d1b6037840152518093868401906127eb565b01036028810184520182612774565b60405162461bcd60e51b8152602060048201529182916024830190612905565b0390fd5b606460405162461bcd60e51b815260206004820152602060248201527f537472696e67733a20686578206c656e67746820696e73756666696369656e746044820152fd5b9091600f81166010811015611974576f181899199a1a9b1b9c1cb0b131b232b360811b901a6119498488612bd2565b5360041c91801561195e576000190190611825565b634e487b7160e01b600052601160045260246000fd5b634e487b7160e01b600052603260045260246000fd5b346103c85760003660031901126103c857602060405160008152f35b346103c85760403660031901126103c8576119bf612687565b600435600052600060205260406000209060018060a01b0316600052602052602060ff604060002054166040519015158152f35b346103c8576020806003193601126103c8576001600160a01b039081611a17612671565b1660005260058152604060002060405191828183549182815201908193600052826000209060005b818110611a905750505083611a55910384612774565b60405192818401908285525180915260408401929160005b828110611a7a5785850386f35b8351871685529381019392810192600101611a6d565b8254881684529284019260019283019201611a3f565b346103c85760c03660031901126103c857611abf612671565b6024356001600160401b0381116103c857611ade903690600401612795565b6084356001600160401b0381116103c857366023820112156103c857806004013591611b098361280e565b91611b176040519384612774565b83835260208301906024829560051b820101903682116103c85760248101925b828410612096575050505060a4356001600160401b0381116103c857611b61903690600401612795565b9260018060a01b03928386166000526002602052611b8960ff60086040600020015416612968565b3360009081527f3a814d6eac3306bf154f1d02bc4f57bb4f0390c16247e6c5afa43a262f9bf195602052604090205460ff168015612078575b156120295783861660005260036020526040600020928051906001600160401b038211611164578190611bf58654612825565b601f8111611ff7575b50602090601f8311600114611f8b57600092611f80575b50508160011b916000199060031b1c19161783555b604435600184015560643560028401555190600160401b8211611164576003830154826003850155808310611f08575b5090600383016000526020600020916000905b828210611df357505050506004429101558083166000526002602052600960406000200182516001600160401b03811161116457611cab8254612825565b601f8111611dc1575b506020601f8211600114611d35579181611d1c94927fee2b3f3b72e6420293f6a9f2071f21f522642910683a99a1ceccac26ca89424e9694600091611d2a575b508160011b916000199060031b1c19161790555b604051928392604084526040840190612905565b9442602084015216930390a2005b905084015188611cf4565b601f198216908360005260206000209160005b818110611da95750927fee2b3f3b72e6420293f6a9f2071f21f522642910683a99a1ceccac26ca89424e96949260019282611d1c989610611d90575b5050811b019055611d08565b86015160001960f88460031b161c191690558880611d84565b9192602060018192868b015181550194019201611d48565b611ded90836000526020600020601f840160051c8101916020851061122e57601f0160051c0190612944565b85611cb4565b80518051906001600160401b03821161116457611e108654612825565b601f8111611ed6575b50602090601f8311600114611e66579282600194936020938695600092611e5b575b5050600019600383901b1c191690841b1787555b01940191019092611c6d565b015190508d80611e3b565b908660005260206000209160005b601f1985168110611ebe575083602093600196938796938794601f19811610611ea5575b505050811b018755611e4f565b015160001960f88460031b161c191690558d8080611e98565b91926020600181928685015181550194019201611e74565b611f0290876000526020600020601f850160051c8101916020861061122e57601f0160051c0190612944565b8a611e19565b600384016000526020600020908382015b8183018110611f29575050611c5a565b80611f3660019254612825565b80611f43575b5001611f19565b601f81118314611f595750600081555b8a611f3c565b600090828252611f77601f60208420920160051c8201858301612944565b81835555611f53565b015190508880611c15565b9250856000526020600020906000935b601f1984168510611fdc576001945083601f19811610611fc3575b505050811b018355611c2a565b015160001960f88460031b161c19169055888080611fb6565b81810151835560209485019460019093019290910190611f9b565b61202390876000526020600020601f850160051c8101916020861061122e57601f0160051c0190612944565b89611bfe565b60405162461bcd60e51b815260206004820152602160248201527f4e6f7420617574686f72697a656420746f20757064617465206d6574616461746044820152606160f81b6064820152608490fd5b50838616600052600260205233846006604060002001541614611bc2565b83356001600160401b0381116103c8576020916120ba839260243691870101612795565b815201930192611b37565b346103c85760803660031901126103c8576120de612671565b6120e6612687565b6001600160a01b0360448035828116949193908590036103c85760648381359361210e612cad565b1693846000526020926002845261212f60ff60086040600020015416612968565b169485151580612381575b1561234c57831561230b5785331480156122e9575b156122a85760405163eca3691760e01b815285600482015286602482015287828201528460070b83820152838160848160006101675af180156114ce5760009061227a575b60169150036122475750508260005260048152604060002084600052815260406000205482810390811161195e5783600052600482526040600020856000528252604060002055826000526004815260406000208560005281526040600020549180830180931161195e577f70c5f97fd0068e96984b8116fe83eefbff3b91244565bf311a3cba619b4ecbc79284600052600483526040600020876000528352604060002055604051908152a460018055005b6e151c985b9cd9995c8819985a5b1959608a1b83916040519262461bcd60e51b84526004840152600f6024840152820152fd5b508381813d83116122a1575b6122908183612774565b810103126103c85760169051612194565b503d612286565b7f4e6f7420617574686f72697a656420746f207472616e7366657200000000000083916040519262461bcd60e51b84526004840152601a6024840152820152fd5b506000805260008352604060002033600052835260ff6040600020541661214f565b7f416d6f756e74206d7573742062652067726561746572207468616e203000000083916040519262461bcd60e51b84526004840152601d6024840152820152fd5b70496e76616c69642061646472657373657360781b83916040519262461bcd60e51b8452600484015260116024840152820152fd5b5086151561213a565b346103c85760203660031901126103c8576004356007548110156123cc576123b360209161269d565b905460405160039290921b1c6001600160a01b03168152f35b60405162461bcd60e51b8152602060048201526013602482015272496e646578206f7574206f6620626f756e647360681b6044820152606490fd5b346103c85760203660031901126103c8576004356007548110156103c8576123b360209161269d565b346103c85760003660031901126103c85760206040517f5aa58c694aeb083df8754bf5e98675317e4137a5a8a2c6188d0228869e43da7e8152f35b346103c85760403660031901126103c857612484612687565b336001600160a01b038216036124a05761062290600435612b5e565b60405162461bcd60e51b815260206004820152602f60248201527f416363657373436f6e74726f6c3a2063616e206f6e6c792072656e6f756e636560448201526e103937b632b9903337b91039b2b63360891b6064820152608490fd5b346103c85760403660031901126103c857600435612519612687565b8160005260006020526125336001604060002001546129ab565b81600052600060205260406000209060018060a01b0316908160005260205260ff604060002054161561256257005b8160005260006020526040600020816000526020526040600020600160ff1982541617905533917f2f8788117e7eff1d82e926ec794901d17c78024a50270940304540a733656f0d600080a4005b346103c85760203660031901126103c85760043560005260006020526020600160406000200154604051908152f35b346103c85760403660031901126103c8576125f8612671565b6024359060018060a01b038091166000526005602052604060002080548310156103c857602092612628916126d4565b9190546040519260031b1c168152f35b346103c85760003660031901126103c857807fe70d28ebd9d7d9a3dd77d46ae2481f301c80806f395b08de31d8e095b1c46cee60209252f35b600435906001600160a01b03821682036103c857565b602435906001600160a01b03821682036103c857565b6007548110156119745760076000527fa66cc928b5edb82af9bd49922954155ab7b0942694bea4ce44661d9a8736c6880190600090565b80548210156119745760005260206000200190600090565b60a081019081106001600160401b0382111761116457604052565b6101a081019081106001600160401b0382111761116457604052565b604081019081106001600160401b0382111761116457604052565b602081019081106001600160401b0382111761116457604052565b608081019081106001600160401b0382111761116457604052565b90601f801991011681019081106001600160401b0382111761116457604052565b81601f820112156103c8578035906001600160401b03821161116457604051926127c9601f8401601f191660200185612774565b828452602083830101116103c857816000926020809301838601378301015290565b60005b8381106127fe5750506000910152565b81810151838201526020016127ee565b6001600160401b0381116111645760051b60200190565b90600182811c92168015612855575b602083101461283f57565b634e487b7160e01b600052602260045260246000fd5b91607f1691612834565b906040519182600082549261287384612825565b9081845260019485811690816000146128e2575060011461289f575b505061289d92500383612774565b565b9093915060005260209081600020936000915b8183106128ca57505061289d9350820101388061288f565b855488840185015294850194879450918301916128b2565b91505061289d94506020925060ff191682840152151560051b820101388061288f565b9060209161291e815180928185528580860191016127eb565b601f01601f1916010190565b9060068210156103b25752565b9060058210156103b25752565b81811061294f575050565b60008155600101612944565b8051156119745760200190565b1561296f57565b60405162461bcd60e51b8152602060048201526014602482015273151bdad95b88191bd95cc81b9bdd08195e1a5cdd60621b6044820152606490fd5b600090808252602090828252604092838120338252835260ff8482205416156129d45750505050565b6129dd33612be3565b918451906129ea82612759565b60428252848201926060368537825115612b4a5760308453825190600191821015612b4a5790607860218501536041915b818311612adc57505050612a9a5760486118d2938693612a7e93612a6f985198899376020b1b1b2b9b9a1b7b73a3937b61d1030b1b1b7bab73a1604d1b8a86015261187a815180928c6037890191016127eb565b01036028810187520185612774565b5192839262461bcd60e51b845260048401526024830190612905565b60648486519062461bcd60e51b825280600483015260248201527f537472696e67733a20686578206c656e67746820696e73756666696369656e746044820152fd5b909192600f81166010811015612b36576f181899199a1a9b1b9c1cb0b131b232b360811b901a612b0c8587612bd2565b5360041c928015612b2257600019019190612a1b565b634e487b7160e01b82526011600452602482fd5b634e487b7160e01b83526032600452602483fd5b634e487b7160e01b81526032600452602490fd5b9060009180835282602052604083209160018060a01b03169182845260205260ff604084205416612b8e57505050565b80835282602052604083208284526020526040832060ff1981541690557ff6391f5c32d9c69d2a47ea670b442974b53935d1edc7fd64eb21e047a839171b339380a4565b908151811015611974570160200190565b60405190606082018281106001600160401b0382111761116457604052602a82526020820160403682378251156119745760309053815160019081101561197457607860218401536029905b808211612c3f5750506118d65790565b9091600f81166010811015612c98576f181899199a1a9b1b9c1cb0b131b232b360811b901a612c6e8486612bd2565b5360041c918015612c83576000190190612c2f565b60246000634e487b7160e01b81526011600452fd5b60246000634e487b7160e01b81526032600452fd5b600260015414612cbe576002600155565b60405162461bcd60e51b815260206004820152601f60248201527f5265656e7472616e637947756172643a207265656e7472616e742063616c6c006044820152606490fdfea264697066735822122082d7cc26d3c209b2714e3bbe8e9afc61075130ced93000305209aac2da86d75f64736f6c634300081300332f8788117e7eff1d82e926ec794901d17c78024a50270940304540a733656f0d",
  "linkReferences": {},
  "deployedLinkReferences": {}
}